{
	"contracts/Testament.sol": {
		"Testament": {
			"abi": [
				{
					"anonymous": false,
					"inputs": [
						{
							"indexed": false,
							"internalType": "string",
							"name": "deathCertificateId",
							"type": "string"
						}
					],
					"name": "Deceased",
					"type": "event"
				},
				{
					"anonymous": false,
					"inputs": [],
					"name": "Executed",
					"type": "event"
				},
				{
					"anonymous": false,
					"inputs": [
						{
							"indexed": true,
							"internalType": "address",
							"name": "previousOwner",
							"type": "address"
						},
						{
							"indexed": true,
							"internalType": "address",
							"name": "newOwner",
							"type": "address"
						}
					],
					"name": "OwnershipTransferred",
					"type": "event"
				},
				{
					"anonymous": false,
					"inputs": [
						{
							"indexed": false,
							"internalType": "address",
							"name": "account",
							"type": "address"
						}
					],
					"name": "Paused",
					"type": "event"
				},
				{
					"anonymous": false,
					"inputs": [
						{
							"indexed": false,
							"internalType": "address",
							"name": "account",
							"type": "address"
						}
					],
					"name": "Unpaused",
					"type": "event"
				},
				{
					"anonymous": false,
					"inputs": [
						{
							"indexed": false,
							"internalType": "string",
							"name": "assetId",
							"type": "string"
						},
						{
							"indexed": false,
							"internalType": "address",
							"name": "heir",
							"type": "address"
						},
						{
							"indexed": false,
							"internalType": "uint256",
							"name": "newPercent",
							"type": "uint256"
						},
						{
							"indexed": false,
							"internalType": "uint256",
							"name": "oldPercent",
							"type": "uint256"
						}
					],
					"name": "UpdatedAsset",
					"type": "event"
				},
				{
					"anonymous": false,
					"inputs": [
						{
							"indexed": false,
							"internalType": "bool",
							"name": "isDonor",
							"type": "bool"
						}
					],
					"name": "UpdatedIsDonor",
					"type": "event"
				},
				{
					"anonymous": false,
					"inputs": [
						{
							"indexed": false,
							"internalType": "address",
							"name": "notaryAddress",
							"type": "address"
						},
						{
							"indexed": false,
							"internalType": "address",
							"name": "oldNotaryAddress",
							"type": "address"
						}
					],
					"name": "UpdatedNotary",
					"type": "event"
				},
				{
					"anonymous": false,
					"inputs": [
						{
							"indexed": false,
							"internalType": "string",
							"name": "videoUrl",
							"type": "string"
						},
						{
							"indexed": false,
							"internalType": "string",
							"name": "oldVideoUrl",
							"type": "string"
						}
					],
					"name": "UpdatedVideo",
					"type": "event"
				},
				{
					"inputs": [
						{
							"internalType": "bytes32",
							"name": "",
							"type": "bytes32"
						},
						{
							"internalType": "address",
							"name": "",
							"type": "address"
						}
					],
					"name": "assetsPercents",
					"outputs": [
						{
							"internalType": "uint256",
							"name": "",
							"type": "uint256"
						}
					],
					"stateMutability": "view",
					"type": "function"
				},
				{
					"inputs": [],
					"name": "deathCertificateId",
					"outputs": [
						{
							"internalType": "string",
							"name": "",
							"type": "string"
						}
					],
					"stateMutability": "view",
					"type": "function"
				},
				{
					"inputs": [],
					"name": "executeTestament",
					"outputs": [],
					"stateMutability": "nonpayable",
					"type": "function"
				},
				{
					"inputs": [
						{
							"internalType": "string",
							"name": "_assetId",
							"type": "string"
						},
						{
							"internalType": "address",
							"name": "_heir",
							"type": "address"
						}
					],
					"name": "getAssetPercent",
					"outputs": [
						{
							"internalType": "uint256",
							"name": "",
							"type": "uint256"
						}
					],
					"stateMutability": "view",
					"type": "function"
				},
				{
					"inputs": [],
					"name": "isDonor",
					"outputs": [
						{
							"internalType": "bool",
							"name": "",
							"type": "bool"
						}
					],
					"stateMutability": "view",
					"type": "function"
				},
				{
					"inputs": [],
					"name": "isExecuted",
					"outputs": [
						{
							"internalType": "bool",
							"name": "",
							"type": "bool"
						}
					],
					"stateMutability": "view",
					"type": "function"
				},
				{
					"inputs": [],
					"name": "notary",
					"outputs": [
						{
							"internalType": "address",
							"name": "",
							"type": "address"
						}
					],
					"stateMutability": "view",
					"type": "function"
				},
				{
					"inputs": [],
					"name": "owner",
					"outputs": [
						{
							"internalType": "address",
							"name": "",
							"type": "address"
						}
					],
					"stateMutability": "view",
					"type": "function"
				},
				{
					"inputs": [],
					"name": "paused",
					"outputs": [
						{
							"internalType": "bool",
							"name": "",
							"type": "bool"
						}
					],
					"stateMutability": "view",
					"type": "function"
				},
				{
					"inputs": [
						{
							"internalType": "string",
							"name": "_assetId",
							"type": "string"
						},
						{
							"internalType": "address",
							"name": "_heir",
							"type": "address"
						},
						{
							"internalType": "uint256",
							"name": "_percent",
							"type": "uint256"
						}
					],
					"name": "registerAsset",
					"outputs": [],
					"stateMutability": "nonpayable",
					"type": "function"
				},
				{
					"inputs": [],
					"name": "renounceOwnership",
					"outputs": [],
					"stateMutability": "nonpayable",
					"type": "function"
				},
				{
					"inputs": [
						{
							"internalType": "string",
							"name": "_deathCertificateId",
							"type": "string"
						}
					],
					"name": "setDeathCertificate",
					"outputs": [],
					"stateMutability": "nonpayable",
					"type": "function"
				},
				{
					"inputs": [
						{
							"internalType": "bool",
							"name": "_isDonor",
							"type": "bool"
						}
					],
					"name": "setIsDonor",
					"outputs": [],
					"stateMutability": "nonpayable",
					"type": "function"
				},
				{
					"inputs": [
						{
							"internalType": "address",
							"name": "_notary",
							"type": "address"
						}
					],
					"name": "setNotary",
					"outputs": [],
					"stateMutability": "nonpayable",
					"type": "function"
				},
				{
					"inputs": [
						{
							"internalType": "string",
							"name": "_videoUrl",
							"type": "string"
						},
						{
							"internalType": "string",
							"name": "_videoPassword",
							"type": "string"
						}
					],
					"name": "setVideoUrl",
					"outputs": [],
					"stateMutability": "nonpayable",
					"type": "function"
				},
				{
					"inputs": [
						{
							"internalType": "address",
							"name": "newOwner",
							"type": "address"
						}
					],
					"name": "transferOwnership",
					"outputs": [],
					"stateMutability": "nonpayable",
					"type": "function"
				},
				{
					"inputs": [],
					"name": "videoPassword",
					"outputs": [
						{
							"internalType": "string",
							"name": "",
							"type": "string"
						}
					],
					"stateMutability": "view",
					"type": "function"
				},
				{
					"inputs": [],
					"name": "videoUrl",
					"outputs": [
						{
							"internalType": "string",
							"name": "",
							"type": "string"
						}
					],
					"stateMutability": "view",
					"type": "function"
				}
			],
			"devdoc": {
				"kind": "dev",
				"methods": {
					"owner()": {
						"details": "Returns the address of the current owner."
					},
					"paused()": {
						"details": "Returns true if the contract is paused, and false otherwise."
					},
					"renounceOwnership()": {
						"details": "Leaves the contract without owner. It will not be possible to call `onlyOwner` functions anymore. Can only be called by the current owner. NOTE: Renouncing ownership will leave the contract without an owner, thereby removing any functionality that is only available to the owner."
					},
					"transferOwnership(address)": {
						"details": "Transfers ownership of the contract to a new account (`newOwner`). Can only be called by the current owner."
					}
				},
				"version": 1
			},
			"evm": {
				"assembly": "    /* \"contracts/Testament.sol\":404:5037  contract Testament is Ownable, Pausable {... */\n  mstore(0x40, 0x80)\n  callvalue\n  dup1\n  iszero\n  tag_1\n  jumpi\n  0x00\n  dup1\n  revert\ntag_1:\n  pop\n    /* \"https://github.com/OpenZeppelin/openzeppelin-contracts/blob/master/contracts/access/Ownable.sol\":936:968  _transferOwnership(_msgSender()) */\n  tag_5\n    /* \"https://github.com/OpenZeppelin/openzeppelin-contracts/blob/master/contracts/utils/Context.sol\":719:729  msg.sender */\n  caller\n    /* \"https://github.com/OpenZeppelin/openzeppelin-contracts/blob/master/contracts/access/Ownable.sol\":936:954  _transferOwnership */\n  tag_8\n    /* \"https://github.com/OpenZeppelin/openzeppelin-contracts/blob/master/contracts/access/Ownable.sol\":936:968  _transferOwnership(_msgSender()) */\n  jump\t// in\ntag_5:\n    /* \"https://github.com/OpenZeppelin/openzeppelin-contracts/blob/master/contracts/security/Pausable.sol\":1006:1011  false */\n  0x00\n    /* \"https://github.com/OpenZeppelin/openzeppelin-contracts/blob/master/contracts/security/Pausable.sol\":996:1011  _paused = false */\n  dup1\n  sload\n  not(shl(0xa0, 0xff))\n  and\n  swap1\n  sstore\n    /* \"contracts/Testament.sol\":404:5037  contract Testament is Ownable, Pausable {... */\n  jump(tag_10)\n    /* \"https://github.com/OpenZeppelin/openzeppelin-contracts/blob/master/contracts/access/Ownable.sol\":2433:2620  function _transferOwnership(address newOwner) internal virtual {... */\ntag_8:\n    /* \"https://github.com/OpenZeppelin/openzeppelin-contracts/blob/master/contracts/access/Ownable.sol\":2506:2522  address oldOwner */\n  0x00\n    /* \"https://github.com/OpenZeppelin/openzeppelin-contracts/blob/master/contracts/access/Ownable.sol\":2525:2531  _owner */\n  dup1\n  sload\n  sub(shl(0xa0, 0x01), 0x01)\n    /* \"https://github.com/OpenZeppelin/openzeppelin-contracts/blob/master/contracts/access/Ownable.sol\":2541:2558  _owner = newOwner */\n  dup4\n  dup2\n  and\n  not(sub(shl(0xa0, 0x01), 0x01))\n  dup4\n  and\n  dup2\n  or\n  dup5\n  sstore\n    /* \"https://github.com/OpenZeppelin/openzeppelin-contracts/blob/master/contracts/access/Ownable.sol\":2573:2613  OwnershipTransferred(oldOwner, newOwner) */\n  mload(0x40)\n    /* \"https://github.com/OpenZeppelin/openzeppelin-contracts/blob/master/contracts/access/Ownable.sol\":2525:2531  _owner */\n  swap2\n  swap1\n  swap3\n  and\n  swap3\n  dup4\n  swap2\n    /* \"https://github.com/OpenZeppelin/openzeppelin-contracts/blob/master/contracts/access/Ownable.sol\":2573:2613  OwnershipTransferred(oldOwner, newOwner) */\n  0x8be0079c531659141344cd1fd0a4f28419497f9722a3daafe3b4186f6b6457e0\n  swap2\n    /* \"https://github.com/OpenZeppelin/openzeppelin-contracts/blob/master/contracts/access/Ownable.sol\":2506:2522  address oldOwner */\n  swap1\n    /* \"https://github.com/OpenZeppelin/openzeppelin-contracts/blob/master/contracts/access/Ownable.sol\":2573:2613  OwnershipTransferred(oldOwner, newOwner) */\n  log3\n    /* \"https://github.com/OpenZeppelin/openzeppelin-contracts/blob/master/contracts/access/Ownable.sol\":2496:2620  {... */\n  pop\n    /* \"https://github.com/OpenZeppelin/openzeppelin-contracts/blob/master/contracts/access/Ownable.sol\":2433:2620  function _transferOwnership(address newOwner) internal virtual {... */\n  pop\n  jump\t// out\n    /* \"contracts/Testament.sol\":404:5037  contract Testament is Ownable, Pausable {... */\ntag_10:\n  dataSize(sub_0)\n  dup1\n  dataOffset(sub_0)\n  0x00\n  codecopy\n  0x00\n  return\nstop\n\nsub_0: assembly {\n        /* \"contracts/Testament.sol\":404:5037  contract Testament is Ownable, Pausable {... */\n      mstore(0x40, 0x80)\n      callvalue\n      dup1\n      iszero\n      tag_1\n      jumpi\n      0x00\n      dup1\n      revert\n    tag_1:\n      pop\n      jumpi(tag_2, lt(calldatasize, 0x04))\n      shr(0xe0, calldataload(0x00))\n      dup1\n      0x9d54c79d\n      gt\n      tag_21\n      jumpi\n      dup1\n      0xbb2653fd\n      gt\n      tag_22\n      jumpi\n      dup1\n      0xbb2653fd\n      eq\n      tag_16\n      jumpi\n      dup1\n      0xce7aca32\n      eq\n      tag_17\n      jumpi\n      dup1\n      0xd47a10dc\n      eq\n      tag_18\n      jumpi\n      dup1\n      0xd958ff99\n      eq\n      tag_19\n      jumpi\n      dup1\n      0xf2fde38b\n      eq\n      tag_20\n      jumpi\n      0x00\n      dup1\n      revert\n    tag_22:\n      dup1\n      0x9d54c79d\n      eq\n      tag_12\n      jumpi\n      dup1\n      0xa394a0e6\n      eq\n      tag_13\n      jumpi\n      dup1\n      0xab600329\n      eq\n      tag_14\n      jumpi\n      dup1\n      0xb8f65a38\n      eq\n      tag_15\n      jumpi\n      0x00\n      dup1\n      revert\n    tag_21:\n      dup1\n      0x715018a6\n      gt\n      tag_23\n      jumpi\n      dup1\n      0x715018a6\n      eq\n      tag_7\n      jumpi\n      dup1\n      0x73c9fbe2\n      eq\n      tag_8\n      jumpi\n      dup1\n      0x83b6f760\n      eq\n      tag_9\n      jumpi\n      dup1\n      0x898199e7\n      eq\n      tag_10\n      jumpi\n      dup1\n      0x8da5cb5b\n      eq\n      tag_11\n      jumpi\n      0x00\n      dup1\n      revert\n    tag_23:\n      dup1\n      0x1ba437a6\n      eq\n      tag_3\n      jumpi\n      dup1\n      0x1c9feaa5\n      eq\n      tag_4\n      jumpi\n      dup1\n      0x22c8077f\n      eq\n      tag_5\n      jumpi\n      dup1\n      0x5c975abb\n      eq\n      tag_6\n      jumpi\n    tag_2:\n      0x00\n      dup1\n      revert\n        /* \"contracts/Testament.sol\":1394:1557  function getAssetPercent(string calldata _assetId, address _heir) public view returns (uint256) {... */\n    tag_3:\n      tag_24\n      tag_25\n      calldatasize\n      0x04\n      tag_26\n      jump\t// in\n    tag_25:\n      tag_27\n      jump\t// in\n    tag_24:\n      mload(0x40)\n        /* \"#utility.yul\":1181:1206   */\n      swap1\n      dup2\n      mstore\n        /* \"#utility.yul\":1169:1171   */\n      0x20\n        /* \"#utility.yul\":1154:1172   */\n      add\n        /* \"contracts/Testament.sol\":1394:1557  function getAssetPercent(string calldata _assetId, address _heir) public view returns (uint256) {... */\n    tag_28:\n      mload(0x40)\n      dup1\n      swap2\n      sub\n      swap1\n      return\n        /* \"contracts/Testament.sol\":911:933  bool public isExecuted */\n    tag_4:\n      sload(0x06)\n      tag_30\n      swap1\n      shl(0xa0, 0x01)\n      swap1\n      div\n      0xff\n      and\n      dup2\n      jump\n    tag_30:\n      mload(0x40)\n        /* \"#utility.yul\":1382:1396   */\n      swap1\n      iszero\n        /* \"#utility.yul\":1375:1397   */\n      iszero\n        /* \"#utility.yul\":1357:1398   */\n      dup2\n      mstore\n        /* \"#utility.yul\":1345:1347   */\n      0x20\n        /* \"#utility.yul\":1330:1348   */\n      add\n        /* \"contracts/Testament.sol\":911:933  bool public isExecuted */\n      tag_28\n        /* \"#utility.yul\":1217:1404   */\n      jump\n        /* \"contracts/Testament.sol\":609:628  bool public isDonor */\n    tag_5:\n      sload(0x02)\n      tag_30\n      swap1\n      0xff\n      and\n      dup2\n      jump\n        /* \"https://github.com/OpenZeppelin/openzeppelin-contracts/blob/master/contracts/security/Pausable.sol\":1615:1699  function paused() public view virtual returns (bool) {... */\n    tag_6:\n        /* \"https://github.com/OpenZeppelin/openzeppelin-contracts/blob/master/contracts/security/Pausable.sol\":1662:1666  bool */\n      0x00\n        /* \"https://github.com/OpenZeppelin/openzeppelin-contracts/blob/master/contracts/security/Pausable.sol\":1685:1692  _paused */\n      sload\n      shl(0xa0, 0x01)\n      swap1\n      div\n      0xff\n      and\n        /* \"https://github.com/OpenZeppelin/openzeppelin-contracts/blob/master/contracts/security/Pausable.sol\":1615:1699  function paused() public view virtual returns (bool) {... */\n      jump(tag_30)\n        /* \"https://github.com/OpenZeppelin/openzeppelin-contracts/blob/master/contracts/access/Ownable.sol\":1831:1932  function renounceOwnership() public virtual onlyOwner {... */\n    tag_7:\n      tag_40\n      tag_41\n      jump\t// in\n    tag_40:\n      stop\n        /* \"contracts/Testament.sol\":683:705  string public videoUrl */\n    tag_8:\n      tag_42\n      tag_43\n      jump\t// in\n    tag_42:\n      mload(0x40)\n      tag_28\n      swap2\n      swap1\n      tag_45\n      jump\t// in\n        /* \"contracts/Testament.sol\":3671:4164  function setDeathCertificate(string calldata _deathCertificateId) public whenNotPaused {... */\n    tag_9:\n      tag_40\n      tag_47\n      calldatasize\n      0x04\n      tag_48\n      jump\t// in\n    tag_47:\n      tag_49\n      jump\t// in\n        /* \"contracts/Testament.sol\":3383:3665  function executeTestament() public whenNotPaused {... */\n    tag_10:\n      tag_40\n      tag_51\n      jump\t// in\n        /* \"https://github.com/OpenZeppelin/openzeppelin-contracts/blob/master/contracts/access/Ownable.sol\":1201:1286  function owner() public view virtual returns (address) {... */\n    tag_11:\n        /* \"https://github.com/OpenZeppelin/openzeppelin-contracts/blob/master/contracts/access/Ownable.sol\":1247:1254  address */\n      0x00\n        /* \"https://github.com/OpenZeppelin/openzeppelin-contracts/blob/master/contracts/access/Ownable.sol\":1273:1279  _owner */\n      sload\n      sub(shl(0xa0, 0x01), 0x01)\n      and\n        /* \"https://github.com/OpenZeppelin/openzeppelin-contracts/blob/master/contracts/access/Ownable.sol\":1201:1286  function owner() public view virtual returns (address) {... */\n    tag_52:\n      mload(0x40)\n      sub(shl(0xa0, 0x01), 0x01)\n        /* \"#utility.yul\":2745:2777   */\n      swap1\n      swap2\n      and\n        /* \"#utility.yul\":2727:2778   */\n      dup2\n      mstore\n        /* \"#utility.yul\":2715:2717   */\n      0x20\n        /* \"#utility.yul\":2700:2718   */\n      add\n        /* \"https://github.com/OpenZeppelin/openzeppelin-contracts/blob/master/contracts/access/Ownable.sol\":1201:1286  function owner() public view virtual returns (address) {... */\n      tag_28\n        /* \"#utility.yul\":2581:2784   */\n      jump\n        /* \"contracts/Testament.sol\":883:904  address public notary */\n    tag_12:\n      sload(0x06)\n      tag_52\n      swap1\n      sub(shl(0xa0, 0x01), 0x01)\n      and\n      dup2\n      jump\n        /* \"contracts/Testament.sol\":2957:3377  function setNotary(address _notary) public onlyOwner whenNotPaused {... */\n    tag_13:\n      tag_40\n      tag_60\n      calldatasize\n      0x04\n      tag_61\n      jump\t// in\n    tag_60:\n      tag_62\n      jump\t// in\n        /* \"contracts/Testament.sol\":773:805  string public deathCertificateId */\n    tag_14:\n      tag_42\n      tag_64\n      jump\t// in\n        /* \"contracts/Testament.sol\":490:559  mapping(bytes32 => mapping(address => uint256)) public assetsPercents */\n    tag_15:\n      tag_24\n      tag_67\n      calldatasize\n      0x04\n      tag_68\n      jump\t// in\n    tag_67:\n      0x01\n      0x20\n      swap1\n      dup2\n      mstore\n      0x00\n      swap3\n      dup4\n      mstore\n      0x40\n      dup1\n      dup5\n      keccak256\n      swap1\n      swap2\n      mstore\n      swap1\n      dup3\n      mstore\n      swap1\n      keccak256\n      sload\n      dup2\n      jump\n        /* \"contracts/Testament.sol\":1563:2181  function registerAsset(string calldata _assetId, address _heir, uint256 _percent) public onlyOwner whenNotPaused {... */\n    tag_16:\n      tag_40\n      tag_72\n      calldatasize\n      0x04\n      tag_73\n      jump\t// in\n    tag_72:\n      tag_74\n      jump\t// in\n        /* \"contracts/Testament.sol\":2459:2951  function setVideoUrl(string calldata _videoUrl, string calldata _videoPassword) public onlyOwner whenNotPaused {... */\n    tag_17:\n      tag_40\n      tag_76\n      calldatasize\n      0x04\n      tag_77\n      jump\t// in\n    tag_76:\n      tag_78\n      jump\t// in\n        /* \"contracts/Testament.sol\":2187:2453  function setIsDonor(bool _isDonor) public onlyOwner whenNotPaused {... */\n    tag_18:\n      tag_40\n      tag_80\n      calldatasize\n      0x04\n      tag_81\n      jump\t// in\n    tag_80:\n      tag_82\n      jump\t// in\n        /* \"contracts/Testament.sol\":711:738  string public videoPassword */\n    tag_19:\n      tag_42\n      tag_84\n      jump\t// in\n        /* \"https://github.com/OpenZeppelin/openzeppelin-contracts/blob/master/contracts/access/Ownable.sol\":2081:2279  function transferOwnership(address newOwner) public virtual onlyOwner {... */\n    tag_20:\n      tag_40\n      tag_87\n      calldatasize\n      0x04\n      tag_61\n      jump\t// in\n    tag_87:\n      tag_88\n      jump\t// in\n        /* \"contracts/Testament.sol\":1394:1557  function getAssetPercent(string calldata _assetId, address _heir) public view returns (uint256) {... */\n    tag_27:\n        /* \"contracts/Testament.sol\":1481:1488  uint256 */\n      0x00\n        /* \"contracts/Testament.sol\":1507:1521  assetsPercents */\n      0x01\n        /* \"contracts/Testament.sol\":1507:1543  assetsPercents[secureHash(_assetId)] */\n      0x00\n        /* \"contracts/Testament.sol\":1522:1542  secureHash(_assetId) */\n      tag_90\n        /* \"contracts/Testament.sol\":1533:1541  _assetId */\n      dup7\n      dup7\n        /* \"contracts/Testament.sol\":1522:1542  secureHash(_assetId) */\n      dup1\n      dup1\n      0x1f\n      add\n      0x20\n      dup1\n      swap2\n      div\n      mul\n      0x20\n      add\n      mload(0x40)\n      swap1\n      dup2\n      add\n      0x40\n      mstore\n      dup1\n      swap4\n      swap3\n      swap2\n      swap1\n      dup2\n      dup2\n      mstore\n      0x20\n      add\n      dup4\n      dup4\n      dup1\n      dup3\n      dup5\n      calldatacopy\n      0x00\n      swap3\n      add\n      swap2\n      swap1\n      swap2\n      mstore\n      pop\n        /* \"contracts/Testament.sol\":1522:1532  secureHash */\n      tag_91\n      swap3\n      pop\n      pop\n      pop\n        /* \"contracts/Testament.sol\":1522:1542  secureHash(_assetId) */\n      jump\t// in\n    tag_90:\n        /* \"contracts/Testament.sol\":1507:1543  assetsPercents[secureHash(_assetId)] */\n      dup2\n      mstore\n      0x20\n      add\n      swap1\n      dup2\n      mstore\n      0x20\n      add\n      0x00\n      keccak256\n        /* \"contracts/Testament.sol\":1507:1550  assetsPercents[secureHash(_assetId)][_heir] */\n      0x00\n        /* \"contracts/Testament.sol\":1544:1549  _heir */\n      dup4\n      sub(shl(0xa0, 0x01), 0x01)\n        /* \"contracts/Testament.sol\":1507:1550  assetsPercents[secureHash(_assetId)][_heir] */\n      and\n      sub(shl(0xa0, 0x01), 0x01)\n      and\n      dup2\n      mstore\n      0x20\n      add\n      swap1\n      dup2\n      mstore\n      0x20\n      add\n      0x00\n      keccak256\n      sload\n        /* \"contracts/Testament.sol\":1500:1550  return assetsPercents[secureHash(_assetId)][_heir] */\n      swap1\n      pop\n        /* \"contracts/Testament.sol\":1394:1557  function getAssetPercent(string calldata _assetId, address _heir) public view returns (uint256) {... */\n      swap4\n      swap3\n      pop\n      pop\n      pop\n      jump\t// out\n        /* \"https://github.com/OpenZeppelin/openzeppelin-contracts/blob/master/contracts/access/Ownable.sol\":1831:1932  function renounceOwnership() public virtual onlyOwner {... */\n    tag_41:\n        /* \"https://github.com/OpenZeppelin/openzeppelin-contracts/blob/master/contracts/access/Ownable.sol\":1094:1107  _checkOwner() */\n      tag_94\n        /* \"https://github.com/OpenZeppelin/openzeppelin-contracts/blob/master/contracts/access/Ownable.sol\":1094:1105  _checkOwner */\n      tag_95\n        /* \"https://github.com/OpenZeppelin/openzeppelin-contracts/blob/master/contracts/access/Ownable.sol\":1094:1107  _checkOwner() */\n      jump\t// in\n    tag_94:\n        /* \"https://github.com/OpenZeppelin/openzeppelin-contracts/blob/master/contracts/access/Ownable.sol\":1895:1925  _transferOwnership(address(0)) */\n      tag_97\n        /* \"https://github.com/OpenZeppelin/openzeppelin-contracts/blob/master/contracts/access/Ownable.sol\":1922:1923  0 */\n      0x00\n        /* \"https://github.com/OpenZeppelin/openzeppelin-contracts/blob/master/contracts/access/Ownable.sol\":1895:1913  _transferOwnership */\n      tag_98\n        /* \"https://github.com/OpenZeppelin/openzeppelin-contracts/blob/master/contracts/access/Ownable.sol\":1895:1925  _transferOwnership(address(0)) */\n      jump\t// in\n    tag_97:\n        /* \"https://github.com/OpenZeppelin/openzeppelin-contracts/blob/master/contracts/access/Ownable.sol\":1831:1932  function renounceOwnership() public virtual onlyOwner {... */\n      jump\t// out\n        /* \"contracts/Testament.sol\":683:705  string public videoUrl */\n    tag_43:\n      0x03\n      dup1\n      sload\n      tag_99\n      swap1\n      tag_100\n      jump\t// in\n    tag_99:\n      dup1\n      0x1f\n      add\n      0x20\n      dup1\n      swap2\n      div\n      mul\n      0x20\n      add\n      mload(0x40)\n      swap1\n      dup2\n      add\n      0x40\n      mstore\n      dup1\n      swap3\n      swap2\n      swap1\n      dup2\n      dup2\n      mstore\n      0x20\n      add\n      dup3\n      dup1\n      sload\n      tag_101\n      swap1\n      tag_100\n      jump\t// in\n    tag_101:\n      dup1\n      iszero\n      tag_102\n      jumpi\n      dup1\n      0x1f\n      lt\n      tag_103\n      jumpi\n      0x0100\n      dup1\n      dup4\n      sload\n      div\n      mul\n      dup4\n      mstore\n      swap2\n      0x20\n      add\n      swap2\n      jump(tag_102)\n    tag_103:\n      dup3\n      add\n      swap2\n      swap1\n      0x00\n      mstore\n      keccak256(0x00, 0x20)\n      swap1\n    tag_104:\n      dup2\n      sload\n      dup2\n      mstore\n      swap1\n      0x01\n      add\n      swap1\n      0x20\n      add\n      dup1\n      dup4\n      gt\n      tag_104\n      jumpi\n      dup3\n      swap1\n      sub\n      0x1f\n      and\n      dup3\n      add\n      swap2\n    tag_102:\n      pop\n      pop\n      pop\n      pop\n      pop\n      dup2\n      jump\t// out\n        /* \"contracts/Testament.sol\":3671:4164  function setDeathCertificate(string calldata _deathCertificateId) public whenNotPaused {... */\n    tag_49:\n        /* \"https://github.com/OpenZeppelin/openzeppelin-contracts/blob/master/contracts/security/Pausable.sol\":1239:1258  _requireNotPaused() */\n      tag_106\n        /* \"https://github.com/OpenZeppelin/openzeppelin-contracts/blob/master/contracts/security/Pausable.sol\":1239:1256  _requireNotPaused */\n      tag_107\n        /* \"https://github.com/OpenZeppelin/openzeppelin-contracts/blob/master/contracts/security/Pausable.sol\":1239:1258  _requireNotPaused() */\n      jump\t// in\n    tag_106:\n        /* \"contracts/Testament.sol\":3790:3796  notary */\n      and(sub(shl(0xa0, 0x01), 0x01), sload(0x06))\n        /* \"contracts/Testament.sol\":3776:3786  msg.sender */\n      caller\n        /* \"contracts/Testament.sol\":3776:3796  msg.sender == notary */\n      eq\n        /* \"contracts/Testament.sol\":3768:3850  require(msg.sender == notary, 'Not enough permissions to add a death certificate') */\n      tag_109\n      jumpi\n      mload(0x40)\n      shl(0xe5, 0x461bcd)\n      dup2\n      mstore\n        /* \"#utility.yul\":5388:5390   */\n      0x20\n        /* \"contracts/Testament.sol\":3768:3850  require(msg.sender == notary, 'Not enough permissions to add a death certificate') */\n      0x04\n      dup3\n      add\n        /* \"#utility.yul\":5370:5391   */\n      mstore\n        /* \"#utility.yul\":5427:5429   */\n      0x31\n        /* \"#utility.yul\":5407:5425   */\n      0x24\n      dup3\n      add\n        /* \"#utility.yul\":5400:5430   */\n      mstore\n        /* \"#utility.yul\":5466:5500   */\n      0x4e6f7420656e6f756768207065726d697373696f6e7320746f20616464206120\n        /* \"#utility.yul\":5446:5464   */\n      0x44\n      dup3\n      add\n        /* \"#utility.yul\":5439:5501   */\n      mstore\n      shl(0x78, 0x6465617468206365727469666963617465)\n        /* \"#utility.yul\":5517:5535   */\n      0x64\n      dup3\n      add\n        /* \"#utility.yul\":5510:5557   */\n      mstore\n        /* \"#utility.yul\":5574:5593   */\n      0x84\n      add\n        /* \"contracts/Testament.sol\":3768:3850  require(msg.sender == notary, 'Not enough permissions to add a death certificate') */\n    tag_110:\n      mload(0x40)\n      dup1\n      swap2\n      sub\n      swap1\n      revert\n    tag_109:\n        /* \"contracts/Testament.sol\":3860:3880  checkIsNotExecuted() */\n      tag_112\n        /* \"contracts/Testament.sol\":3860:3878  checkIsNotExecuted */\n      tag_113\n        /* \"contracts/Testament.sol\":3860:3880  checkIsNotExecuted() */\n      jump\t// in\n    tag_112:\n        /* \"contracts/Testament.sol\":3890:3928  checkIsDeath('Owner is already death') */\n      tag_114\n      mload(0x40)\n      dup1\n      0x40\n      add\n      0x40\n      mstore\n      dup1\n      0x16\n      dup2\n      mstore\n      0x20\n      add\n      shl(0x53, 0x09eeedccae440d2e640c2d8e4cac2c8f240c8cac2e8d)\n      dup2\n      mstore\n      pop\n        /* \"contracts/Testament.sol\":3890:3902  checkIsDeath */\n      tag_115\n        /* \"contracts/Testament.sol\":3890:3928  checkIsDeath('Owner is already death') */\n      jump\t// in\n    tag_114:\n        /* \"contracts/Testament.sol\":3938:4006  requireValidString(_deathCertificateId, 'Invalid death certificate') */\n      tag_116\n        /* \"contracts/Testament.sol\":3957:3976  _deathCertificateId */\n      dup3\n      dup3\n        /* \"contracts/Testament.sol\":3938:4006  requireValidString(_deathCertificateId, 'Invalid death certificate') */\n      dup1\n      dup1\n      0x1f\n      add\n      0x20\n      dup1\n      swap2\n      div\n      mul\n      0x20\n      add\n      mload(0x40)\n      swap1\n      dup2\n      add\n      0x40\n      mstore\n      dup1\n      swap4\n      swap3\n      swap2\n      swap1\n      dup2\n      dup2\n      mstore\n      0x20\n      add\n      dup4\n      dup4\n      dup1\n      dup3\n      dup5\n      calldatacopy\n      0x00\n      swap3\n      add\n      swap2\n      swap1\n      swap2\n      mstore\n      pop\n      pop\n      0x40\n      dup1\n      mload\n      dup1\n      dup3\n      add\n      swap1\n      swap2\n      mstore\n      0x19\n      dup2\n      mstore\n      0x496e76616c696420646561746820636572746966696361746500000000000000\n      0x20\n      dup3\n      add\n      mstore\n      swap2\n      pop\n        /* \"contracts/Testament.sol\":3938:3956  requireValidString */\n      tag_117\n      swap1\n      pop\n        /* \"contracts/Testament.sol\":3938:4006  requireValidString(_deathCertificateId, 'Invalid death certificate') */\n      jump\t// in\n    tag_116:\n        /* \"contracts/Testament.sol\":4017:4035  deathCertificateId */\n      0x05\n        /* \"contracts/Testament.sol\":4017:4057  deathCertificateId = _deathCertificateId */\n      tag_118\n        /* \"contracts/Testament.sol\":4038:4057  _deathCertificateId */\n      dup3\n      dup5\n        /* \"contracts/Testament.sol\":4017:4035  deathCertificateId */\n      dup4\n        /* \"contracts/Testament.sol\":4017:4057  deathCertificateId = _deathCertificateId */\n      tag_119\n      jump\t// in\n    tag_118:\n      pop\n        /* \"contracts/Testament.sol\":4094:4113  renounceOwnership() */\n      tag_120\n        /* \"contracts/Testament.sol\":4094:4111  renounceOwnership */\n      tag_41\n        /* \"contracts/Testament.sol\":4094:4113  renounceOwnership() */\n      jump\t// in\n    tag_120:\n        /* \"contracts/Testament.sol\":4129:4157  Deceased(deathCertificateId) */\n      0x69b3912734ea45353fa47ae50c0264b277f901fab10492a2f8071f859724cf8c\n        /* \"contracts/Testament.sol\":4138:4156  deathCertificateId */\n      0x05\n        /* \"contracts/Testament.sol\":4129:4157  Deceased(deathCertificateId) */\n      mload(0x40)\n      tag_121\n      swap2\n      swap1\n      tag_122\n      jump\t// in\n    tag_121:\n      mload(0x40)\n      dup1\n      swap2\n      sub\n      swap1\n      log1\n        /* \"contracts/Testament.sol\":3671:4164  function setDeathCertificate(string calldata _deathCertificateId) public whenNotPaused {... */\n      pop\n      pop\n      jump\t// out\n        /* \"contracts/Testament.sol\":3383:3665  function executeTestament() public whenNotPaused {... */\n    tag_51:\n        /* \"https://github.com/OpenZeppelin/openzeppelin-contracts/blob/master/contracts/security/Pausable.sol\":1239:1258  _requireNotPaused() */\n      tag_124\n        /* \"https://github.com/OpenZeppelin/openzeppelin-contracts/blob/master/contracts/security/Pausable.sol\":1239:1256  _requireNotPaused */\n      tag_107\n        /* \"https://github.com/OpenZeppelin/openzeppelin-contracts/blob/master/contracts/security/Pausable.sol\":1239:1258  _requireNotPaused() */\n      jump\t// in\n    tag_124:\n        /* \"contracts/Testament.sol\":3464:3470  notary */\n      and(sub(shl(0xa0, 0x01), 0x01), sload(0x06))\n        /* \"contracts/Testament.sol\":3450:3460  msg.sender */\n      caller\n        /* \"contracts/Testament.sol\":3450:3470  msg.sender == notary */\n      eq\n        /* \"contracts/Testament.sol\":3442:3522  require(msg.sender == notary, 'Not enough permissions to execute the testament') */\n      tag_126\n      jumpi\n      mload(0x40)\n      shl(0xe5, 0x461bcd)\n      dup2\n      mstore\n        /* \"#utility.yul\":9003:9005   */\n      0x20\n        /* \"contracts/Testament.sol\":3442:3522  require(msg.sender == notary, 'Not enough permissions to execute the testament') */\n      0x04\n      dup3\n      add\n        /* \"#utility.yul\":8985:9006   */\n      mstore\n        /* \"#utility.yul\":9042:9044   */\n      0x2f\n        /* \"#utility.yul\":9022:9040   */\n      0x24\n      dup3\n      add\n        /* \"#utility.yul\":9015:9045   */\n      mstore\n        /* \"#utility.yul\":9081:9115   */\n      0x4e6f7420656e6f756768207065726d697373696f6e7320746f20657865637574\n        /* \"#utility.yul\":9061:9079   */\n      0x44\n      dup3\n      add\n        /* \"#utility.yul\":9054:9116   */\n      mstore\n      shl(0x8a, 0x19481d1a19481d195cdd185b595b9d)\n        /* \"#utility.yul\":9132:9150   */\n      0x64\n      dup3\n      add\n        /* \"#utility.yul\":9125:9170   */\n      mstore\n        /* \"#utility.yul\":9187:9206   */\n      0x84\n      add\n        /* \"contracts/Testament.sol\":3442:3522  require(msg.sender == notary, 'Not enough permissions to execute the testament') */\n      tag_110\n        /* \"#utility.yul\":8801:9212   */\n      jump\n        /* \"contracts/Testament.sol\":3442:3522  require(msg.sender == notary, 'Not enough permissions to execute the testament') */\n    tag_126:\n        /* \"contracts/Testament.sol\":3532:3574  checkIsDeath('Death certificate required') */\n      tag_129\n      mload(0x40)\n      dup1\n      0x40\n      add\n      0x40\n      mstore\n      dup1\n      0x1a\n      dup2\n      mstore\n      0x20\n      add\n      0x4465617468206365727469666963617465207265717569726564000000000000\n      dup2\n      mstore\n      pop\n        /* \"contracts/Testament.sol\":3532:3544  checkIsDeath */\n      tag_115\n        /* \"contracts/Testament.sol\":3532:3574  checkIsDeath('Death certificate required') */\n      jump\t// in\n    tag_129:\n        /* \"contracts/Testament.sol\":3584:3604  checkIsNotExecuted() */\n      tag_130\n        /* \"contracts/Testament.sol\":3584:3602  checkIsNotExecuted */\n      tag_113\n        /* \"contracts/Testament.sol\":3584:3604  checkIsNotExecuted() */\n      jump\t// in\n    tag_130:\n        /* \"contracts/Testament.sol\":3615:3625  isExecuted */\n      0x06\n        /* \"contracts/Testament.sol\":3615:3632  isExecuted = true */\n      dup1\n      sload\n      not(shl(0xa0, 0xff))\n      and\n      shl(0xa0, 0x01)\n      or\n      swap1\n      sstore\n        /* \"contracts/Testament.sol\":3648:3658  Executed() */\n      mload(0x40)\n      0x68f46c45a243a0e9065a97649faf9a5afe1692f2679e650c2f853b9cd734cc0e\n      swap1\n        /* \"contracts/Testament.sol\":3615:3632  isExecuted = true */\n      0x00\n      swap1\n        /* \"contracts/Testament.sol\":3648:3658  Executed() */\n      log1\n        /* \"contracts/Testament.sol\":3383:3665  function executeTestament() public whenNotPaused {... */\n      jump\t// out\n        /* \"contracts/Testament.sol\":2957:3377  function setNotary(address _notary) public onlyOwner whenNotPaused {... */\n    tag_62:\n        /* \"https://github.com/OpenZeppelin/openzeppelin-contracts/blob/master/contracts/access/Ownable.sol\":1094:1107  _checkOwner() */\n      tag_133\n        /* \"https://github.com/OpenZeppelin/openzeppelin-contracts/blob/master/contracts/access/Ownable.sol\":1094:1105  _checkOwner */\n      tag_95\n        /* \"https://github.com/OpenZeppelin/openzeppelin-contracts/blob/master/contracts/access/Ownable.sol\":1094:1107  _checkOwner() */\n      jump\t// in\n    tag_133:\n        /* \"https://github.com/OpenZeppelin/openzeppelin-contracts/blob/master/contracts/security/Pausable.sol\":1239:1258  _requireNotPaused() */\n      tag_135\n        /* \"https://github.com/OpenZeppelin/openzeppelin-contracts/blob/master/contracts/security/Pausable.sol\":1239:1256  _requireNotPaused */\n      tag_107\n        /* \"https://github.com/OpenZeppelin/openzeppelin-contracts/blob/master/contracts/security/Pausable.sol\":1239:1258  _requireNotPaused() */\n      jump\t// in\n    tag_135:\n        /* \"contracts/Testament.sol\":3034:3051  checkIsNotDeath() */\n      tag_137\n        /* \"contracts/Testament.sol\":3034:3049  checkIsNotDeath */\n      tag_138\n        /* \"contracts/Testament.sol\":3034:3051  checkIsNotDeath() */\n      jump\t// in\n    tag_137:\n        /* \"contracts/Testament.sol\":3061:3081  checkIsNotExecuted() */\n      tag_139\n        /* \"contracts/Testament.sol\":3061:3079  checkIsNotExecuted */\n      tag_113\n        /* \"contracts/Testament.sol\":3061:3081  checkIsNotExecuted() */\n      jump\t// in\n    tag_139:\n        /* \"https://github.com/OpenZeppelin/openzeppelin-contracts/blob/master/contracts/access/Ownable.sol\":1247:1254  address */\n      0x00\n        /* \"https://github.com/OpenZeppelin/openzeppelin-contracts/blob/master/contracts/access/Ownable.sol\":1273:1279  _owner */\n      sload\n      sub(shl(0xa0, 0x01), 0x01)\n      and\n      sub(shl(0xa0, 0x01), 0x01)\n        /* \"contracts/Testament.sol\":3099:3117  _notary != owner() */\n      and\n        /* \"contracts/Testament.sol\":3099:3106  _notary */\n      dup2\n      sub(shl(0xa0, 0x01), 0x01)\n        /* \"contracts/Testament.sol\":3099:3117  _notary != owner() */\n      and\n      sub\n        /* \"contracts/Testament.sol\":3091:3165  require(_notary != owner(), 'Owner of the testament cannot be the notary') */\n      tag_141\n      jumpi\n      mload(0x40)\n      shl(0xe5, 0x461bcd)\n      dup2\n      mstore\n        /* \"#utility.yul\":9419:9421   */\n      0x20\n        /* \"contracts/Testament.sol\":3091:3165  require(_notary != owner(), 'Owner of the testament cannot be the notary') */\n      0x04\n      dup3\n      add\n        /* \"#utility.yul\":9401:9422   */\n      mstore\n        /* \"#utility.yul\":9458:9460   */\n      0x2b\n        /* \"#utility.yul\":9438:9456   */\n      0x24\n      dup3\n      add\n        /* \"#utility.yul\":9431:9461   */\n      mstore\n        /* \"#utility.yul\":9497:9531   */\n      0x4f776e6572206f66207468652074657374616d656e742063616e6e6f74206265\n        /* \"#utility.yul\":9477:9495   */\n      0x44\n      dup3\n      add\n        /* \"#utility.yul\":9470:9532   */\n      mstore\n      shl(0xa8, 0x20746865206e6f74617279)\n        /* \"#utility.yul\":9548:9566   */\n      0x64\n      dup3\n      add\n        /* \"#utility.yul\":9541:9582   */\n      mstore\n        /* \"#utility.yul\":9599:9618   */\n      0x84\n      add\n        /* \"contracts/Testament.sol\":3091:3165  require(_notary != owner(), 'Owner of the testament cannot be the notary') */\n      tag_110\n        /* \"#utility.yul\":9217:9624   */\n      jump\n        /* \"contracts/Testament.sol\":3091:3165  require(_notary != owner(), 'Owner of the testament cannot be the notary') */\n    tag_141:\n        /* \"contracts/Testament.sol\":3194:3200  notary */\n      sload(0x06)\n      sub(shl(0xa0, 0x01), 0x01)\n      swap1\n      dup2\n      and\n        /* \"contracts/Testament.sol\":3183:3200  _notary != notary */\n      swap1\n      dup3\n      and\n      sub\n        /* \"contracts/Testament.sol\":3175:3258  require(_notary != notary, 'Notary already stored, try a different notary address') */\n      tag_144\n      jumpi\n      mload(0x40)\n      shl(0xe5, 0x461bcd)\n      dup2\n      mstore\n        /* \"#utility.yul\":9831:9833   */\n      0x20\n        /* \"contracts/Testament.sol\":3175:3258  require(_notary != notary, 'Notary already stored, try a different notary address') */\n      0x04\n      dup3\n      add\n        /* \"#utility.yul\":9813:9834   */\n      mstore\n        /* \"#utility.yul\":9870:9872   */\n      0x35\n        /* \"#utility.yul\":9850:9868   */\n      0x24\n      dup3\n      add\n        /* \"#utility.yul\":9843:9873   */\n      mstore\n        /* \"#utility.yul\":9909:9943   */\n      0x4e6f7461727920616c72656164792073746f7265642c20747279206120646966\n        /* \"#utility.yul\":9889:9907   */\n      0x44\n      dup3\n      add\n        /* \"#utility.yul\":9882:9944   */\n      mstore\n      shl(0x58, 0x666572656e74206e6f746172792061646472657373)\n        /* \"#utility.yul\":9960:9978   */\n      0x64\n      dup3\n      add\n        /* \"#utility.yul\":9953:10004   */\n      mstore\n        /* \"#utility.yul\":10021:10040   */\n      0x84\n      add\n        /* \"contracts/Testament.sol\":3175:3258  require(_notary != notary, 'Notary already stored, try a different notary address') */\n      tag_110\n        /* \"#utility.yul\":9629:10046   */\n      jump\n        /* \"contracts/Testament.sol\":3175:3258  require(_notary != notary, 'Notary already stored, try a different notary address') */\n    tag_144:\n        /* \"contracts/Testament.sol\":3289:3295  notary */\n      0x06\n      dup1\n      sload\n      sub(shl(0xa0, 0x01), 0x01)\n        /* \"contracts/Testament.sol\":3306:3322  notary = _notary */\n      dup4\n      dup2\n      and\n      not(sub(shl(0xa0, 0x01), 0x01))\n      dup4\n      and\n      dup2\n      or\n      swap1\n      swap4\n      sstore\n        /* \"contracts/Testament.sol\":3338:3370  UpdatedNotary(notary, oldNotary) */\n      0x40\n      dup1\n      mload\n        /* \"#utility.yul\":10263:10297   */\n      swap4\n      dup5\n      mstore\n        /* \"contracts/Testament.sol\":3289:3295  notary */\n      swap2\n      and\n        /* \"#utility.yul\":10328:10330   */\n      0x20\n        /* \"#utility.yul\":10313:10331   */\n      dup4\n      add\n        /* \"#utility.yul\":10306:10349   */\n      dup2\n      swap1\n      mstore\n        /* \"contracts/Testament.sol\":3289:3295  notary */\n      swap2\n        /* \"contracts/Testament.sol\":3338:3370  UpdatedNotary(notary, oldNotary) */\n      0xc3dd0606c8063f6a1f8015be4afee6b47ac45ddbaf39418871880440620dce8d\n      swap2\n        /* \"#utility.yul\":10198:10216   */\n      add\n        /* \"contracts/Testament.sol\":3338:3370  UpdatedNotary(notary, oldNotary) */\n      tag_121\n        /* \"#utility.yul\":10051:10355   */\n      jump\n        /* \"contracts/Testament.sol\":773:805  string public deathCertificateId */\n    tag_64:\n      0x05\n      dup1\n      sload\n      tag_99\n      swap1\n      tag_100\n      jump\t// in\n        /* \"contracts/Testament.sol\":1563:2181  function registerAsset(string calldata _assetId, address _heir, uint256 _percent) public onlyOwner whenNotPaused {... */\n    tag_74:\n        /* \"https://github.com/OpenZeppelin/openzeppelin-contracts/blob/master/contracts/access/Ownable.sol\":1094:1107  _checkOwner() */\n      tag_155\n        /* \"https://github.com/OpenZeppelin/openzeppelin-contracts/blob/master/contracts/access/Ownable.sol\":1094:1105  _checkOwner */\n      tag_95\n        /* \"https://github.com/OpenZeppelin/openzeppelin-contracts/blob/master/contracts/access/Ownable.sol\":1094:1107  _checkOwner() */\n      jump\t// in\n    tag_155:\n        /* \"https://github.com/OpenZeppelin/openzeppelin-contracts/blob/master/contracts/security/Pausable.sol\":1239:1258  _requireNotPaused() */\n      tag_157\n        /* \"https://github.com/OpenZeppelin/openzeppelin-contracts/blob/master/contracts/security/Pausable.sol\":1239:1256  _requireNotPaused */\n      tag_107\n        /* \"https://github.com/OpenZeppelin/openzeppelin-contracts/blob/master/contracts/security/Pausable.sol\":1239:1258  _requireNotPaused() */\n      jump\t// in\n    tag_157:\n        /* \"contracts/Testament.sol\":1695:1705  isExecuted */\n      sload(0x06)\n      shl(0xa0, 0x01)\n      swap1\n      div\n      0xff\n      and\n        /* \"contracts/Testament.sol\":1694:1705  !isExecuted */\n      iszero\n        /* \"contracts/Testament.sol\":1686:1706  require(!isExecuted) */\n      tag_159\n      jumpi\n      0x00\n      dup1\n      revert\n    tag_159:\n        /* \"https://github.com/OpenZeppelin/openzeppelin-contracts/blob/master/contracts/access/Ownable.sol\":1247:1254  address */\n      0x00\n        /* \"https://github.com/OpenZeppelin/openzeppelin-contracts/blob/master/contracts/access/Ownable.sol\":1273:1279  _owner */\n      sload\n      sub(shl(0xa0, 0x01), 0x01)\n      and\n      sub(shl(0xa0, 0x01), 0x01)\n        /* \"contracts/Testament.sol\":1724:1740  _heir != owner() */\n      and\n        /* \"contracts/Testament.sol\":1724:1729  _heir */\n      dup3\n      sub(shl(0xa0, 0x01), 0x01)\n        /* \"contracts/Testament.sol\":1724:1740  _heir != owner() */\n      and\n      sub\n        /* \"contracts/Testament.sol\":1716:1784  require(_heir != owner(), 'Owner of the testament cannot be a heir') */\n      tag_161\n      jumpi\n      mload(0x40)\n      shl(0xe5, 0x461bcd)\n      dup2\n      mstore\n        /* \"#utility.yul\":10562:10564   */\n      0x20\n        /* \"contracts/Testament.sol\":1716:1784  require(_heir != owner(), 'Owner of the testament cannot be a heir') */\n      0x04\n      dup3\n      add\n        /* \"#utility.yul\":10544:10565   */\n      mstore\n        /* \"#utility.yul\":10601:10603   */\n      0x27\n        /* \"#utility.yul\":10581:10599   */\n      0x24\n      dup3\n      add\n        /* \"#utility.yul\":10574:10604   */\n      mstore\n        /* \"#utility.yul\":10640:10674   */\n      0x4f776e6572206f66207468652074657374616d656e742063616e6e6f74206265\n        /* \"#utility.yul\":10620:10638   */\n      0x44\n      dup3\n      add\n        /* \"#utility.yul\":10613:10675   */\n      mstore\n      shl(0xc9, 0x1030903432b4b9)\n        /* \"#utility.yul\":10691:10709   */\n      0x64\n      dup3\n      add\n        /* \"#utility.yul\":10684:10721   */\n      mstore\n        /* \"#utility.yul\":10738:10757   */\n      0x84\n      add\n        /* \"contracts/Testament.sol\":1716:1784  require(_heir != owner(), 'Owner of the testament cannot be a heir') */\n      tag_110\n        /* \"#utility.yul\":10360:10763   */\n      jump\n        /* \"contracts/Testament.sol\":1716:1784  require(_heir != owner(), 'Owner of the testament cannot be a heir') */\n    tag_161:\n        /* \"contracts/Testament.sol\":1794:1842  requireValidString(_assetId, 'Invalid asset id') */\n      tag_164\n        /* \"contracts/Testament.sol\":1813:1821  _assetId */\n      dup5\n      dup5\n        /* \"contracts/Testament.sol\":1794:1842  requireValidString(_assetId, 'Invalid asset id') */\n      dup1\n      dup1\n      0x1f\n      add\n      0x20\n      dup1\n      swap2\n      div\n      mul\n      0x20\n      add\n      mload(0x40)\n      swap1\n      dup2\n      add\n      0x40\n      mstore\n      dup1\n      swap4\n      swap3\n      swap2\n      swap1\n      dup2\n      dup2\n      mstore\n      0x20\n      add\n      dup4\n      dup4\n      dup1\n      dup3\n      dup5\n      calldatacopy\n      0x00\n      swap3\n      add\n      swap2\n      swap1\n      swap2\n      mstore\n      pop\n      pop\n      0x40\n      dup1\n      mload\n      dup1\n      dup3\n      add\n      swap1\n      swap2\n      mstore\n      0x10\n      dup2\n      mstore\n      shl(0x82, 0x125b9d985b1a5908185cdcd95d081a59)\n      0x20\n      dup3\n      add\n      mstore\n      swap2\n      pop\n        /* \"contracts/Testament.sol\":1794:1812  requireValidString */\n      tag_117\n      swap1\n      pop\n        /* \"contracts/Testament.sol\":1794:1842  requireValidString(_assetId, 'Invalid asset id') */\n      jump\t// in\n    tag_164:\n        /* \"contracts/Testament.sol\":1853:1874  bytes32 secureAssetId */\n      0x00\n        /* \"contracts/Testament.sol\":1877:1897  secureHash(_assetId) */\n      tag_165\n        /* \"contracts/Testament.sol\":1888:1896  _assetId */\n      dup6\n      dup6\n        /* \"contracts/Testament.sol\":1877:1897  secureHash(_assetId) */\n      dup1\n      dup1\n      0x1f\n      add\n      0x20\n      dup1\n      swap2\n      div\n      mul\n      0x20\n      add\n      mload(0x40)\n      swap1\n      dup2\n      add\n      0x40\n      mstore\n      dup1\n      swap4\n      swap3\n      swap2\n      swap1\n      dup2\n      dup2\n      mstore\n      0x20\n      add\n      dup4\n      dup4\n      dup1\n      dup3\n      dup5\n      calldatacopy\n      0x00\n      swap3\n      add\n      swap2\n      swap1\n      swap2\n      mstore\n      pop\n        /* \"contracts/Testament.sol\":1877:1887  secureHash */\n      tag_91\n      swap3\n      pop\n      pop\n      pop\n        /* \"contracts/Testament.sol\":1877:1897  secureHash(_assetId) */\n      jump\t// in\n    tag_165:\n        /* \"contracts/Testament.sol\":1908:1926  uint256 oldPercent */\n      0x00\n        /* \"contracts/Testament.sol\":1929:1958  assetsPercents[secureAssetId] */\n      dup2\n      dup2\n      mstore\n        /* \"contracts/Testament.sol\":1929:1943  assetsPercents */\n      0x01\n        /* \"contracts/Testament.sol\":1929:1958  assetsPercents[secureAssetId] */\n      0x20\n      swap1\n      dup2\n      mstore\n      0x40\n      dup1\n      dup4\n      keccak256\n      sub(shl(0xa0, 0x01), 0x01)\n        /* \"contracts/Testament.sol\":1929:1965  assetsPercents[secureAssetId][_heir] */\n      dup9\n      and\n      dup5\n      mstore\n      swap1\n      swap2\n      mstore\n      swap1\n      keccak256\n      sload\n        /* \"contracts/Testament.sol\":1853:1897  bytes32 secureAssetId = secureHash(_assetId) */\n      swap1\n      swap2\n      pop\n        /* \"contracts/Testament.sol\":1984:2006  oldPercent != _percent */\n      dup3\n      dup2\n      sub\n        /* \"contracts/Testament.sol\":1976:2049  require(oldPercent != _percent, 'Percent already set for the heir asset') */\n      tag_166\n      jumpi\n      mload(0x40)\n      shl(0xe5, 0x461bcd)\n      dup2\n      mstore\n        /* \"#utility.yul\":10970:10972   */\n      0x20\n        /* \"contracts/Testament.sol\":1976:2049  require(oldPercent != _percent, 'Percent already set for the heir asset') */\n      0x04\n      dup3\n      add\n        /* \"#utility.yul\":10952:10973   */\n      mstore\n        /* \"#utility.yul\":11009:11011   */\n      0x26\n        /* \"#utility.yul\":10989:11007   */\n      0x24\n      dup3\n      add\n        /* \"#utility.yul\":10982:11012   */\n      mstore\n        /* \"#utility.yul\":11048:11082   */\n      0x50657263656e7420616c72656164792073657420666f72207468652068656972\n        /* \"#utility.yul\":11028:11046   */\n      0x44\n      dup3\n      add\n        /* \"#utility.yul\":11021:11083   */\n      mstore\n      shl(0xd2, 0x08185cdcd95d)\n        /* \"#utility.yul\":11099:11117   */\n      0x64\n      dup3\n      add\n        /* \"#utility.yul\":11092:11128   */\n      mstore\n        /* \"#utility.yul\":11145:11164   */\n      0x84\n      add\n        /* \"contracts/Testament.sol\":1976:2049  require(oldPercent != _percent, 'Percent already set for the heir asset') */\n      tag_110\n        /* \"#utility.yul\":10768:11170   */\n      jump\n        /* \"contracts/Testament.sol\":1976:2049  require(oldPercent != _percent, 'Percent already set for the heir asset') */\n    tag_166:\n        /* \"contracts/Testament.sol\":2060:2089  assetsPercents[secureAssetId] */\n      0x00\n      dup3\n      dup2\n      mstore\n        /* \"contracts/Testament.sol\":2060:2074  assetsPercents */\n      0x01\n        /* \"contracts/Testament.sol\":2060:2089  assetsPercents[secureAssetId] */\n      0x20\n      swap1\n      dup2\n      mstore\n      0x40\n      dup1\n      dup4\n      keccak256\n      sub(shl(0xa0, 0x01), 0x01)\n        /* \"contracts/Testament.sol\":2060:2096  assetsPercents[secureAssetId][_heir] */\n      dup9\n      and\n      dup5\n      mstore\n      swap1\n      swap2\n      mstore\n      swap1\n      dup2\n      swap1\n      keccak256\n        /* \"contracts/Testament.sol\":2060:2107  assetsPercents[secureAssetId][_heir] = _percent */\n      dup5\n      swap1\n      sstore\n        /* \"contracts/Testament.sol\":2123:2174  UpdatedAsset(_assetId, _heir, _percent, oldPercent) */\n      mload\n      0x59c0830dc4499204f0a6d6564d9ded164162be6e588228978d12d860cda2d132\n      swap1\n      tag_169\n      swap1\n        /* \"contracts/Testament.sol\":2136:2144  _assetId */\n      dup9\n      swap1\n      dup9\n      swap1\n        /* \"contracts/Testament.sol\":2090:2095  _heir */\n      dup9\n      swap1\n        /* \"contracts/Testament.sol\":2099:2107  _percent */\n      dup9\n      swap1\n        /* \"contracts/Testament.sol\":2163:2173  oldPercent */\n      dup8\n      swap1\n        /* \"contracts/Testament.sol\":2123:2174  UpdatedAsset(_assetId, _heir, _percent, oldPercent) */\n      tag_170\n      jump\t// in\n    tag_169:\n      mload(0x40)\n      dup1\n      swap2\n      sub\n      swap1\n      log1\n        /* \"contracts/Testament.sol\":1676:2181  {... */\n      pop\n      pop\n        /* \"contracts/Testament.sol\":1563:2181  function registerAsset(string calldata _assetId, address _heir, uint256 _percent) public onlyOwner whenNotPaused {... */\n      pop\n      pop\n      pop\n      pop\n      jump\t// out\n        /* \"contracts/Testament.sol\":2459:2951  function setVideoUrl(string calldata _videoUrl, string calldata _videoPassword) public onlyOwner whenNotPaused {... */\n    tag_78:\n        /* \"https://github.com/OpenZeppelin/openzeppelin-contracts/blob/master/contracts/access/Ownable.sol\":1094:1107  _checkOwner() */\n      tag_172\n        /* \"https://github.com/OpenZeppelin/openzeppelin-contracts/blob/master/contracts/access/Ownable.sol\":1094:1105  _checkOwner */\n      tag_95\n        /* \"https://github.com/OpenZeppelin/openzeppelin-contracts/blob/master/contracts/access/Ownable.sol\":1094:1107  _checkOwner() */\n      jump\t// in\n    tag_172:\n        /* \"https://github.com/OpenZeppelin/openzeppelin-contracts/blob/master/contracts/security/Pausable.sol\":1239:1258  _requireNotPaused() */\n      tag_174\n        /* \"https://github.com/OpenZeppelin/openzeppelin-contracts/blob/master/contracts/security/Pausable.sol\":1239:1256  _requireNotPaused */\n      tag_107\n        /* \"https://github.com/OpenZeppelin/openzeppelin-contracts/blob/master/contracts/security/Pausable.sol\":1239:1258  _requireNotPaused() */\n      jump\t// in\n    tag_174:\n        /* \"contracts/Testament.sol\":2580:2597  checkIsNotDeath() */\n      tag_176\n        /* \"contracts/Testament.sol\":2580:2595  checkIsNotDeath */\n      tag_138\n        /* \"contracts/Testament.sol\":2580:2597  checkIsNotDeath() */\n      jump\t// in\n    tag_176:\n        /* \"contracts/Testament.sol\":2607:2627  checkIsNotExecuted() */\n      tag_177\n        /* \"contracts/Testament.sol\":2607:2625  checkIsNotExecuted */\n      tag_113\n        /* \"contracts/Testament.sol\":2607:2627  checkIsNotExecuted() */\n      jump\t// in\n    tag_177:\n        /* \"contracts/Testament.sol\":2663:2678  hash(_videoUrl) */\n      tag_178\n        /* \"contracts/Testament.sol\":2668:2677  _videoUrl */\n      dup5\n      dup5\n        /* \"contracts/Testament.sol\":2663:2678  hash(_videoUrl) */\n      dup1\n      dup1\n      0x1f\n      add\n      0x20\n      dup1\n      swap2\n      div\n      mul\n      0x20\n      add\n      mload(0x40)\n      swap1\n      dup2\n      add\n      0x40\n      mstore\n      dup1\n      swap4\n      swap3\n      swap2\n      swap1\n      dup2\n      dup2\n      mstore\n      0x20\n      add\n      dup4\n      dup4\n      dup1\n      dup3\n      dup5\n      calldatacopy\n      0x00\n      swap3\n      add\n      swap2\n      swap1\n      swap2\n      mstore\n      pop\n        /* \"contracts/Testament.sol\":2663:2667  hash */\n      tag_179\n      swap3\n      pop\n      pop\n      pop\n        /* \"contracts/Testament.sol\":2663:2678  hash(_videoUrl) */\n      jump\t// in\n    tag_178:\n        /* \"contracts/Testament.sol\":2645:2659  hash(videoUrl) */\n      tag_180\n        /* \"contracts/Testament.sol\":2650:2658  videoUrl */\n      0x03\n        /* \"contracts/Testament.sol\":2645:2659  hash(videoUrl) */\n      dup1\n      sload\n      tag_181\n      swap1\n      tag_100\n      jump\t// in\n    tag_181:\n      dup1\n      0x1f\n      add\n      0x20\n      dup1\n      swap2\n      div\n      mul\n      0x20\n      add\n      mload(0x40)\n      swap1\n      dup2\n      add\n      0x40\n      mstore\n      dup1\n      swap3\n      swap2\n      swap1\n      dup2\n      dup2\n      mstore\n      0x20\n      add\n      dup3\n      dup1\n      sload\n      tag_182\n      swap1\n      tag_100\n      jump\t// in\n    tag_182:\n      dup1\n      iszero\n      tag_183\n      jumpi\n      dup1\n      0x1f\n      lt\n      tag_184\n      jumpi\n      0x0100\n      dup1\n      dup4\n      sload\n      div\n      mul\n      dup4\n      mstore\n      swap2\n      0x20\n      add\n      swap2\n      jump(tag_183)\n    tag_184:\n      dup3\n      add\n      swap2\n      swap1\n      0x00\n      mstore\n      keccak256(0x00, 0x20)\n      swap1\n    tag_185:\n      dup2\n      sload\n      dup2\n      mstore\n      swap1\n      0x01\n      add\n      swap1\n      0x20\n      add\n      dup1\n      dup4\n      gt\n      tag_185\n      jumpi\n      dup3\n      swap1\n      sub\n      0x1f\n      and\n      dup3\n      add\n      swap2\n    tag_183:\n      pop\n      pop\n      pop\n      pop\n      pop\n        /* \"contracts/Testament.sol\":2645:2649  hash */\n      tag_179\n        /* \"contracts/Testament.sol\":2645:2659  hash(videoUrl) */\n      jump\t// in\n    tag_180:\n        /* \"contracts/Testament.sol\":2645:2678  hash(videoUrl) != hash(_videoUrl) */\n      eq\n      iszero\n        /* \"contracts/Testament.sol\":2645:2725  hash(videoUrl) != hash(_videoUrl) && hash(videoPassword) != hash(_videoPassword) */\n      dup1\n      iszero\n      tag_186\n      jumpi\n      pop\n        /* \"contracts/Testament.sol\":2705:2725  hash(_videoPassword) */\n      tag_187\n        /* \"contracts/Testament.sol\":2710:2724  _videoPassword */\n      dup3\n      dup3\n        /* \"contracts/Testament.sol\":2705:2725  hash(_videoPassword) */\n      dup1\n      dup1\n      0x1f\n      add\n      0x20\n      dup1\n      swap2\n      div\n      mul\n      0x20\n      add\n      mload(0x40)\n      swap1\n      dup2\n      add\n      0x40\n      mstore\n      dup1\n      swap4\n      swap3\n      swap2\n      swap1\n      dup2\n      dup2\n      mstore\n      0x20\n      add\n      dup4\n      dup4\n      dup1\n      dup3\n      dup5\n      calldatacopy\n      0x00\n      swap3\n      add\n      swap2\n      swap1\n      swap2\n      mstore\n      pop\n        /* \"contracts/Testament.sol\":2705:2709  hash */\n      tag_179\n      swap3\n      pop\n      pop\n      pop\n        /* \"contracts/Testament.sol\":2705:2725  hash(_videoPassword) */\n      jump\t// in\n    tag_187:\n        /* \"contracts/Testament.sol\":2682:2701  hash(videoPassword) */\n      tag_188\n        /* \"contracts/Testament.sol\":2687:2700  videoPassword */\n      0x04\n        /* \"contracts/Testament.sol\":2682:2701  hash(videoPassword) */\n      dup1\n      sload\n      tag_181\n      swap1\n      tag_100\n      jump\t// in\n    tag_188:\n        /* \"contracts/Testament.sol\":2682:2725  hash(videoPassword) != hash(_videoPassword) */\n      eq\n      iszero\n        /* \"contracts/Testament.sol\":2645:2725  hash(videoUrl) != hash(_videoUrl) && hash(videoPassword) != hash(_videoPassword) */\n    tag_186:\n        /* \"contracts/Testament.sol\":2637:2775  require(hash(videoUrl) != hash(_videoUrl) && hash(videoPassword) != hash(_videoPassword), 'Url already stored, try a different video url') */\n      tag_194\n      jumpi\n      mload(0x40)\n      shl(0xe5, 0x461bcd)\n      dup2\n      mstore\n        /* \"#utility.yul\":12018:12020   */\n      0x20\n        /* \"contracts/Testament.sol\":2637:2775  require(hash(videoUrl) != hash(_videoUrl) && hash(videoPassword) != hash(_videoPassword), 'Url already stored, try a different video url') */\n      0x04\n      dup3\n      add\n        /* \"#utility.yul\":12000:12021   */\n      mstore\n        /* \"#utility.yul\":12057:12059   */\n      0x2d\n        /* \"#utility.yul\":12037:12055   */\n      0x24\n      dup3\n      add\n        /* \"#utility.yul\":12030:12060   */\n      mstore\n        /* \"#utility.yul\":12096:12130   */\n      0x55726c20616c72656164792073746f7265642c20747279206120646966666572\n        /* \"#utility.yul\":12076:12094   */\n      0x44\n      dup3\n      add\n        /* \"#utility.yul\":12069:12131   */\n      mstore\n      shl(0x9a, 0x195b9d081d9a59195bc81d5c9b)\n        /* \"#utility.yul\":12147:12165   */\n      0x64\n      dup3\n      add\n        /* \"#utility.yul\":12140:12183   */\n      mstore\n        /* \"#utility.yul\":12200:12219   */\n      0x84\n      add\n        /* \"contracts/Testament.sol\":2637:2775  require(hash(videoUrl) != hash(_videoUrl) && hash(videoPassword) != hash(_videoPassword), 'Url already stored, try a different video url') */\n      tag_110\n        /* \"#utility.yul\":11816:12225   */\n      jump\n        /* \"contracts/Testament.sol\":2637:2775  require(hash(videoUrl) != hash(_videoUrl) && hash(videoPassword) != hash(_videoPassword), 'Url already stored, try a different video url') */\n    tag_194:\n        /* \"contracts/Testament.sol\":2786:2811  string memory oldVideoUrl */\n      0x00\n        /* \"contracts/Testament.sol\":2814:2822  videoUrl */\n      0x03\n        /* \"contracts/Testament.sol\":2786:2822  string memory oldVideoUrl = videoUrl */\n      dup1\n      sload\n      tag_197\n      swap1\n      tag_100\n      jump\t// in\n    tag_197:\n      dup1\n      0x1f\n      add\n      0x20\n      dup1\n      swap2\n      div\n      mul\n      0x20\n      add\n      mload(0x40)\n      swap1\n      dup2\n      add\n      0x40\n      mstore\n      dup1\n      swap3\n      swap2\n      swap1\n      dup2\n      dup2\n      mstore\n      0x20\n      add\n      dup3\n      dup1\n      sload\n      tag_198\n      swap1\n      tag_100\n      jump\t// in\n    tag_198:\n      dup1\n      iszero\n      tag_199\n      jumpi\n      dup1\n      0x1f\n      lt\n      tag_200\n      jumpi\n      0x0100\n      dup1\n      dup4\n      sload\n      div\n      mul\n      dup4\n      mstore\n      swap2\n      0x20\n      add\n      swap2\n      jump(tag_199)\n    tag_200:\n      dup3\n      add\n      swap2\n      swap1\n      0x00\n      mstore\n      keccak256(0x00, 0x20)\n      swap1\n    tag_201:\n      dup2\n      sload\n      dup2\n      mstore\n      swap1\n      0x01\n      add\n      swap1\n      0x20\n      add\n      dup1\n      dup4\n      gt\n      tag_201\n      jumpi\n      dup3\n      swap1\n      sub\n      0x1f\n      and\n      dup3\n      add\n      swap2\n    tag_199:\n      pop\n      pop\n      pop\n      pop\n      pop\n      swap1\n      pop\n        /* \"contracts/Testament.sol\":2844:2853  _videoUrl */\n      dup5\n      dup5\n        /* \"contracts/Testament.sol\":2833:2841  videoUrl */\n      0x03\n        /* \"contracts/Testament.sol\":2833:2853  videoUrl = _videoUrl */\n      swap2\n      dup3\n      tag_202\n      swap3\n      swap2\n      swap1\n      tag_119\n      jump\t// in\n    tag_202:\n      pop\n        /* \"contracts/Testament.sol\":2863:2876  videoPassword */\n      0x04\n        /* \"contracts/Testament.sol\":2863:2893  videoPassword = _videoPassword */\n      tag_203\n        /* \"contracts/Testament.sol\":2879:2893  _videoPassword */\n      dup4\n      dup6\n        /* \"contracts/Testament.sol\":2863:2876  videoPassword */\n      dup4\n        /* \"contracts/Testament.sol\":2863:2893  videoPassword = _videoPassword */\n      tag_119\n      jump\t// in\n    tag_203:\n      pop\n        /* \"contracts/Testament.sol\":2909:2944  UpdatedVideo(videoUrl, oldVideoUrl) */\n      0xe24c9f393c732fb7fda88944a94871d89529cb0538834e4b163c8885c29799\n        /* \"contracts/Testament.sol\":2922:2930  videoUrl */\n      0x03\n        /* \"contracts/Testament.sol\":2932:2943  oldVideoUrl */\n      dup3\n        /* \"contracts/Testament.sol\":2909:2944  UpdatedVideo(videoUrl, oldVideoUrl) */\n      mload(0x40)\n      tag_204\n      swap3\n      swap2\n      swap1\n      tag_205\n      jump\t// in\n    tag_204:\n      mload(0x40)\n      dup1\n      swap2\n      sub\n      swap1\n      log1\n        /* \"contracts/Testament.sol\":2570:2951  {... */\n      pop\n        /* \"contracts/Testament.sol\":2459:2951  function setVideoUrl(string calldata _videoUrl, string calldata _videoPassword) public onlyOwner whenNotPaused {... */\n      pop\n      pop\n      pop\n      pop\n      jump\t// out\n        /* \"contracts/Testament.sol\":2187:2453  function setIsDonor(bool _isDonor) public onlyOwner whenNotPaused {... */\n    tag_82:\n        /* \"https://github.com/OpenZeppelin/openzeppelin-contracts/blob/master/contracts/access/Ownable.sol\":1094:1107  _checkOwner() */\n      tag_207\n        /* \"https://github.com/OpenZeppelin/openzeppelin-contracts/blob/master/contracts/access/Ownable.sol\":1094:1105  _checkOwner */\n      tag_95\n        /* \"https://github.com/OpenZeppelin/openzeppelin-contracts/blob/master/contracts/access/Ownable.sol\":1094:1107  _checkOwner() */\n      jump\t// in\n    tag_207:\n        /* \"https://github.com/OpenZeppelin/openzeppelin-contracts/blob/master/contracts/security/Pausable.sol\":1239:1258  _requireNotPaused() */\n      tag_209\n        /* \"https://github.com/OpenZeppelin/openzeppelin-contracts/blob/master/contracts/security/Pausable.sol\":1239:1256  _requireNotPaused */\n      tag_107\n        /* \"https://github.com/OpenZeppelin/openzeppelin-contracts/blob/master/contracts/security/Pausable.sol\":1239:1258  _requireNotPaused() */\n      jump\t// in\n    tag_209:\n        /* \"contracts/Testament.sol\":2263:2280  checkIsNotDeath() */\n      tag_211\n        /* \"contracts/Testament.sol\":2263:2278  checkIsNotDeath */\n      tag_138\n        /* \"contracts/Testament.sol\":2263:2280  checkIsNotDeath() */\n      jump\t// in\n    tag_211:\n        /* \"contracts/Testament.sol\":2290:2310  checkIsNotExecuted() */\n      tag_212\n        /* \"contracts/Testament.sol\":2290:2308  checkIsNotExecuted */\n      tag_113\n        /* \"contracts/Testament.sol\":2290:2310  checkIsNotExecuted() */\n      jump\t// in\n    tag_212:\n        /* \"contracts/Testament.sol\":2340:2347  isDonor */\n      and(0xff, sload(0x02))\n        /* \"contracts/Testament.sol\":2328:2347  _isDonor != isDonor */\n      iszero\n      iszero\n      dup2\n      iszero\n      iszero\n      sub\n        /* \"contracts/Testament.sol\":2320:2378  require(_isDonor != isDonor, 'Donor value is already set') */\n      tag_213\n      jumpi\n      mload(0x40)\n      shl(0xe5, 0x461bcd)\n      dup2\n      mstore\n        /* \"#utility.yul\":12825:12827   */\n      0x20\n        /* \"contracts/Testament.sol\":2320:2378  require(_isDonor != isDonor, 'Donor value is already set') */\n      0x04\n      dup3\n      add\n        /* \"#utility.yul\":12807:12828   */\n      mstore\n        /* \"#utility.yul\":12864:12866   */\n      0x1a\n        /* \"#utility.yul\":12844:12862   */\n      0x24\n      dup3\n      add\n        /* \"#utility.yul\":12837:12867   */\n      mstore\n        /* \"#utility.yul\":12903:12931   */\n      0x446f6e6f722076616c756520697320616c726561647920736574000000000000\n        /* \"#utility.yul\":12883:12901   */\n      0x44\n      dup3\n      add\n        /* \"#utility.yul\":12876:12932   */\n      mstore\n        /* \"#utility.yul\":12949:12967   */\n      0x64\n      add\n        /* \"contracts/Testament.sol\":2320:2378  require(_isDonor != isDonor, 'Donor value is already set') */\n      tag_110\n        /* \"#utility.yul\":12623:12973   */\n      jump\n        /* \"contracts/Testament.sol\":2320:2378  require(_isDonor != isDonor, 'Donor value is already set') */\n    tag_213:\n        /* \"contracts/Testament.sol\":2389:2396  isDonor */\n      0x02\n        /* \"contracts/Testament.sol\":2389:2407  isDonor = _isDonor */\n      dup1\n      sload\n      not(0xff)\n      and\n      dup3\n      iszero\n      iszero\n      swap1\n      dup2\n      or\n      swap1\n      swap2\n      sstore\n        /* \"contracts/Testament.sol\":2423:2446  UpdatedIsDonor(isDonor) */\n      mload(0x40)\n        /* \"contracts/Testament.sol\":2389:2407  isDonor = _isDonor */\n      0xff\n        /* \"contracts/Testament.sol\":2438:2445  isDonor */\n      swap1\n      swap2\n      and\n        /* \"#utility.yul\":1382:1396   */\n      iszero\n        /* \"#utility.yul\":1375:1397   */\n      iszero\n        /* \"#utility.yul\":1357:1398   */\n      dup2\n      mstore\n        /* \"contracts/Testament.sol\":2423:2446  UpdatedIsDonor(isDonor) */\n      0x50b950e5e5b4bb35ce4a7e71d17247016f9261ebc7da618f9a8f7751c3f4da6a\n      swap1\n        /* \"#utility.yul\":1345:1347   */\n      0x20\n        /* \"#utility.yul\":1330:1348   */\n      add\n        /* \"contracts/Testament.sol\":2423:2446  UpdatedIsDonor(isDonor) */\n      mload(0x40)\n      dup1\n      swap2\n      sub\n      swap1\n      log1\n        /* \"contracts/Testament.sol\":2187:2453  function setIsDonor(bool _isDonor) public onlyOwner whenNotPaused {... */\n      pop\n      jump\t// out\n        /* \"contracts/Testament.sol\":711:738  string public videoPassword */\n    tag_84:\n      0x04\n      dup1\n      sload\n      tag_99\n      swap1\n      tag_100\n      jump\t// in\n        /* \"https://github.com/OpenZeppelin/openzeppelin-contracts/blob/master/contracts/access/Ownable.sol\":2081:2279  function transferOwnership(address newOwner) public virtual onlyOwner {... */\n    tag_88:\n        /* \"https://github.com/OpenZeppelin/openzeppelin-contracts/blob/master/contracts/access/Ownable.sol\":1094:1107  _checkOwner() */\n      tag_223\n        /* \"https://github.com/OpenZeppelin/openzeppelin-contracts/blob/master/contracts/access/Ownable.sol\":1094:1105  _checkOwner */\n      tag_95\n        /* \"https://github.com/OpenZeppelin/openzeppelin-contracts/blob/master/contracts/access/Ownable.sol\":1094:1107  _checkOwner() */\n      jump\t// in\n    tag_223:\n      sub(shl(0xa0, 0x01), 0x01)\n        /* \"https://github.com/OpenZeppelin/openzeppelin-contracts/blob/master/contracts/access/Ownable.sol\":2169:2191  newOwner != address(0) */\n      dup2\n      and\n        /* \"https://github.com/OpenZeppelin/openzeppelin-contracts/blob/master/contracts/access/Ownable.sol\":2161:2234  require(newOwner != address(0), \"Ownable: new owner is the zero address\") */\n      tag_225\n      jumpi\n      mload(0x40)\n      shl(0xe5, 0x461bcd)\n      dup2\n      mstore\n        /* \"#utility.yul\":13180:13182   */\n      0x20\n        /* \"https://github.com/OpenZeppelin/openzeppelin-contracts/blob/master/contracts/access/Ownable.sol\":2161:2234  require(newOwner != address(0), \"Ownable: new owner is the zero address\") */\n      0x04\n      dup3\n      add\n        /* \"#utility.yul\":13162:13183   */\n      mstore\n        /* \"#utility.yul\":13219:13221   */\n      0x26\n        /* \"#utility.yul\":13199:13217   */\n      0x24\n      dup3\n      add\n        /* \"#utility.yul\":13192:13222   */\n      mstore\n        /* \"#utility.yul\":13258:13292   */\n      0x4f776e61626c653a206e6577206f776e657220697320746865207a65726f2061\n        /* \"#utility.yul\":13238:13256   */\n      0x44\n      dup3\n      add\n        /* \"#utility.yul\":13231:13293   */\n      mstore\n      shl(0xd0, 0x646472657373)\n        /* \"#utility.yul\":13309:13327   */\n      0x64\n      dup3\n      add\n        /* \"#utility.yul\":13302:13338   */\n      mstore\n        /* \"#utility.yul\":13355:13374   */\n      0x84\n      add\n        /* \"https://github.com/OpenZeppelin/openzeppelin-contracts/blob/master/contracts/access/Ownable.sol\":2161:2234  require(newOwner != address(0), \"Ownable: new owner is the zero address\") */\n      tag_110\n        /* \"#utility.yul\":12978:13380   */\n      jump\n        /* \"https://github.com/OpenZeppelin/openzeppelin-contracts/blob/master/contracts/access/Ownable.sol\":2161:2234  require(newOwner != address(0), \"Ownable: new owner is the zero address\") */\n    tag_225:\n        /* \"https://github.com/OpenZeppelin/openzeppelin-contracts/blob/master/contracts/access/Ownable.sol\":2244:2272  _transferOwnership(newOwner) */\n      tag_228\n        /* \"https://github.com/OpenZeppelin/openzeppelin-contracts/blob/master/contracts/access/Ownable.sol\":2263:2271  newOwner */\n      dup2\n        /* \"https://github.com/OpenZeppelin/openzeppelin-contracts/blob/master/contracts/access/Ownable.sol\":2244:2262  _transferOwnership */\n      tag_98\n        /* \"https://github.com/OpenZeppelin/openzeppelin-contracts/blob/master/contracts/access/Ownable.sol\":2244:2272  _transferOwnership(newOwner) */\n      jump\t// in\n    tag_228:\n        /* \"https://github.com/OpenZeppelin/openzeppelin-contracts/blob/master/contracts/access/Ownable.sol\":2081:2279  function transferOwnership(address newOwner) public virtual onlyOwner {... */\n      pop\n      jump\t// out\n        /* \"contracts/Testament.sol\":4479:4636  function secureHash(string memory text) private pure returns (bytes32) {... */\n    tag_91:\n        /* \"contracts/Testament.sol\":4541:4548  bytes32 */\n      0x00\n        /* \"contracts/Testament.sol\":4621:4625  text */\n      dup2\n        /* \"contracts/Testament.sol\":4604:4626  abi.encodePacked(text) */\n      add(0x20, mload(0x40))\n      tag_230\n      swap2\n      swap1\n      tag_231\n      jump\t// in\n    tag_230:\n      0x40\n      dup1\n      mload\n      not(0x1f)\n      dup2\n      dup5\n      sub\n      add\n      dup2\n      mstore\n      dup3\n      dup3\n      mstore\n        /* \"contracts/Testament.sol\":4594:4627  keccak256(abi.encodePacked(text)) */\n      dup1\n      mload\n        /* \"contracts/Testament.sol\":4604:4626  abi.encodePacked(text) */\n      0x20\n        /* \"contracts/Testament.sol\":4594:4627  keccak256(abi.encodePacked(text)) */\n      swap2\n      dup3\n      add\n      keccak256\n        /* \"contracts/Testament.sol\":4577:4628  abi.encodePacked(keccak256(abi.encodePacked(text))) */\n      swap1\n      dup4\n      add\n        /* \"#utility.yul\":13808:13827   */\n      mstore\n        /* \"#utility.yul\":13843:13855   */\n      add\n        /* \"contracts/Testament.sol\":4577:4628  abi.encodePacked(keccak256(abi.encodePacked(text))) */\n    tag_232:\n      mload(0x40)\n      0x20\n      dup2\n      dup4\n      sub\n      sub\n      dup2\n      mstore\n      swap1\n      0x40\n      mstore\n        /* \"contracts/Testament.sol\":4567:4629  keccak256(abi.encodePacked(keccak256(abi.encodePacked(text)))) */\n      dup1\n      mload\n      swap1\n      0x20\n      add\n      keccak256\n        /* \"contracts/Testament.sol\":4560:4629  return keccak256(abi.encodePacked(keccak256(abi.encodePacked(text)))) */\n      swap1\n      pop\n        /* \"contracts/Testament.sol\":4479:4636  function secureHash(string memory text) private pure returns (bytes32) {... */\n      swap2\n      swap1\n      pop\n      jump\t// out\n        /* \"https://github.com/OpenZeppelin/openzeppelin-contracts/blob/master/contracts/access/Ownable.sol\":1359:1489  function _checkOwner() internal view virtual {... */\n    tag_95:\n        /* \"https://github.com/OpenZeppelin/openzeppelin-contracts/blob/master/contracts/access/Ownable.sol\":1247:1254  address */\n      0x00\n        /* \"https://github.com/OpenZeppelin/openzeppelin-contracts/blob/master/contracts/access/Ownable.sol\":1273:1279  _owner */\n      sload\n      sub(shl(0xa0, 0x01), 0x01)\n      and\n        /* \"https://github.com/OpenZeppelin/openzeppelin-contracts/blob/master/contracts/utils/Context.sol\":719:729  msg.sender */\n      caller\n        /* \"https://github.com/OpenZeppelin/openzeppelin-contracts/blob/master/contracts/access/Ownable.sol\":1422:1445  owner() == _msgSender() */\n      eq\n        /* \"https://github.com/OpenZeppelin/openzeppelin-contracts/blob/master/contracts/access/Ownable.sol\":1414:1482  require(owner() == _msgSender(), \"Ownable: caller is not the owner\") */\n      tag_97\n      jumpi\n      mload(0x40)\n      shl(0xe5, 0x461bcd)\n      dup2\n      mstore\n        /* \"#utility.yul\":14068:14070   */\n      0x20\n        /* \"https://github.com/OpenZeppelin/openzeppelin-contracts/blob/master/contracts/access/Ownable.sol\":1414:1482  require(owner() == _msgSender(), \"Ownable: caller is not the owner\") */\n      0x04\n      dup3\n      add\n        /* \"#utility.yul\":14050:14071   */\n      dup2\n      swap1\n      mstore\n        /* \"#utility.yul\":14087:14105   */\n      0x24\n      dup3\n      add\n        /* \"#utility.yul\":14080:14110   */\n      mstore\n        /* \"#utility.yul\":14146:14180   */\n      0x4f776e61626c653a2063616c6c6572206973206e6f7420746865206f776e6572\n        /* \"#utility.yul\":14126:14144   */\n      0x44\n      dup3\n      add\n        /* \"#utility.yul\":14119:14181   */\n      mstore\n        /* \"#utility.yul\":14198:14216   */\n      0x64\n      add\n        /* \"https://github.com/OpenZeppelin/openzeppelin-contracts/blob/master/contracts/access/Ownable.sol\":1414:1482  require(owner() == _msgSender(), \"Ownable: caller is not the owner\") */\n      tag_110\n        /* \"#utility.yul\":13866:14222   */\n      jump\n        /* \"https://github.com/OpenZeppelin/openzeppelin-contracts/blob/master/contracts/access/Ownable.sol\":2433:2620  function _transferOwnership(address newOwner) internal virtual {... */\n    tag_98:\n        /* \"https://github.com/OpenZeppelin/openzeppelin-contracts/blob/master/contracts/access/Ownable.sol\":2506:2522  address oldOwner */\n      0x00\n        /* \"https://github.com/OpenZeppelin/openzeppelin-contracts/blob/master/contracts/access/Ownable.sol\":2525:2531  _owner */\n      dup1\n      sload\n      sub(shl(0xa0, 0x01), 0x01)\n        /* \"https://github.com/OpenZeppelin/openzeppelin-contracts/blob/master/contracts/access/Ownable.sol\":2541:2558  _owner = newOwner */\n      dup4\n      dup2\n      and\n      not(sub(shl(0xa0, 0x01), 0x01))\n      dup4\n      and\n      dup2\n      or\n      dup5\n      sstore\n        /* \"https://github.com/OpenZeppelin/openzeppelin-contracts/blob/master/contracts/access/Ownable.sol\":2573:2613  OwnershipTransferred(oldOwner, newOwner) */\n      mload(0x40)\n        /* \"https://github.com/OpenZeppelin/openzeppelin-contracts/blob/master/contracts/access/Ownable.sol\":2525:2531  _owner */\n      swap2\n      swap1\n      swap3\n      and\n      swap3\n      dup4\n      swap2\n        /* \"https://github.com/OpenZeppelin/openzeppelin-contracts/blob/master/contracts/access/Ownable.sol\":2573:2613  OwnershipTransferred(oldOwner, newOwner) */\n      0x8be0079c531659141344cd1fd0a4f28419497f9722a3daafe3b4186f6b6457e0\n      swap2\n        /* \"https://github.com/OpenZeppelin/openzeppelin-contracts/blob/master/contracts/access/Ownable.sol\":2506:2522  address oldOwner */\n      swap1\n        /* \"https://github.com/OpenZeppelin/openzeppelin-contracts/blob/master/contracts/access/Ownable.sol\":2573:2613  OwnershipTransferred(oldOwner, newOwner) */\n      log3\n        /* \"https://github.com/OpenZeppelin/openzeppelin-contracts/blob/master/contracts/access/Ownable.sol\":2496:2620  {... */\n      pop\n        /* \"https://github.com/OpenZeppelin/openzeppelin-contracts/blob/master/contracts/access/Ownable.sol\":2433:2620  function _transferOwnership(address newOwner) internal virtual {... */\n      pop\n      jump\t// out\n        /* \"https://github.com/OpenZeppelin/openzeppelin-contracts/blob/master/contracts/security/Pausable.sol\":1767:1873  function _requireNotPaused() internal view virtual {... */\n    tag_107:\n        /* \"https://github.com/OpenZeppelin/openzeppelin-contracts/blob/master/contracts/security/Pausable.sol\":1662:1666  bool */\n      0x00\n        /* \"https://github.com/OpenZeppelin/openzeppelin-contracts/blob/master/contracts/security/Pausable.sol\":1685:1692  _paused */\n      sload\n      shl(0xa0, 0x01)\n      swap1\n      div\n      0xff\n      and\n        /* \"https://github.com/OpenZeppelin/openzeppelin-contracts/blob/master/contracts/security/Pausable.sol\":1836:1845  !paused() */\n      iszero\n        /* \"https://github.com/OpenZeppelin/openzeppelin-contracts/blob/master/contracts/security/Pausable.sol\":1828:1866  require(!paused(), \"Pausable: paused\") */\n      tag_97\n      jumpi\n      mload(0x40)\n      shl(0xe5, 0x461bcd)\n      dup2\n      mstore\n        /* \"#utility.yul\":14429:14431   */\n      0x20\n        /* \"https://github.com/OpenZeppelin/openzeppelin-contracts/blob/master/contracts/security/Pausable.sol\":1828:1866  require(!paused(), \"Pausable: paused\") */\n      0x04\n      dup3\n      add\n        /* \"#utility.yul\":14411:14432   */\n      mstore\n        /* \"#utility.yul\":14468:14470   */\n      0x10\n        /* \"#utility.yul\":14448:14466   */\n      0x24\n      dup3\n      add\n        /* \"#utility.yul\":14441:14471   */\n      mstore\n      shl(0x82, 0x14185d5cd8589b194e881c185d5cd959)\n        /* \"#utility.yul\":14487:14505   */\n      0x44\n      dup3\n      add\n        /* \"#utility.yul\":14480:14526   */\n      mstore\n        /* \"#utility.yul\":14543:14561   */\n      0x64\n      add\n        /* \"https://github.com/OpenZeppelin/openzeppelin-contracts/blob/master/contracts/security/Pausable.sol\":1828:1866  require(!paused(), \"Pausable: paused\") */\n      tag_110\n        /* \"#utility.yul\":14227:14567   */\n      jump\n        /* \"contracts/Testament.sol\":4925:5035  function checkIsNotExecuted() private view {... */\n    tag_113:\n        /* \"contracts/Testament.sol\":4987:4997  isExecuted */\n      sload(0x06)\n      shl(0xa0, 0x01)\n      swap1\n      div\n      0xff\n      and\n        /* \"contracts/Testament.sol\":4986:4997  !isExecuted */\n      iszero\n        /* \"contracts/Testament.sol\":4978:5028  require(!isExecuted, 'Testament already executed') */\n      tag_97\n      jumpi\n      mload(0x40)\n      shl(0xe5, 0x461bcd)\n      dup2\n      mstore\n        /* \"#utility.yul\":14774:14776   */\n      0x20\n        /* \"contracts/Testament.sol\":4978:5028  require(!isExecuted, 'Testament already executed') */\n      0x04\n      dup3\n      add\n        /* \"#utility.yul\":14756:14777   */\n      mstore\n        /* \"#utility.yul\":14813:14815   */\n      0x1a\n        /* \"#utility.yul\":14793:14811   */\n      0x24\n      dup3\n      add\n        /* \"#utility.yul\":14786:14816   */\n      mstore\n        /* \"#utility.yul\":14852:14880   */\n      0x54657374616d656e7420616c7265616479206578656375746564000000000000\n        /* \"#utility.yul\":14832:14850   */\n      0x44\n      dup3\n      add\n        /* \"#utility.yul\":14825:14881   */\n      mstore\n        /* \"#utility.yul\":14898:14916   */\n      0x64\n      add\n        /* \"contracts/Testament.sol\":4978:5028  require(!isExecuted, 'Testament already executed') */\n      tag_110\n        /* \"#utility.yul\":14572:14922   */\n      jump\n        /* \"contracts/Testament.sol\":4787:4919  function checkIsDeath(string memory errorMessage) private view {... */\n    tag_115:\n        /* \"contracts/Testament.sol\":4860:4912  requireValidString(deathCertificateId, errorMessage) */\n      tag_228\n        /* \"contracts/Testament.sol\":4879:4897  deathCertificateId */\n      0x05\n        /* \"contracts/Testament.sol\":4860:4912  requireValidString(deathCertificateId, errorMessage) */\n      dup1\n      sload\n      tag_253\n      swap1\n      tag_100\n      jump\t// in\n    tag_253:\n      dup1\n      0x1f\n      add\n      0x20\n      dup1\n      swap2\n      div\n      mul\n      0x20\n      add\n      mload(0x40)\n      swap1\n      dup2\n      add\n      0x40\n      mstore\n      dup1\n      swap3\n      swap2\n      swap1\n      dup2\n      dup2\n      mstore\n      0x20\n      add\n      dup3\n      dup1\n      sload\n      tag_254\n      swap1\n      tag_100\n      jump\t// in\n    tag_254:\n      dup1\n      iszero\n      tag_255\n      jumpi\n      dup1\n      0x1f\n      lt\n      tag_256\n      jumpi\n      0x0100\n      dup1\n      dup4\n      sload\n      div\n      mul\n      dup4\n      mstore\n      swap2\n      0x20\n      add\n      swap2\n      jump(tag_255)\n    tag_256:\n      dup3\n      add\n      swap2\n      swap1\n      0x00\n      mstore\n      keccak256(0x00, 0x20)\n      swap1\n    tag_257:\n      dup2\n      sload\n      dup2\n      mstore\n      swap1\n      0x01\n      add\n      swap1\n      0x20\n      add\n      dup1\n      dup4\n      gt\n      tag_257\n      jumpi\n      dup3\n      swap1\n      sub\n      0x1f\n      and\n      dup3\n      add\n      swap2\n    tag_255:\n      pop\n      pop\n      pop\n      pop\n      pop\n        /* \"contracts/Testament.sol\":4899:4911  errorMessage */\n      dup3\n        /* \"contracts/Testament.sol\":4196:4345  function requireValidString(string memory str, string memory errorMessage) private pure {... */\n    tag_117:\n        /* \"contracts/Testament.sol\":4322:4323  0 */\n      0x00\n        /* \"contracts/Testament.sol\":4308:4311  str */\n      dup3\n        /* \"contracts/Testament.sol\":4302:4319  bytes(str).length */\n      mload\n        /* \"contracts/Testament.sol\":4302:4323  bytes(str).length > 0 */\n      gt\n        /* \"contracts/Testament.sol\":4325:4337  errorMessage */\n      dup2\n        /* \"contracts/Testament.sol\":4294:4338  require(bytes(str).length > 0, errorMessage) */\n      swap1\n      tag_259\n      jumpi\n      mload(0x40)\n      shl(0xe5, 0x461bcd)\n      dup2\n      mstore\n      0x04\n      add\n      tag_110\n      swap2\n      swap1\n      tag_45\n      jump\t// in\n    tag_259:\n      pop\n        /* \"contracts/Testament.sol\":4196:4345  function requireValidString(string memory str, string memory errorMessage) private pure {... */\n      pop\n      pop\n      jump\t// out\n        /* \"contracts/Testament.sol\":4642:4781  function checkIsNotDeath() private view {... */\n    tag_138:\n        /* \"contracts/Testament.sol\":4706:4724  deathCertificateId */\n      0x05\n        /* \"contracts/Testament.sol\":4700:4732  bytes(deathCertificateId).length */\n      dup1\n      sload\n      tag_262\n      swap1\n      tag_100\n      jump\t// in\n    tag_262:\n        /* \"contracts/Testament.sol\":4700:4737  bytes(deathCertificateId).length == 0 */\n      iszero\n      swap1\n      pop\n        /* \"contracts/Testament.sol\":4692:4774  require(bytes(deathCertificateId).length == 0, 'Testament owner is already death') */\n      tag_97\n      jumpi\n      mload(0x40)\n      shl(0xe5, 0x461bcd)\n      dup2\n      mstore\n        /* \"#utility.yul\":15129:15131   */\n      0x20\n        /* \"contracts/Testament.sol\":4692:4774  require(bytes(deathCertificateId).length == 0, 'Testament owner is already death') */\n      0x04\n      dup3\n      add\n        /* \"#utility.yul\":15111:15132   */\n      dup2\n      swap1\n      mstore\n        /* \"#utility.yul\":15148:15166   */\n      0x24\n      dup3\n      add\n        /* \"#utility.yul\":15141:15171   */\n      mstore\n        /* \"#utility.yul\":15207:15241   */\n      0x54657374616d656e74206f776e657220697320616c7265616479206465617468\n        /* \"#utility.yul\":15187:15205   */\n      0x44\n      dup3\n      add\n        /* \"#utility.yul\":15180:15242   */\n      mstore\n        /* \"#utility.yul\":15259:15277   */\n      0x64\n      add\n        /* \"contracts/Testament.sol\":4692:4774  require(bytes(deathCertificateId).length == 0, 'Testament owner is already death') */\n      tag_110\n        /* \"#utility.yul\":14927:15283   */\n      jump\n        /* \"contracts/Testament.sol\":4351:4473  function hash(string memory text) private pure returns (bytes32) {... */\n    tag_179:\n        /* \"contracts/Testament.sol\":4407:4414  bytes32 */\n      0x00\n        /* \"contracts/Testament.sol\":4460:4464  text */\n      dup2\n        /* \"contracts/Testament.sol\":4443:4465  abi.encodePacked(text) */\n      add(0x20, mload(0x40))\n      tag_232\n      swap2\n      swap1\n      tag_231\n      jump\t// in\n        /* \"#utility.yul\":14:362   */\n    tag_269:\n        /* \"#utility.yul\":66:74   */\n      0x00\n        /* \"#utility.yul\":76:82   */\n      dup1\n        /* \"#utility.yul\":130:133   */\n      dup4\n        /* \"#utility.yul\":123:127   */\n      0x1f\n        /* \"#utility.yul\":115:121   */\n      dup5\n        /* \"#utility.yul\":111:128   */\n      add\n        /* \"#utility.yul\":107:134   */\n      slt\n        /* \"#utility.yul\":97:152   */\n      tag_280\n      jumpi\n        /* \"#utility.yul\":148:149   */\n      0x00\n        /* \"#utility.yul\":145:146   */\n      dup1\n        /* \"#utility.yul\":138:150   */\n      revert\n        /* \"#utility.yul\":97:152   */\n    tag_280:\n      pop\n        /* \"#utility.yul\":171:191   */\n      dup2\n      calldataload\n        /* \"#utility.yul\":214:232   */\n      0xffffffffffffffff\n        /* \"#utility.yul\":203:233   */\n      dup2\n      gt\n        /* \"#utility.yul\":200:250   */\n      iszero\n      tag_281\n      jumpi\n        /* \"#utility.yul\":246:247   */\n      0x00\n        /* \"#utility.yul\":243:244   */\n      dup1\n        /* \"#utility.yul\":236:248   */\n      revert\n        /* \"#utility.yul\":200:250   */\n    tag_281:\n        /* \"#utility.yul\":283:287   */\n      0x20\n        /* \"#utility.yul\":275:281   */\n      dup4\n        /* \"#utility.yul\":271:288   */\n      add\n        /* \"#utility.yul\":259:288   */\n      swap2\n      pop\n        /* \"#utility.yul\":335:338   */\n      dup4\n        /* \"#utility.yul\":328:332   */\n      0x20\n        /* \"#utility.yul\":319:325   */\n      dup3\n        /* \"#utility.yul\":311:317   */\n      dup6\n        /* \"#utility.yul\":307:326   */\n      add\n        /* \"#utility.yul\":303:333   */\n      add\n        /* \"#utility.yul\":300:339   */\n      gt\n        /* \"#utility.yul\":297:356   */\n      iszero\n      tag_282\n      jumpi\n        /* \"#utility.yul\":352:353   */\n      0x00\n        /* \"#utility.yul\":349:350   */\n      dup1\n        /* \"#utility.yul\":342:354   */\n      revert\n        /* \"#utility.yul\":297:356   */\n    tag_282:\n        /* \"#utility.yul\":14:362   */\n      swap3\n      pop\n      swap3\n      swap1\n      pop\n      jump\t// out\n        /* \"#utility.yul\":367:540   */\n    tag_270:\n        /* \"#utility.yul\":435:455   */\n      dup1\n      calldataload\n      sub(shl(0xa0, 0x01), 0x01)\n        /* \"#utility.yul\":484:515   */\n      dup2\n      and\n        /* \"#utility.yul\":474:516   */\n      dup2\n      eq\n        /* \"#utility.yul\":464:534   */\n      tag_284\n      jumpi\n        /* \"#utility.yul\":530:531   */\n      0x00\n        /* \"#utility.yul\":527:528   */\n      dup1\n        /* \"#utility.yul\":520:532   */\n      revert\n        /* \"#utility.yul\":464:534   */\n    tag_284:\n        /* \"#utility.yul\":367:540   */\n      swap2\n      swap1\n      pop\n      jump\t// out\n        /* \"#utility.yul\":545:1030   */\n    tag_26:\n        /* \"#utility.yul\":625:631   */\n      0x00\n        /* \"#utility.yul\":633:639   */\n      dup1\n        /* \"#utility.yul\":641:647   */\n      0x00\n        /* \"#utility.yul\":694:696   */\n      0x40\n        /* \"#utility.yul\":682:691   */\n      dup5\n        /* \"#utility.yul\":673:680   */\n      dup7\n        /* \"#utility.yul\":669:692   */\n      sub\n        /* \"#utility.yul\":665:697   */\n      slt\n        /* \"#utility.yul\":662:714   */\n      iszero\n      tag_286\n      jumpi\n        /* \"#utility.yul\":710:711   */\n      0x00\n        /* \"#utility.yul\":707:708   */\n      dup1\n        /* \"#utility.yul\":700:712   */\n      revert\n        /* \"#utility.yul\":662:714   */\n    tag_286:\n        /* \"#utility.yul\":750:759   */\n      dup4\n        /* \"#utility.yul\":737:760   */\n      calldataload\n        /* \"#utility.yul\":783:801   */\n      0xffffffffffffffff\n        /* \"#utility.yul\":775:781   */\n      dup2\n        /* \"#utility.yul\":772:802   */\n      gt\n        /* \"#utility.yul\":769:819   */\n      iszero\n      tag_287\n      jumpi\n        /* \"#utility.yul\":815:816   */\n      0x00\n        /* \"#utility.yul\":812:813   */\n      dup1\n        /* \"#utility.yul\":805:817   */\n      revert\n        /* \"#utility.yul\":769:819   */\n    tag_287:\n        /* \"#utility.yul\":854:913   */\n      tag_288\n        /* \"#utility.yul\":905:912   */\n      dup7\n        /* \"#utility.yul\":896:902   */\n      dup3\n        /* \"#utility.yul\":885:894   */\n      dup8\n        /* \"#utility.yul\":881:903   */\n      add\n        /* \"#utility.yul\":854:913   */\n      tag_269\n      jump\t// in\n    tag_288:\n        /* \"#utility.yul\":932:940   */\n      swap1\n      swap5\n      pop\n        /* \"#utility.yul\":828:913   */\n      swap3\n      pop\n        /* \"#utility.yul\":986:1024   */\n      tag_289\n      swap1\n      pop\n        /* \"#utility.yul\":1020:1022   */\n      0x20\n        /* \"#utility.yul\":1005:1023   */\n      dup6\n      add\n        /* \"#utility.yul\":986:1024   */\n      tag_270\n      jump\t// in\n    tag_289:\n        /* \"#utility.yul\":976:1024   */\n      swap1\n      pop\n        /* \"#utility.yul\":545:1030   */\n      swap3\n      pop\n      swap3\n      pop\n      swap3\n      jump\t// out\n        /* \"#utility.yul\":1409:1659   */\n    tag_271:\n        /* \"#utility.yul\":1494:1495   */\n      0x00\n        /* \"#utility.yul\":1504:1617   */\n    tag_293:\n        /* \"#utility.yul\":1518:1524   */\n      dup4\n        /* \"#utility.yul\":1515:1516   */\n      dup2\n        /* \"#utility.yul\":1512:1525   */\n      lt\n        /* \"#utility.yul\":1504:1617   */\n      iszero\n      tag_295\n      jumpi\n        /* \"#utility.yul\":1594:1605   */\n      dup2\n      dup2\n      add\n        /* \"#utility.yul\":1588:1606   */\n      mload\n        /* \"#utility.yul\":1575:1586   */\n      dup4\n      dup3\n      add\n        /* \"#utility.yul\":1568:1607   */\n      mstore\n        /* \"#utility.yul\":1540:1542   */\n      0x20\n        /* \"#utility.yul\":1533:1543   */\n      add\n        /* \"#utility.yul\":1504:1617   */\n      jump(tag_293)\n    tag_295:\n      pop\n      pop\n        /* \"#utility.yul\":1651:1652   */\n      0x00\n        /* \"#utility.yul\":1633:1649   */\n      swap2\n      add\n        /* \"#utility.yul\":1626:1653   */\n      mstore\n        /* \"#utility.yul\":1409:1659   */\n      jump\t// out\n        /* \"#utility.yul\":1664:1935   */\n    tag_272:\n        /* \"#utility.yul\":1706:1709   */\n      0x00\n        /* \"#utility.yul\":1744:1749   */\n      dup2\n        /* \"#utility.yul\":1738:1750   */\n      mload\n        /* \"#utility.yul\":1771:1777   */\n      dup1\n        /* \"#utility.yul\":1766:1769   */\n      dup5\n        /* \"#utility.yul\":1759:1778   */\n      mstore\n        /* \"#utility.yul\":1787:1863   */\n      tag_297\n        /* \"#utility.yul\":1856:1862   */\n      dup2\n        /* \"#utility.yul\":1849:1853   */\n      0x20\n        /* \"#utility.yul\":1844:1847   */\n      dup7\n        /* \"#utility.yul\":1840:1854   */\n      add\n        /* \"#utility.yul\":1833:1837   */\n      0x20\n        /* \"#utility.yul\":1826:1831   */\n      dup7\n        /* \"#utility.yul\":1822:1838   */\n      add\n        /* \"#utility.yul\":1787:1863   */\n      tag_271\n      jump\t// in\n    tag_297:\n        /* \"#utility.yul\":1917:1919   */\n      0x1f\n        /* \"#utility.yul\":1896:1911   */\n      add\n      not(0x1f)\n        /* \"#utility.yul\":1892:1921   */\n      and\n        /* \"#utility.yul\":1883:1922   */\n      swap3\n      swap1\n      swap3\n      add\n        /* \"#utility.yul\":1924:1928   */\n      0x20\n        /* \"#utility.yul\":1879:1929   */\n      add\n      swap3\n        /* \"#utility.yul\":1664:1935   */\n      swap2\n      pop\n      pop\n      jump\t// out\n        /* \"#utility.yul\":1940:2160   */\n    tag_45:\n        /* \"#utility.yul\":2089:2091   */\n      0x20\n        /* \"#utility.yul\":2078:2087   */\n      dup2\n        /* \"#utility.yul\":2071:2092   */\n      mstore\n        /* \"#utility.yul\":2052:2056   */\n      0x00\n        /* \"#utility.yul\":2109:2154   */\n      tag_299\n        /* \"#utility.yul\":2150:2152   */\n      0x20\n        /* \"#utility.yul\":2139:2148   */\n      dup4\n        /* \"#utility.yul\":2135:2153   */\n      add\n        /* \"#utility.yul\":2127:2133   */\n      dup5\n        /* \"#utility.yul\":2109:2154   */\n      tag_272\n      jump\t// in\n    tag_299:\n        /* \"#utility.yul\":2101:2154   */\n      swap4\n        /* \"#utility.yul\":1940:2160   */\n      swap3\n      pop\n      pop\n      pop\n      jump\t// out\n        /* \"#utility.yul\":2165:2576   */\n    tag_48:\n        /* \"#utility.yul\":2236:2242   */\n      0x00\n        /* \"#utility.yul\":2244:2250   */\n      dup1\n        /* \"#utility.yul\":2297:2299   */\n      0x20\n        /* \"#utility.yul\":2285:2294   */\n      dup4\n        /* \"#utility.yul\":2276:2283   */\n      dup6\n        /* \"#utility.yul\":2272:2295   */\n      sub\n        /* \"#utility.yul\":2268:2300   */\n      slt\n        /* \"#utility.yul\":2265:2317   */\n      iszero\n      tag_301\n      jumpi\n        /* \"#utility.yul\":2313:2314   */\n      0x00\n        /* \"#utility.yul\":2310:2311   */\n      dup1\n        /* \"#utility.yul\":2303:2315   */\n      revert\n        /* \"#utility.yul\":2265:2317   */\n    tag_301:\n        /* \"#utility.yul\":2353:2362   */\n      dup3\n        /* \"#utility.yul\":2340:2363   */\n      calldataload\n        /* \"#utility.yul\":2386:2404   */\n      0xffffffffffffffff\n        /* \"#utility.yul\":2378:2384   */\n      dup2\n        /* \"#utility.yul\":2375:2405   */\n      gt\n        /* \"#utility.yul\":2372:2422   */\n      iszero\n      tag_302\n      jumpi\n        /* \"#utility.yul\":2418:2419   */\n      0x00\n        /* \"#utility.yul\":2415:2416   */\n      dup1\n        /* \"#utility.yul\":2408:2420   */\n      revert\n        /* \"#utility.yul\":2372:2422   */\n    tag_302:\n        /* \"#utility.yul\":2457:2516   */\n      tag_303\n        /* \"#utility.yul\":2508:2515   */\n      dup6\n        /* \"#utility.yul\":2499:2505   */\n      dup3\n        /* \"#utility.yul\":2488:2497   */\n      dup7\n        /* \"#utility.yul\":2484:2506   */\n      add\n        /* \"#utility.yul\":2457:2516   */\n      tag_269\n      jump\t// in\n    tag_303:\n        /* \"#utility.yul\":2535:2543   */\n      swap1\n      swap7\n        /* \"#utility.yul\":2431:2516   */\n      swap1\n      swap6\n      pop\n        /* \"#utility.yul\":2165:2576   */\n      swap4\n      pop\n      pop\n      pop\n      pop\n      jump\t// out\n        /* \"#utility.yul\":2789:2975   */\n    tag_61:\n        /* \"#utility.yul\":2848:2854   */\n      0x00\n        /* \"#utility.yul\":2901:2903   */\n      0x20\n        /* \"#utility.yul\":2889:2898   */\n      dup3\n        /* \"#utility.yul\":2880:2887   */\n      dup5\n        /* \"#utility.yul\":2876:2899   */\n      sub\n        /* \"#utility.yul\":2872:2904   */\n      slt\n        /* \"#utility.yul\":2869:2921   */\n      iszero\n      tag_306\n      jumpi\n        /* \"#utility.yul\":2917:2918   */\n      0x00\n        /* \"#utility.yul\":2914:2915   */\n      dup1\n        /* \"#utility.yul\":2907:2919   */\n      revert\n        /* \"#utility.yul\":2869:2921   */\n    tag_306:\n        /* \"#utility.yul\":2940:2969   */\n      tag_299\n        /* \"#utility.yul\":2959:2968   */\n      dup3\n        /* \"#utility.yul\":2940:2969   */\n      tag_270\n      jump\t// in\n        /* \"#utility.yul\":2980:3234   */\n    tag_68:\n        /* \"#utility.yul\":3048:3054   */\n      0x00\n        /* \"#utility.yul\":3056:3062   */\n      dup1\n        /* \"#utility.yul\":3109:3111   */\n      0x40\n        /* \"#utility.yul\":3097:3106   */\n      dup4\n        /* \"#utility.yul\":3088:3095   */\n      dup6\n        /* \"#utility.yul\":3084:3107   */\n      sub\n        /* \"#utility.yul\":3080:3112   */\n      slt\n        /* \"#utility.yul\":3077:3129   */\n      iszero\n      tag_309\n      jumpi\n        /* \"#utility.yul\":3125:3126   */\n      0x00\n        /* \"#utility.yul\":3122:3123   */\n      dup1\n        /* \"#utility.yul\":3115:3127   */\n      revert\n        /* \"#utility.yul\":3077:3129   */\n    tag_309:\n        /* \"#utility.yul\":3161:3170   */\n      dup3\n        /* \"#utility.yul\":3148:3171   */\n      calldataload\n        /* \"#utility.yul\":3138:3171   */\n      swap2\n      pop\n        /* \"#utility.yul\":3190:3228   */\n      tag_310\n        /* \"#utility.yul\":3224:3226   */\n      0x20\n        /* \"#utility.yul\":3213:3222   */\n      dup5\n        /* \"#utility.yul\":3209:3227   */\n      add\n        /* \"#utility.yul\":3190:3228   */\n      tag_270\n      jump\t// in\n    tag_310:\n        /* \"#utility.yul\":3180:3228   */\n      swap1\n      pop\n        /* \"#utility.yul\":2980:3234   */\n      swap3\n      pop\n      swap3\n      swap1\n      pop\n      jump\t// out\n        /* \"#utility.yul\":3239:3792   */\n    tag_73:\n        /* \"#utility.yul\":3328:3334   */\n      0x00\n        /* \"#utility.yul\":3336:3342   */\n      dup1\n        /* \"#utility.yul\":3344:3350   */\n      0x00\n        /* \"#utility.yul\":3352:3358   */\n      dup1\n        /* \"#utility.yul\":3405:3407   */\n      0x60\n        /* \"#utility.yul\":3393:3402   */\n      dup6\n        /* \"#utility.yul\":3384:3391   */\n      dup8\n        /* \"#utility.yul\":3380:3403   */\n      sub\n        /* \"#utility.yul\":3376:3408   */\n      slt\n        /* \"#utility.yul\":3373:3425   */\n      iszero\n      tag_312\n      jumpi\n        /* \"#utility.yul\":3421:3422   */\n      0x00\n        /* \"#utility.yul\":3418:3419   */\n      dup1\n        /* \"#utility.yul\":3411:3423   */\n      revert\n        /* \"#utility.yul\":3373:3425   */\n    tag_312:\n        /* \"#utility.yul\":3461:3470   */\n      dup5\n        /* \"#utility.yul\":3448:3471   */\n      calldataload\n        /* \"#utility.yul\":3494:3512   */\n      0xffffffffffffffff\n        /* \"#utility.yul\":3486:3492   */\n      dup2\n        /* \"#utility.yul\":3483:3513   */\n      gt\n        /* \"#utility.yul\":3480:3530   */\n      iszero\n      tag_313\n      jumpi\n        /* \"#utility.yul\":3526:3527   */\n      0x00\n        /* \"#utility.yul\":3523:3524   */\n      dup1\n        /* \"#utility.yul\":3516:3528   */\n      revert\n        /* \"#utility.yul\":3480:3530   */\n    tag_313:\n        /* \"#utility.yul\":3565:3624   */\n      tag_314\n        /* \"#utility.yul\":3616:3623   */\n      dup8\n        /* \"#utility.yul\":3607:3613   */\n      dup3\n        /* \"#utility.yul\":3596:3605   */\n      dup9\n        /* \"#utility.yul\":3592:3614   */\n      add\n        /* \"#utility.yul\":3565:3624   */\n      tag_269\n      jump\t// in\n    tag_314:\n        /* \"#utility.yul\":3643:3651   */\n      swap1\n      swap6\n      pop\n        /* \"#utility.yul\":3539:3624   */\n      swap4\n      pop\n        /* \"#utility.yul\":3697:3735   */\n      tag_315\n      swap1\n      pop\n        /* \"#utility.yul\":3731:3733   */\n      0x20\n        /* \"#utility.yul\":3716:3734   */\n      dup7\n      add\n        /* \"#utility.yul\":3697:3735   */\n      tag_270\n      jump\t// in\n    tag_315:\n        /* \"#utility.yul\":3239:3792   */\n      swap4\n      swap7\n      swap3\n      swap6\n      pop\n        /* \"#utility.yul\":3687:3735   */\n      swap3\n      swap4\n        /* \"#utility.yul\":3782:3784   */\n      0x40\n        /* \"#utility.yul\":3767:3785   */\n      add\n        /* \"#utility.yul\":3754:3786   */\n      calldataload\n      swap3\n      pop\n      pop\n        /* \"#utility.yul\":3239:3792   */\n      jump\t// out\n        /* \"#utility.yul\":3797:4518   */\n    tag_77:\n        /* \"#utility.yul\":3889:3895   */\n      0x00\n        /* \"#utility.yul\":3897:3903   */\n      dup1\n        /* \"#utility.yul\":3905:3911   */\n      0x00\n        /* \"#utility.yul\":3913:3919   */\n      dup1\n        /* \"#utility.yul\":3966:3968   */\n      0x40\n        /* \"#utility.yul\":3954:3963   */\n      dup6\n        /* \"#utility.yul\":3945:3952   */\n      dup8\n        /* \"#utility.yul\":3941:3964   */\n      sub\n        /* \"#utility.yul\":3937:3969   */\n      slt\n        /* \"#utility.yul\":3934:3986   */\n      iszero\n      tag_317\n      jumpi\n        /* \"#utility.yul\":3982:3983   */\n      0x00\n        /* \"#utility.yul\":3979:3980   */\n      dup1\n        /* \"#utility.yul\":3972:3984   */\n      revert\n        /* \"#utility.yul\":3934:3986   */\n    tag_317:\n        /* \"#utility.yul\":4022:4031   */\n      dup5\n        /* \"#utility.yul\":4009:4032   */\n      calldataload\n        /* \"#utility.yul\":4051:4069   */\n      0xffffffffffffffff\n        /* \"#utility.yul\":4092:4094   */\n      dup1\n        /* \"#utility.yul\":4084:4090   */\n      dup3\n        /* \"#utility.yul\":4081:4095   */\n      gt\n        /* \"#utility.yul\":4078:4112   */\n      iszero\n      tag_318\n      jumpi\n        /* \"#utility.yul\":4108:4109   */\n      0x00\n        /* \"#utility.yul\":4105:4106   */\n      dup1\n        /* \"#utility.yul\":4098:4110   */\n      revert\n        /* \"#utility.yul\":4078:4112   */\n    tag_318:\n        /* \"#utility.yul\":4147:4206   */\n      tag_319\n        /* \"#utility.yul\":4198:4205   */\n      dup9\n        /* \"#utility.yul\":4189:4195   */\n      dup4\n        /* \"#utility.yul\":4178:4187   */\n      dup10\n        /* \"#utility.yul\":4174:4196   */\n      add\n        /* \"#utility.yul\":4147:4206   */\n      tag_269\n      jump\t// in\n    tag_319:\n        /* \"#utility.yul\":4225:4233   */\n      swap1\n      swap7\n      pop\n        /* \"#utility.yul\":4121:4206   */\n      swap5\n      pop\n        /* \"#utility.yul\":4313:4315   */\n      0x20\n        /* \"#utility.yul\":4298:4316   */\n      dup8\n      add\n        /* \"#utility.yul\":4285:4317   */\n      calldataload\n      swap2\n      pop\n        /* \"#utility.yul\":4329:4345   */\n      dup1\n      dup3\n      gt\n        /* \"#utility.yul\":4326:4362   */\n      iszero\n      tag_320\n      jumpi\n        /* \"#utility.yul\":4358:4359   */\n      0x00\n        /* \"#utility.yul\":4355:4356   */\n      dup1\n        /* \"#utility.yul\":4348:4360   */\n      revert\n        /* \"#utility.yul\":4326:4362   */\n    tag_320:\n      pop\n        /* \"#utility.yul\":4397:4458   */\n      tag_321\n        /* \"#utility.yul\":4450:4457   */\n      dup8\n        /* \"#utility.yul\":4439:4447   */\n      dup3\n        /* \"#utility.yul\":4428:4437   */\n      dup9\n        /* \"#utility.yul\":4424:4448   */\n      add\n        /* \"#utility.yul\":4397:4458   */\n      tag_269\n      jump\t// in\n    tag_321:\n        /* \"#utility.yul\":3797:4518   */\n      swap6\n      swap9\n      swap5\n      swap8\n      pop\n        /* \"#utility.yul\":4477:4485   */\n      swap6\n      pop\n      pop\n      pop\n      pop\n        /* \"#utility.yul\":3797:4518   */\n      jump\t// out\n        /* \"#utility.yul\":4523:4796   */\n    tag_81:\n        /* \"#utility.yul\":4579:4585   */\n      0x00\n        /* \"#utility.yul\":4632:4634   */\n      0x20\n        /* \"#utility.yul\":4620:4629   */\n      dup3\n        /* \"#utility.yul\":4611:4618   */\n      dup5\n        /* \"#utility.yul\":4607:4630   */\n      sub\n        /* \"#utility.yul\":4603:4635   */\n      slt\n        /* \"#utility.yul\":4600:4652   */\n      iszero\n      tag_323\n      jumpi\n        /* \"#utility.yul\":4648:4649   */\n      0x00\n        /* \"#utility.yul\":4645:4646   */\n      dup1\n        /* \"#utility.yul\":4638:4650   */\n      revert\n        /* \"#utility.yul\":4600:4652   */\n    tag_323:\n        /* \"#utility.yul\":4687:4696   */\n      dup2\n        /* \"#utility.yul\":4674:4697   */\n      calldataload\n        /* \"#utility.yul\":4740:4745   */\n      dup1\n        /* \"#utility.yul\":4733:4746   */\n      iszero\n        /* \"#utility.yul\":4726:4747   */\n      iszero\n        /* \"#utility.yul\":4719:4724   */\n      dup2\n        /* \"#utility.yul\":4716:4748   */\n      eq\n        /* \"#utility.yul\":4706:4766   */\n      tag_299\n      jumpi\n        /* \"#utility.yul\":4762:4763   */\n      0x00\n        /* \"#utility.yul\":4759:4760   */\n      dup1\n        /* \"#utility.yul\":4752:4764   */\n      revert\n        /* \"#utility.yul\":4801:5181   */\n    tag_100:\n        /* \"#utility.yul\":4880:4881   */\n      0x01\n        /* \"#utility.yul\":4876:4888   */\n      dup2\n      dup2\n      shr\n      swap1\n        /* \"#utility.yul\":4923:4935   */\n      dup3\n      and\n      dup1\n        /* \"#utility.yul\":4944:5005   */\n      tag_326\n      jumpi\n        /* \"#utility.yul\":4998:5002   */\n      0x7f\n        /* \"#utility.yul\":4990:4996   */\n      dup3\n        /* \"#utility.yul\":4986:5003   */\n      and\n        /* \"#utility.yul\":4976:5003   */\n      swap2\n      pop\n        /* \"#utility.yul\":4944:5005   */\n    tag_326:\n        /* \"#utility.yul\":5051:5053   */\n      0x20\n        /* \"#utility.yul\":5043:5049   */\n      dup3\n        /* \"#utility.yul\":5040:5054   */\n      lt\n        /* \"#utility.yul\":5020:5038   */\n      dup2\n        /* \"#utility.yul\":5017:5055   */\n      sub\n        /* \"#utility.yul\":5014:5175   */\n      tag_327\n      jumpi\n        /* \"#utility.yul\":5097:5107   */\n      0x4e487b71\n        /* \"#utility.yul\":5092:5095   */\n      0xe0\n        /* \"#utility.yul\":5088:5108   */\n      shl\n        /* \"#utility.yul\":5085:5086   */\n      0x00\n        /* \"#utility.yul\":5078:5109   */\n      mstore\n        /* \"#utility.yul\":5132:5136   */\n      0x22\n        /* \"#utility.yul\":5129:5130   */\n      0x04\n        /* \"#utility.yul\":5122:5137   */\n      mstore\n        /* \"#utility.yul\":5160:5164   */\n      0x24\n        /* \"#utility.yul\":5157:5158   */\n      0x00\n        /* \"#utility.yul\":5150:5165   */\n      revert\n        /* \"#utility.yul\":5014:5175   */\n    tag_327:\n      pop\n        /* \"#utility.yul\":4801:5181   */\n      swap2\n      swap1\n      pop\n      jump\t// out\n        /* \"#utility.yul\":5604:5731   */\n    tag_273:\n        /* \"#utility.yul\":5665:5675   */\n      0x4e487b71\n        /* \"#utility.yul\":5660:5663   */\n      0xe0\n        /* \"#utility.yul\":5656:5676   */\n      shl\n        /* \"#utility.yul\":5653:5654   */\n      0x00\n        /* \"#utility.yul\":5646:5677   */\n      mstore\n        /* \"#utility.yul\":5696:5700   */\n      0x41\n        /* \"#utility.yul\":5693:5694   */\n      0x04\n        /* \"#utility.yul\":5686:5701   */\n      mstore\n        /* \"#utility.yul\":5720:5724   */\n      0x24\n        /* \"#utility.yul\":5717:5718   */\n      0x00\n        /* \"#utility.yul\":5710:5725   */\n      revert\n        /* \"#utility.yul\":5862:6407   */\n    tag_275:\n        /* \"#utility.yul\":5964:5966   */\n      0x1f\n        /* \"#utility.yul\":5959:5962   */\n      dup3\n        /* \"#utility.yul\":5956:5967   */\n      gt\n        /* \"#utility.yul\":5953:6401   */\n      iszero\n      tag_259\n      jumpi\n        /* \"#utility.yul\":6000:6001   */\n      0x00\n        /* \"#utility.yul\":6025:6030   */\n      dup2\n        /* \"#utility.yul\":6021:6023   */\n      dup2\n        /* \"#utility.yul\":6014:6031   */\n      mstore\n        /* \"#utility.yul\":6070:6074   */\n      0x20\n        /* \"#utility.yul\":6066:6068   */\n      dup2\n        /* \"#utility.yul\":6056:6075   */\n      keccak256\n        /* \"#utility.yul\":6140:6142   */\n      0x1f\n        /* \"#utility.yul\":6128:6138   */\n      dup6\n        /* \"#utility.yul\":6124:6143   */\n      add\n        /* \"#utility.yul\":6121:6122   */\n      0x05\n        /* \"#utility.yul\":6117:6144   */\n      shr\n        /* \"#utility.yul\":6111:6115   */\n      dup2\n        /* \"#utility.yul\":6107:6145   */\n      add\n        /* \"#utility.yul\":6176:6180   */\n      0x20\n        /* \"#utility.yul\":6164:6174   */\n      dup7\n        /* \"#utility.yul\":6161:6181   */\n      lt\n        /* \"#utility.yul\":6158:6205   */\n      iszero\n      tag_333\n      jumpi\n      pop\n        /* \"#utility.yul\":6199:6203   */\n      dup1\n        /* \"#utility.yul\":6158:6205   */\n    tag_333:\n        /* \"#utility.yul\":6254:6256   */\n      0x1f\n        /* \"#utility.yul\":6249:6252   */\n      dup6\n        /* \"#utility.yul\":6245:6257   */\n      add\n        /* \"#utility.yul\":6242:6243   */\n      0x05\n        /* \"#utility.yul\":6238:6258   */\n      shr\n        /* \"#utility.yul\":6232:6236   */\n      dup3\n        /* \"#utility.yul\":6228:6259   */\n      add\n        /* \"#utility.yul\":6218:6259   */\n      swap2\n      pop\n        /* \"#utility.yul\":6309:6391   */\n    tag_334:\n        /* \"#utility.yul\":6327:6329   */\n      dup2\n        /* \"#utility.yul\":6320:6325   */\n      dup2\n        /* \"#utility.yul\":6317:6330   */\n      lt\n        /* \"#utility.yul\":6309:6391   */\n      iszero\n      tag_336\n      jumpi\n        /* \"#utility.yul\":6372:6389   */\n      dup3\n      dup2\n      sstore\n        /* \"#utility.yul\":6353:6354   */\n      0x01\n        /* \"#utility.yul\":6342:6355   */\n      add\n        /* \"#utility.yul\":6309:6391   */\n      jump(tag_334)\n    tag_336:\n        /* \"#utility.yul\":6313:6316   */\n      pop\n      pop\n      pop\n        /* \"#utility.yul\":5862:6407   */\n      pop\n      pop\n      pop\n      jump\t// out\n        /* \"#utility.yul\":6583:7789   */\n    tag_119:\n        /* \"#utility.yul\":6707:6725   */\n      0xffffffffffffffff\n        /* \"#utility.yul\":6702:6705   */\n      dup4\n        /* \"#utility.yul\":6699:6726   */\n      gt\n        /* \"#utility.yul\":6696:6749   */\n      iszero\n      tag_340\n      jumpi\n        /* \"#utility.yul\":6729:6747   */\n      tag_340\n      tag_273\n      jump\t// in\n    tag_340:\n        /* \"#utility.yul\":6758:6852   */\n      tag_341\n        /* \"#utility.yul\":6848:6851   */\n      dup4\n        /* \"#utility.yul\":6808:6846   */\n      tag_342\n        /* \"#utility.yul\":6840:6844   */\n      dup4\n        /* \"#utility.yul\":6834:6845   */\n      sload\n        /* \"#utility.yul\":6808:6846   */\n      tag_100\n      jump\t// in\n    tag_342:\n        /* \"#utility.yul\":6802:6806   */\n      dup4\n        /* \"#utility.yul\":6758:6852   */\n      tag_275\n      jump\t// in\n    tag_341:\n        /* \"#utility.yul\":6878:6879   */\n      0x00\n        /* \"#utility.yul\":6903:6905   */\n      0x1f\n        /* \"#utility.yul\":6898:6901   */\n      dup5\n        /* \"#utility.yul\":6895:6906   */\n      gt\n        /* \"#utility.yul\":6920:6921   */\n      0x01\n        /* \"#utility.yul\":6915:7531   */\n      dup2\n      eq\n      tag_344\n      jumpi\n        /* \"#utility.yul\":7575:7576   */\n      0x00\n        /* \"#utility.yul\":7592:7595   */\n      dup6\n        /* \"#utility.yul\":7589:7682   */\n      iszero\n      tag_345\n      jumpi\n      pop\n        /* \"#utility.yul\":7648:7667   */\n      dup4\n      dup3\n      add\n        /* \"#utility.yul\":7635:7668   */\n      calldataload\n        /* \"#utility.yul\":7589:7682   */\n    tag_345:\n      not(0x00)\n        /* \"#utility.yul\":6540:6541   */\n      0x03\n        /* \"#utility.yul\":6536:6547   */\n      dup8\n      swap1\n      shl\n        /* \"#utility.yul\":6532:6556   */\n      shr\n        /* \"#utility.yul\":6528:6557   */\n      not\n        /* \"#utility.yul\":6518:6558   */\n      and\n        /* \"#utility.yul\":6564:6565   */\n      0x01\n        /* \"#utility.yul\":6560:6571   */\n      dup7\n      swap1\n      shl\n        /* \"#utility.yul\":6515:6572   */\n      or\n        /* \"#utility.yul\":7695:7773   */\n      dup4\n      sstore\n        /* \"#utility.yul\":6888:7783   */\n      jump(tag_343)\n        /* \"#utility.yul\":6915:7531   */\n    tag_344:\n        /* \"#utility.yul\":5809:5810   */\n      0x00\n        /* \"#utility.yul\":5802:5816   */\n      dup4\n      dup2\n      mstore\n        /* \"#utility.yul\":5846:5850   */\n      0x20\n        /* \"#utility.yul\":5833:5851   */\n      swap1\n      keccak256\n      not(0x1f)\n        /* \"#utility.yul\":6951:6968   */\n      dup7\n      and\n      swap1\n        /* \"#utility.yul\":7052:7061   */\n      dup4\n        /* \"#utility.yul\":7074:7303   */\n    tag_348:\n        /* \"#utility.yul\":7088:7095   */\n      dup3\n        /* \"#utility.yul\":7085:7086   */\n      dup2\n        /* \"#utility.yul\":7082:7096   */\n      lt\n        /* \"#utility.yul\":7074:7303   */\n      iszero\n      tag_350\n      jumpi\n        /* \"#utility.yul\":7177:7196   */\n      dup7\n      dup6\n      add\n        /* \"#utility.yul\":7164:7197   */\n      calldataload\n        /* \"#utility.yul\":7149:7198   */\n      dup3\n      sstore\n        /* \"#utility.yul\":7284:7288   */\n      0x20\n        /* \"#utility.yul\":7269:7289   */\n      swap5\n      dup6\n      add\n      swap5\n        /* \"#utility.yul\":7237:7238   */\n      0x01\n        /* \"#utility.yul\":7225:7239   */\n      swap1\n      swap3\n      add\n      swap2\n        /* \"#utility.yul\":7104:7116   */\n      add\n        /* \"#utility.yul\":7074:7303   */\n      jump(tag_348)\n    tag_350:\n        /* \"#utility.yul\":7078:7081   */\n      pop\n        /* \"#utility.yul\":7331:7334   */\n      dup7\n        /* \"#utility.yul\":7322:7329   */\n      dup3\n        /* \"#utility.yul\":7319:7335   */\n      lt\n        /* \"#utility.yul\":7316:7475   */\n      iszero\n      tag_351\n      jumpi\n        /* \"#utility.yul\":7455:7456   */\n      0x00\n        /* \"#utility.yul\":7451:7457   */\n      not\n        /* \"#utility.yul\":7445:7448   */\n      0xf8\n        /* \"#utility.yul\":7439:7442   */\n      dup9\n        /* \"#utility.yul\":7436:7437   */\n      0x03\n        /* \"#utility.yul\":7432:7443   */\n      shl\n        /* \"#utility.yul\":7428:7449   */\n      and\n        /* \"#utility.yul\":7424:7458   */\n      shr\n        /* \"#utility.yul\":7420:7459   */\n      not\n        /* \"#utility.yul\":7407:7416   */\n      dup5\n        /* \"#utility.yul\":7402:7405   */\n      dup8\n        /* \"#utility.yul\":7398:7417   */\n      add\n        /* \"#utility.yul\":7385:7418   */\n      calldataload\n        /* \"#utility.yul\":7381:7460   */\n      and\n        /* \"#utility.yul\":7373:7379   */\n      dup2\n        /* \"#utility.yul\":7366:7461   */\n      sstore\n        /* \"#utility.yul\":7316:7475   */\n    tag_351:\n      pop\n      pop\n        /* \"#utility.yul\":7518:7519   */\n      0x01\n        /* \"#utility.yul\":7512:7515   */\n      dup6\n        /* \"#utility.yul\":7509:7510   */\n      0x01\n        /* \"#utility.yul\":7505:7516   */\n      shl\n        /* \"#utility.yul\":7501:7520   */\n      add\n        /* \"#utility.yul\":7495:7499   */\n      dup4\n        /* \"#utility.yul\":7488:7521   */\n      sstore\n        /* \"#utility.yul\":6888:7783   */\n    tag_343:\n      pop\n      pop\n        /* \"#utility.yul\":6583:7789   */\n      pop\n      pop\n      pop\n      jump\t// out\n        /* \"#utility.yul\":7794:8566   */\n    tag_277:\n        /* \"#utility.yul\":7844:7847   */\n      0x00\n        /* \"#utility.yul\":7885:7890   */\n      dup2\n        /* \"#utility.yul\":7879:7891   */\n      sload\n        /* \"#utility.yul\":7914:7950   */\n      tag_353\n        /* \"#utility.yul\":7940:7949   */\n      dup2\n        /* \"#utility.yul\":7914:7950   */\n      tag_100\n      jump\t// in\n    tag_353:\n        /* \"#utility.yul\":7959:7978   */\n      dup1\n      dup6\n      mstore\n        /* \"#utility.yul\":7997:8001   */\n      0x20\n        /* \"#utility.yul\":8020:8021   */\n      0x01\n        /* \"#utility.yul\":8037:8055   */\n      dup4\n      dup2\n      and\n        /* \"#utility.yul\":8064:8210   */\n      dup1\n      iszero\n      tag_355\n      jumpi\n        /* \"#utility.yul\":8224:8225   */\n      0x01\n        /* \"#utility.yul\":8219:8560   */\n      dup2\n      eq\n      tag_356\n      jumpi\n        /* \"#utility.yul\":8030:8560   */\n      jump(tag_354)\n        /* \"#utility.yul\":8064:8210   */\n    tag_355:\n      not(0xff)\n        /* \"#utility.yul\":8106:8130   */\n      dup6\n      and\n        /* \"#utility.yul\":8092:8104   */\n      dup9\n      dup5\n      add\n        /* \"#utility.yul\":8085:8131   */\n      mstore\n        /* \"#utility.yul\":8178:8192   */\n      dup4\n      iszero\n        /* \"#utility.yul\":8171:8193   */\n      iszero\n        /* \"#utility.yul\":8168:8169   */\n      0x05\n        /* \"#utility.yul\":8164:8194   */\n      shl\n        /* \"#utility.yul\":8155:8195   */\n      dup9\n      add\n        /* \"#utility.yul\":8151:8200   */\n      dup4\n      add\n      swap6\n      pop\n        /* \"#utility.yul\":8064:8210   */\n      jump(tag_354)\n        /* \"#utility.yul\":8219:8560   */\n    tag_356:\n        /* \"#utility.yul\":8250:8255   */\n      dup7\n        /* \"#utility.yul\":8247:8248   */\n      0x00\n        /* \"#utility.yul\":8240:8256   */\n      mstore\n        /* \"#utility.yul\":8297:8299   */\n      dup3\n        /* \"#utility.yul\":8294:8295   */\n      0x00\n        /* \"#utility.yul\":8284:8300   */\n      keccak256\n        /* \"#utility.yul\":8322:8323   */\n      0x00\n        /* \"#utility.yul\":8336:8510   */\n    tag_357:\n        /* \"#utility.yul\":8350:8356   */\n      dup6\n        /* \"#utility.yul\":8347:8348   */\n      dup2\n        /* \"#utility.yul\":8344:8357   */\n      lt\n        /* \"#utility.yul\":8336:8510   */\n      iszero\n      tag_359\n      jumpi\n        /* \"#utility.yul\":8437:8451   */\n      dup2\n      sload\n        /* \"#utility.yul\":8419:8430   */\n      dup11\n      dup3\n      add\n        /* \"#utility.yul\":8415:8435   */\n      dup7\n      add\n        /* \"#utility.yul\":8408:8452   */\n      mstore\n        /* \"#utility.yul\":8480:8496   */\n      swap1\n      dup4\n      add\n      swap1\n        /* \"#utility.yul\":8365:8375   */\n      dup5\n      add\n        /* \"#utility.yul\":8336:8510   */\n      jump(tag_357)\n    tag_359:\n        /* \"#utility.yul\":8534:8545   */\n      dup10\n      add\n        /* \"#utility.yul\":8530:8550   */\n      dup5\n      add\n      swap7\n      pop\n      pop\n        /* \"#utility.yul\":8030:8560   */\n    tag_354:\n      pop\n      pop\n      pop\n      pop\n      pop\n        /* \"#utility.yul\":7794:8566   */\n      swap3\n      swap2\n      pop\n      pop\n      jump\t// out\n        /* \"#utility.yul\":8571:8796   */\n    tag_122:\n        /* \"#utility.yul\":8717:8719   */\n      0x20\n        /* \"#utility.yul\":8706:8715   */\n      dup2\n        /* \"#utility.yul\":8699:8720   */\n      mstore\n        /* \"#utility.yul\":8680:8684   */\n      0x00\n        /* \"#utility.yul\":8737:8790   */\n      tag_299\n        /* \"#utility.yul\":8786:8788   */\n      0x20\n        /* \"#utility.yul\":8775:8784   */\n      dup4\n        /* \"#utility.yul\":8771:8789   */\n      add\n        /* \"#utility.yul\":8763:8769   */\n      dup5\n        /* \"#utility.yul\":8737:8790   */\n      tag_277\n      jump\t// in\n        /* \"#utility.yul\":11175:11811   */\n    tag_170:\n        /* \"#utility.yul\":11418:11421   */\n      0x80\n        /* \"#utility.yul\":11407:11416   */\n      dup2\n        /* \"#utility.yul\":11400:11422   */\n      mstore\n        /* \"#utility.yul\":11459:11465   */\n      dup5\n        /* \"#utility.yul\":11453:11456   */\n      0x80\n        /* \"#utility.yul\":11442:11451   */\n      dup3\n        /* \"#utility.yul\":11438:11457   */\n      add\n        /* \"#utility.yul\":11431:11466   */\n      mstore\n        /* \"#utility.yul\":11517:11523   */\n      dup5\n        /* \"#utility.yul\":11509:11515   */\n      dup7\n        /* \"#utility.yul\":11503:11506   */\n      0xa0\n        /* \"#utility.yul\":11492:11501   */\n      dup4\n        /* \"#utility.yul\":11488:11507   */\n      add\n        /* \"#utility.yul\":11475:11524   */\n      calldatacopy\n        /* \"#utility.yul\":11574:11575   */\n      0x00\n        /* \"#utility.yul\":11568:11571   */\n      0xa0\n        /* \"#utility.yul\":11544:11566   */\n      dup7\n      dup4\n      add\n        /* \"#utility.yul\":11540:11572   */\n      dup2\n      add\n        /* \"#utility.yul\":11533:11576   */\n      swap2\n      swap1\n      swap2\n      mstore\n      sub(shl(0xa0, 0x01), 0x01)\n        /* \"#utility.yul\":11686:11718   */\n      swap5\n      swap1\n      swap5\n      and\n        /* \"#utility.yul\":11679:11683   */\n      0x20\n        /* \"#utility.yul\":11664:11684   */\n      dup3\n      add\n        /* \"#utility.yul\":11657:11719   */\n      mstore\n        /* \"#utility.yul\":11750:11752   */\n      0x40\n        /* \"#utility.yul\":11735:11753   */\n      dup2\n      add\n        /* \"#utility.yul\":11728:11762   */\n      swap3\n      swap1\n      swap3\n      mstore\n        /* \"#utility.yul\":11793:11795   */\n      0x60\n        /* \"#utility.yul\":11778:11796   */\n      dup3\n      add\n        /* \"#utility.yul\":11771:11805   */\n      mstore\n        /* \"#utility.yul\":11637:11639   */\n      0x1f\n        /* \"#utility.yul\":11616:11631   */\n      swap1\n      swap3\n      add\n      not(0x1f)\n        /* \"#utility.yul\":11612:11641   */\n      and\n        /* \"#utility.yul\":11597:11642   */\n      swap1\n      swap2\n      add\n        /* \"#utility.yul\":11593:11648   */\n      add\n      swap2\n      swap1\n      pop\n        /* \"#utility.yul\":11175:11811   */\n      jump\t// out\n        /* \"#utility.yul\":12230:12618   */\n    tag_205:\n        /* \"#utility.yul\":12424:12426   */\n      0x40\n        /* \"#utility.yul\":12413:12422   */\n      dup2\n        /* \"#utility.yul\":12406:12427   */\n      mstore\n        /* \"#utility.yul\":12387:12391   */\n      0x00\n        /* \"#utility.yul\":12450:12503   */\n      tag_371\n        /* \"#utility.yul\":12499:12501   */\n      0x40\n        /* \"#utility.yul\":12488:12497   */\n      dup4\n        /* \"#utility.yul\":12484:12502   */\n      add\n        /* \"#utility.yul\":12476:12482   */\n      dup6\n        /* \"#utility.yul\":12450:12503   */\n      tag_277\n      jump\t// in\n    tag_371:\n        /* \"#utility.yul\":12551:12560   */\n      dup3\n        /* \"#utility.yul\":12543:12549   */\n      dup2\n        /* \"#utility.yul\":12539:12561   */\n      sub\n        /* \"#utility.yul\":12534:12536   */\n      0x20\n        /* \"#utility.yul\":12523:12532   */\n      dup5\n        /* \"#utility.yul\":12519:12537   */\n      add\n        /* \"#utility.yul\":12512:12562   */\n      mstore\n        /* \"#utility.yul\":12579:12612   */\n      tag_372\n        /* \"#utility.yul\":12605:12611   */\n      dup2\n        /* \"#utility.yul\":12597:12603   */\n      dup6\n        /* \"#utility.yul\":12579:12612   */\n      tag_272\n      jump\t// in\n    tag_372:\n        /* \"#utility.yul\":12571:12612   */\n      swap6\n        /* \"#utility.yul\":12230:12618   */\n      swap5\n      pop\n      pop\n      pop\n      pop\n      pop\n      jump\t// out\n        /* \"#utility.yul\":13385:13674   */\n    tag_231:\n        /* \"#utility.yul\":13516:13519   */\n      0x00\n        /* \"#utility.yul\":13554:13560   */\n      dup3\n        /* \"#utility.yul\":13548:13561   */\n      mload\n        /* \"#utility.yul\":13570:13636   */\n      tag_376\n        /* \"#utility.yul\":13629:13635   */\n      dup2\n        /* \"#utility.yul\":13624:13627   */\n      dup5\n        /* \"#utility.yul\":13617:13621   */\n      0x20\n        /* \"#utility.yul\":13609:13615   */\n      dup8\n        /* \"#utility.yul\":13605:13622   */\n      add\n        /* \"#utility.yul\":13570:13636   */\n      tag_271\n      jump\t// in\n    tag_376:\n        /* \"#utility.yul\":13652:13668   */\n      swap2\n      swap1\n      swap2\n      add\n      swap3\n        /* \"#utility.yul\":13385:13674   */\n      swap2\n      pop\n      pop\n      jump\t// out\n\n    auxdata: 0xa2646970667358221220ad0cee95f0f433ecea353a04f7263f662dc3385994b1593f7a702f7ab945f45164736f6c63430008110033\n}\n",
				"bytecode": {
					"linkReferences": {},
					"object": "608060405234801561001057600080fd5b5061001a3361002c565b6000805460ff60a01b1916905561007c565b600080546001600160a01b038381166001600160a01b0319831681178455604051919092169283917f8be0079c531659141344cd1fd0a4f28419497f9722a3daafe3b4186f6b6457e09190a35050565b6115f68061008b6000396000f3fe608060405234801561001057600080fd5b50600436106101165760003560e01c80639d54c79d116100a2578063bb2653fd11610071578063bb2653fd1461023c578063ce7aca321461024f578063d47a10dc14610262578063d958ff9914610275578063f2fde38b1461027d57600080fd5b80639d54c79d146101e3578063a394a0e6146101f6578063ab60032914610209578063b8f65a381461021157600080fd5b8063715018a6116100e9578063715018a61461018457806373c9fbe21461018e57806383b6f760146101a3578063898199e7146101b65780638da5cb5b146101be57600080fd5b80631ba437a61461011b5780631c9feaa51461014157806322c8077f146101655780635c975abb14610172575b600080fd5b61012e610129366004611108565b610290565b6040519081526020015b60405180910390f35b60065461015590600160a01b900460ff1681565b6040519015158152602001610138565b6002546101559060ff1681565b600054600160a01b900460ff16610155565b61018c610310565b005b610196610324565b60405161013891906111ac565b61018c6101b13660046111c6565b6103b2565b61018c610538565b6000546001600160a01b03165b6040516001600160a01b039091168152602001610138565b6006546101cb906001600160a01b031681565b61018c610204366004611208565b610636565b6101966107aa565b61012e61021f366004611223565b600160209081526000928352604080842090915290825290205481565b61018c61024a36600461124f565b6107b7565b61018c61025d3660046112ab565b6109f3565b61018c610270366004611317565b610c91565b610196610d56565b61018c61028b366004611208565b610d63565b6000600160006102d586868080601f016020809104026020016040519081016040528093929190818152602001838380828437600092019190915250610ddc92505050565b81526020019081526020016000206000836001600160a01b03166001600160a01b031681526020019081526020016000205490509392505050565b610318610e2a565b6103226000610e84565b565b6003805461033190611339565b80601f016020809104026020016040519081016040528092919081815260200182805461035d90611339565b80156103aa5780601f1061037f576101008083540402835291602001916103aa565b820191906000526020600020905b81548152906001019060200180831161038d57829003601f168201915b505050505081565b6103ba610ed4565b6006546001600160a01b031633146104335760405162461bcd60e51b815260206004820152603160248201527f4e6f7420656e6f756768207065726d697373696f6e7320746f20616464206120604482015270646561746820636572746966696361746560781b60648201526084015b60405180910390fd5b61043b610f21565b6104726040518060400160405280601681526020017509eeedccae440d2e640c2d8e4cac2c8f240c8cac2e8d60531b815250610f7b565b6104e682828080601f0160208091040260200160405190810160405280939291908181526020018383808284376000920191909152505060408051808201909152601981527f496e76616c6964206465617468206365727469666963617465000000000000006020820152915061100b9050565b60056104f38284836113d7565b506104fc610310565b7f69b3912734ea45353fa47ae50c0264b277f901fab10492a2f8071f859724cf8c600560405161052c9190611515565b60405180910390a15050565b610540610ed4565b6006546001600160a01b031633146105b25760405162461bcd60e51b815260206004820152602f60248201527f4e6f7420656e6f756768207065726d697373696f6e7320746f2065786563757460448201526e19481d1a19481d195cdd185b595b9d608a1b606482015260840161042a565b6105f06040518060400160405280601a81526020017f4465617468206365727469666963617465207265717569726564000000000000815250610f7b565b6105f8610f21565b6006805460ff60a01b1916600160a01b1790556040517f68f46c45a243a0e9065a97649faf9a5afe1692f2679e650c2f853b9cd734cc0e90600090a1565b61063e610e2a565b610646610ed4565b61064e611034565b610656610f21565b6000546001600160a01b03166001600160a01b0316816001600160a01b0316036106d65760405162461bcd60e51b815260206004820152602b60248201527f4f776e6572206f66207468652074657374616d656e742063616e6e6f7420626560448201526a20746865206e6f7461727960a81b606482015260840161042a565b6006546001600160a01b03908116908216036107525760405162461bcd60e51b815260206004820152603560248201527f4e6f7461727920616c72656164792073746f7265642c20747279206120646966604482015274666572656e74206e6f74617279206164647265737360581b606482015260840161042a565b600680546001600160a01b038381166001600160a01b03198316811790935560408051938452911660208301819052917fc3dd0606c8063f6a1f8015be4afee6b47ac45ddbaf39418871880440620dce8d910161052c565b6005805461033190611339565b6107bf610e2a565b6107c7610ed4565b600654600160a01b900460ff16156107de57600080fd5b6000546001600160a01b03166001600160a01b0316826001600160a01b03160361085a5760405162461bcd60e51b815260206004820152602760248201527f4f776e6572206f66207468652074657374616d656e742063616e6e6f742062656044820152661030903432b4b960c91b606482015260840161042a565b6108c184848080601f0160208091040260200160405190810160405280939291908181526020018383808284376000920191909152505060408051808201909152601081526f125b9d985b1a5908185cdcd95d081a5960821b6020820152915061100b9050565b600061090285858080601f016020809104026020016040519081016040528093929190818152602001838380828437600092019190915250610ddc92505050565b60008181526001602090815260408083206001600160a01b03881684529091529020549091508281036109865760405162461bcd60e51b815260206004820152602660248201527f50657263656e7420616c72656164792073657420666f7220746865206865697260448201526508185cdcd95d60d21b606482015260840161042a565b60008281526001602090815260408083206001600160a01b038816845290915290819020849055517f59c0830dc4499204f0a6d6564d9ded164162be6e588228978d12d860cda2d132906109e39088908890889088908790611528565b60405180910390a1505050505050565b6109fb610e2a565b610a03610ed4565b610a0b611034565b610a13610f21565b610a5284848080601f01602080910402602001604051908101604052809392919081815260200183838082843760009201919091525061109092505050565b610ae560038054610a6290611339565b80601f0160208091040260200160405190810160405280929190818152602001828054610a8e90611339565b8015610adb5780601f10610ab057610100808354040283529160200191610adb565b820191906000526020600020905b815481529060010190602001808311610abe57829003601f168201915b5050505050611090565b14158015610b405750610b2d82828080601f01602080910402602001604051908101604052809392919081815260200183838082843760009201919091525061109092505050565b610b3d60048054610a6290611339565b14155b610ba25760405162461bcd60e51b815260206004820152602d60248201527f55726c20616c72656164792073746f7265642c2074727920612064696666657260448201526c195b9d081d9a59195bc81d5c9b609a1b606482015260840161042a565b600060038054610bb190611339565b80601f0160208091040260200160405190810160405280929190818152602001828054610bdd90611339565b8015610c2a5780601f10610bff57610100808354040283529160200191610c2a565b820191906000526020600020905b815481529060010190602001808311610c0d57829003601f168201915b50505050509050848460039182610c429291906113d7565b506004610c508385836113d7565b507ee24c9f393c732fb7fda88944a94871d89529cb0538834e4b163c8885c29799600382604051610c82929190611576565b60405180910390a15050505050565b610c99610e2a565b610ca1610ed4565b610ca9611034565b610cb1610f21565b60025460ff16151581151503610d095760405162461bcd60e51b815260206004820152601a60248201527f446f6e6f722076616c756520697320616c726561647920736574000000000000604482015260640161042a565b6002805460ff191682151590811790915560405160ff909116151581527f50b950e5e5b4bb35ce4a7e71d17247016f9261ebc7da618f9a8f7751c3f4da6a9060200160405180910390a150565b6004805461033190611339565b610d6b610e2a565b6001600160a01b038116610dd05760405162461bcd60e51b815260206004820152602660248201527f4f776e61626c653a206e6577206f776e657220697320746865207a65726f206160448201526564647265737360d01b606482015260840161042a565b610dd981610e84565b50565b600081604051602001610def91906115a4565b60408051601f19818403018152828252805160209182012090830152015b604051602081830303815290604052805190602001209050919050565b6000546001600160a01b031633146103225760405162461bcd60e51b815260206004820181905260248201527f4f776e61626c653a2063616c6c6572206973206e6f7420746865206f776e6572604482015260640161042a565b600080546001600160a01b038381166001600160a01b0319831681178455604051919092169283917f8be0079c531659141344cd1fd0a4f28419497f9722a3daafe3b4186f6b6457e09190a35050565b600054600160a01b900460ff16156103225760405162461bcd60e51b815260206004820152601060248201526f14185d5cd8589b194e881c185d5cd95960821b604482015260640161042a565b600654600160a01b900460ff16156103225760405162461bcd60e51b815260206004820152601a60248201527f54657374616d656e7420616c7265616479206578656375746564000000000000604482015260640161042a565b610dd960058054610f8b90611339565b80601f0160208091040260200160405190810160405280929190818152602001828054610fb790611339565b80156110045780601f10610fd957610100808354040283529160200191611004565b820191906000526020600020905b815481529060010190602001808311610fe757829003601f168201915b5050505050825b6000825111819061102f5760405162461bcd60e51b815260040161042a91906111ac565b505050565b6005805461104190611339565b1590506103225760405162461bcd60e51b815260206004820181905260248201527f54657374616d656e74206f776e657220697320616c7265616479206465617468604482015260640161042a565b600081604051602001610e0d91906115a4565b60008083601f8401126110b557600080fd5b50813567ffffffffffffffff8111156110cd57600080fd5b6020830191508360208285010111156110e557600080fd5b9250929050565b80356001600160a01b038116811461110357600080fd5b919050565b60008060006040848603121561111d57600080fd5b833567ffffffffffffffff81111561113457600080fd5b611140868287016110a3565b90945092506111539050602085016110ec565b90509250925092565b60005b8381101561117757818101518382015260200161115f565b50506000910152565b6000815180845261119881602086016020860161115c565b601f01601f19169290920160200192915050565b6020815260006111bf6020830184611180565b9392505050565b600080602083850312156111d957600080fd5b823567ffffffffffffffff8111156111f057600080fd5b6111fc858286016110a3565b90969095509350505050565b60006020828403121561121a57600080fd5b6111bf826110ec565b6000806040838503121561123657600080fd5b82359150611246602084016110ec565b90509250929050565b6000806000806060858703121561126557600080fd5b843567ffffffffffffffff81111561127c57600080fd5b611288878288016110a3565b909550935061129b9050602086016110ec565b9396929550929360400135925050565b600080600080604085870312156112c157600080fd5b843567ffffffffffffffff808211156112d957600080fd5b6112e5888389016110a3565b909650945060208701359150808211156112fe57600080fd5b5061130b878288016110a3565b95989497509550505050565b60006020828403121561132957600080fd5b813580151581146111bf57600080fd5b600181811c9082168061134d57607f821691505b60208210810361136d57634e487b7160e01b600052602260045260246000fd5b50919050565b634e487b7160e01b600052604160045260246000fd5b601f82111561102f57600081815260208120601f850160051c810160208610156113b05750805b601f850160051c820191505b818110156113cf578281556001016113bc565b505050505050565b67ffffffffffffffff8311156113ef576113ef611373565b611403836113fd8354611339565b83611389565b6000601f841160018114611437576000851561141f5750838201355b600019600387901b1c1916600186901b178355611491565b600083815260209020601f19861690835b828110156114685786850135825560209485019460019092019101611448565b50868210156114855760001960f88860031b161c19848701351681555b505060018560011b0183555b5050505050565b600081546114a581611339565b8085526020600183811680156114c257600181146114dc5761150a565b60ff1985168884015283151560051b88018301955061150a565b866000528260002060005b858110156115025781548a82018601529083019084016114e7565b890184019650505b505050505092915050565b6020815260006111bf6020830184611498565b60808152846080820152848660a0830137600060a08683018101919091526001600160a01b0394909416602082015260408101929092526060820152601f909201601f191690910101919050565b6040815260006115896040830185611498565b828103602084015261159b8185611180565b95945050505050565b600082516115b681846020870161115c565b919091019291505056fea2646970667358221220ad0cee95f0f433ecea353a04f7263f662dc3385994b1593f7a702f7ab945f45164736f6c63430008110033",
					"opcodes": "PUSH1 0x80 PUSH1 0x40 MSTORE CALLVALUE DUP1 ISZERO PUSH2 0x10 JUMPI PUSH1 0x0 DUP1 REVERT JUMPDEST POP PUSH2 0x1A CALLER PUSH2 0x2C JUMP JUMPDEST PUSH1 0x0 DUP1 SLOAD PUSH1 0xFF PUSH1 0xA0 SHL NOT AND SWAP1 SSTORE PUSH2 0x7C JUMP JUMPDEST PUSH1 0x0 DUP1 SLOAD PUSH1 0x1 PUSH1 0x1 PUSH1 0xA0 SHL SUB DUP4 DUP2 AND PUSH1 0x1 PUSH1 0x1 PUSH1 0xA0 SHL SUB NOT DUP4 AND DUP2 OR DUP5 SSTORE PUSH1 0x40 MLOAD SWAP2 SWAP1 SWAP3 AND SWAP3 DUP4 SWAP2 PUSH32 0x8BE0079C531659141344CD1FD0A4F28419497F9722A3DAAFE3B4186F6B6457E0 SWAP2 SWAP1 LOG3 POP POP JUMP JUMPDEST PUSH2 0x15F6 DUP1 PUSH2 0x8B PUSH1 0x0 CODECOPY PUSH1 0x0 RETURN INVALID PUSH1 0x80 PUSH1 0x40 MSTORE CALLVALUE DUP1 ISZERO PUSH2 0x10 JUMPI PUSH1 0x0 DUP1 REVERT JUMPDEST POP PUSH1 0x4 CALLDATASIZE LT PUSH2 0x116 JUMPI PUSH1 0x0 CALLDATALOAD PUSH1 0xE0 SHR DUP1 PUSH4 0x9D54C79D GT PUSH2 0xA2 JUMPI DUP1 PUSH4 0xBB2653FD GT PUSH2 0x71 JUMPI DUP1 PUSH4 0xBB2653FD EQ PUSH2 0x23C JUMPI DUP1 PUSH4 0xCE7ACA32 EQ PUSH2 0x24F JUMPI DUP1 PUSH4 0xD47A10DC EQ PUSH2 0x262 JUMPI DUP1 PUSH4 0xD958FF99 EQ PUSH2 0x275 JUMPI DUP1 PUSH4 0xF2FDE38B EQ PUSH2 0x27D JUMPI PUSH1 0x0 DUP1 REVERT JUMPDEST DUP1 PUSH4 0x9D54C79D EQ PUSH2 0x1E3 JUMPI DUP1 PUSH4 0xA394A0E6 EQ PUSH2 0x1F6 JUMPI DUP1 PUSH4 0xAB600329 EQ PUSH2 0x209 JUMPI DUP1 PUSH4 0xB8F65A38 EQ PUSH2 0x211 JUMPI PUSH1 0x0 DUP1 REVERT JUMPDEST DUP1 PUSH4 0x715018A6 GT PUSH2 0xE9 JUMPI DUP1 PUSH4 0x715018A6 EQ PUSH2 0x184 JUMPI DUP1 PUSH4 0x73C9FBE2 EQ PUSH2 0x18E JUMPI DUP1 PUSH4 0x83B6F760 EQ PUSH2 0x1A3 JUMPI DUP1 PUSH4 0x898199E7 EQ PUSH2 0x1B6 JUMPI DUP1 PUSH4 0x8DA5CB5B EQ PUSH2 0x1BE JUMPI PUSH1 0x0 DUP1 REVERT JUMPDEST DUP1 PUSH4 0x1BA437A6 EQ PUSH2 0x11B JUMPI DUP1 PUSH4 0x1C9FEAA5 EQ PUSH2 0x141 JUMPI DUP1 PUSH4 0x22C8077F EQ PUSH2 0x165 JUMPI DUP1 PUSH4 0x5C975ABB EQ PUSH2 0x172 JUMPI JUMPDEST PUSH1 0x0 DUP1 REVERT JUMPDEST PUSH2 0x12E PUSH2 0x129 CALLDATASIZE PUSH1 0x4 PUSH2 0x1108 JUMP JUMPDEST PUSH2 0x290 JUMP JUMPDEST PUSH1 0x40 MLOAD SWAP1 DUP2 MSTORE PUSH1 0x20 ADD JUMPDEST PUSH1 0x40 MLOAD DUP1 SWAP2 SUB SWAP1 RETURN JUMPDEST PUSH1 0x6 SLOAD PUSH2 0x155 SWAP1 PUSH1 0x1 PUSH1 0xA0 SHL SWAP1 DIV PUSH1 0xFF AND DUP2 JUMP JUMPDEST PUSH1 0x40 MLOAD SWAP1 ISZERO ISZERO DUP2 MSTORE PUSH1 0x20 ADD PUSH2 0x138 JUMP JUMPDEST PUSH1 0x2 SLOAD PUSH2 0x155 SWAP1 PUSH1 0xFF AND DUP2 JUMP JUMPDEST PUSH1 0x0 SLOAD PUSH1 0x1 PUSH1 0xA0 SHL SWAP1 DIV PUSH1 0xFF AND PUSH2 0x155 JUMP JUMPDEST PUSH2 0x18C PUSH2 0x310 JUMP JUMPDEST STOP JUMPDEST PUSH2 0x196 PUSH2 0x324 JUMP JUMPDEST PUSH1 0x40 MLOAD PUSH2 0x138 SWAP2 SWAP1 PUSH2 0x11AC JUMP JUMPDEST PUSH2 0x18C PUSH2 0x1B1 CALLDATASIZE PUSH1 0x4 PUSH2 0x11C6 JUMP JUMPDEST PUSH2 0x3B2 JUMP JUMPDEST PUSH2 0x18C PUSH2 0x538 JUMP JUMPDEST PUSH1 0x0 SLOAD PUSH1 0x1 PUSH1 0x1 PUSH1 0xA0 SHL SUB AND JUMPDEST PUSH1 0x40 MLOAD PUSH1 0x1 PUSH1 0x1 PUSH1 0xA0 SHL SUB SWAP1 SWAP2 AND DUP2 MSTORE PUSH1 0x20 ADD PUSH2 0x138 JUMP JUMPDEST PUSH1 0x6 SLOAD PUSH2 0x1CB SWAP1 PUSH1 0x1 PUSH1 0x1 PUSH1 0xA0 SHL SUB AND DUP2 JUMP JUMPDEST PUSH2 0x18C PUSH2 0x204 CALLDATASIZE PUSH1 0x4 PUSH2 0x1208 JUMP JUMPDEST PUSH2 0x636 JUMP JUMPDEST PUSH2 0x196 PUSH2 0x7AA JUMP JUMPDEST PUSH2 0x12E PUSH2 0x21F CALLDATASIZE PUSH1 0x4 PUSH2 0x1223 JUMP JUMPDEST PUSH1 0x1 PUSH1 0x20 SWAP1 DUP2 MSTORE PUSH1 0x0 SWAP3 DUP4 MSTORE PUSH1 0x40 DUP1 DUP5 KECCAK256 SWAP1 SWAP2 MSTORE SWAP1 DUP3 MSTORE SWAP1 KECCAK256 SLOAD DUP2 JUMP JUMPDEST PUSH2 0x18C PUSH2 0x24A CALLDATASIZE PUSH1 0x4 PUSH2 0x124F JUMP JUMPDEST PUSH2 0x7B7 JUMP JUMPDEST PUSH2 0x18C PUSH2 0x25D CALLDATASIZE PUSH1 0x4 PUSH2 0x12AB JUMP JUMPDEST PUSH2 0x9F3 JUMP JUMPDEST PUSH2 0x18C PUSH2 0x270 CALLDATASIZE PUSH1 0x4 PUSH2 0x1317 JUMP JUMPDEST PUSH2 0xC91 JUMP JUMPDEST PUSH2 0x196 PUSH2 0xD56 JUMP JUMPDEST PUSH2 0x18C PUSH2 0x28B CALLDATASIZE PUSH1 0x4 PUSH2 0x1208 JUMP JUMPDEST PUSH2 0xD63 JUMP JUMPDEST PUSH1 0x0 PUSH1 0x1 PUSH1 0x0 PUSH2 0x2D5 DUP7 DUP7 DUP1 DUP1 PUSH1 0x1F ADD PUSH1 0x20 DUP1 SWAP2 DIV MUL PUSH1 0x20 ADD PUSH1 0x40 MLOAD SWAP1 DUP2 ADD PUSH1 0x40 MSTORE DUP1 SWAP4 SWAP3 SWAP2 SWAP1 DUP2 DUP2 MSTORE PUSH1 0x20 ADD DUP4 DUP4 DUP1 DUP3 DUP5 CALLDATACOPY PUSH1 0x0 SWAP3 ADD SWAP2 SWAP1 SWAP2 MSTORE POP PUSH2 0xDDC SWAP3 POP POP POP JUMP JUMPDEST DUP2 MSTORE PUSH1 0x20 ADD SWAP1 DUP2 MSTORE PUSH1 0x20 ADD PUSH1 0x0 KECCAK256 PUSH1 0x0 DUP4 PUSH1 0x1 PUSH1 0x1 PUSH1 0xA0 SHL SUB AND PUSH1 0x1 PUSH1 0x1 PUSH1 0xA0 SHL SUB AND DUP2 MSTORE PUSH1 0x20 ADD SWAP1 DUP2 MSTORE PUSH1 0x20 ADD PUSH1 0x0 KECCAK256 SLOAD SWAP1 POP SWAP4 SWAP3 POP POP POP JUMP JUMPDEST PUSH2 0x318 PUSH2 0xE2A JUMP JUMPDEST PUSH2 0x322 PUSH1 0x0 PUSH2 0xE84 JUMP JUMPDEST JUMP JUMPDEST PUSH1 0x3 DUP1 SLOAD PUSH2 0x331 SWAP1 PUSH2 0x1339 JUMP JUMPDEST DUP1 PUSH1 0x1F ADD PUSH1 0x20 DUP1 SWAP2 DIV MUL PUSH1 0x20 ADD PUSH1 0x40 MLOAD SWAP1 DUP2 ADD PUSH1 0x40 MSTORE DUP1 SWAP3 SWAP2 SWAP1 DUP2 DUP2 MSTORE PUSH1 0x20 ADD DUP3 DUP1 SLOAD PUSH2 0x35D SWAP1 PUSH2 0x1339 JUMP JUMPDEST DUP1 ISZERO PUSH2 0x3AA JUMPI DUP1 PUSH1 0x1F LT PUSH2 0x37F JUMPI PUSH2 0x100 DUP1 DUP4 SLOAD DIV MUL DUP4 MSTORE SWAP2 PUSH1 0x20 ADD SWAP2 PUSH2 0x3AA JUMP JUMPDEST DUP3 ADD SWAP2 SWAP1 PUSH1 0x0 MSTORE PUSH1 0x20 PUSH1 0x0 KECCAK256 SWAP1 JUMPDEST DUP2 SLOAD DUP2 MSTORE SWAP1 PUSH1 0x1 ADD SWAP1 PUSH1 0x20 ADD DUP1 DUP4 GT PUSH2 0x38D JUMPI DUP3 SWAP1 SUB PUSH1 0x1F AND DUP3 ADD SWAP2 JUMPDEST POP POP POP POP POP DUP2 JUMP JUMPDEST PUSH2 0x3BA PUSH2 0xED4 JUMP JUMPDEST PUSH1 0x6 SLOAD PUSH1 0x1 PUSH1 0x1 PUSH1 0xA0 SHL SUB AND CALLER EQ PUSH2 0x433 JUMPI PUSH1 0x40 MLOAD PUSH3 0x461BCD PUSH1 0xE5 SHL DUP2 MSTORE PUSH1 0x20 PUSH1 0x4 DUP3 ADD MSTORE PUSH1 0x31 PUSH1 0x24 DUP3 ADD MSTORE PUSH32 0x4E6F7420656E6F756768207065726D697373696F6E7320746F20616464206120 PUSH1 0x44 DUP3 ADD MSTORE PUSH17 0x6465617468206365727469666963617465 PUSH1 0x78 SHL PUSH1 0x64 DUP3 ADD MSTORE PUSH1 0x84 ADD JUMPDEST PUSH1 0x40 MLOAD DUP1 SWAP2 SUB SWAP1 REVERT JUMPDEST PUSH2 0x43B PUSH2 0xF21 JUMP JUMPDEST PUSH2 0x472 PUSH1 0x40 MLOAD DUP1 PUSH1 0x40 ADD PUSH1 0x40 MSTORE DUP1 PUSH1 0x16 DUP2 MSTORE PUSH1 0x20 ADD PUSH22 0x9EEEDCCAE440D2E640C2D8E4CAC2C8F240C8CAC2E8D PUSH1 0x53 SHL DUP2 MSTORE POP PUSH2 0xF7B JUMP JUMPDEST PUSH2 0x4E6 DUP3 DUP3 DUP1 DUP1 PUSH1 0x1F ADD PUSH1 0x20 DUP1 SWAP2 DIV MUL PUSH1 0x20 ADD PUSH1 0x40 MLOAD SWAP1 DUP2 ADD PUSH1 0x40 MSTORE DUP1 SWAP4 SWAP3 SWAP2 SWAP1 DUP2 DUP2 MSTORE PUSH1 0x20 ADD DUP4 DUP4 DUP1 DUP3 DUP5 CALLDATACOPY PUSH1 0x0 SWAP3 ADD SWAP2 SWAP1 SWAP2 MSTORE POP POP PUSH1 0x40 DUP1 MLOAD DUP1 DUP3 ADD SWAP1 SWAP2 MSTORE PUSH1 0x19 DUP2 MSTORE PUSH32 0x496E76616C696420646561746820636572746966696361746500000000000000 PUSH1 0x20 DUP3 ADD MSTORE SWAP2 POP PUSH2 0x100B SWAP1 POP JUMP JUMPDEST PUSH1 0x5 PUSH2 0x4F3 DUP3 DUP5 DUP4 PUSH2 0x13D7 JUMP JUMPDEST POP PUSH2 0x4FC PUSH2 0x310 JUMP JUMPDEST PUSH32 0x69B3912734EA45353FA47AE50C0264B277F901FAB10492A2F8071F859724CF8C PUSH1 0x5 PUSH1 0x40 MLOAD PUSH2 0x52C SWAP2 SWAP1 PUSH2 0x1515 JUMP JUMPDEST PUSH1 0x40 MLOAD DUP1 SWAP2 SUB SWAP1 LOG1 POP POP JUMP JUMPDEST PUSH2 0x540 PUSH2 0xED4 JUMP JUMPDEST PUSH1 0x6 SLOAD PUSH1 0x1 PUSH1 0x1 PUSH1 0xA0 SHL SUB AND CALLER EQ PUSH2 0x5B2 JUMPI PUSH1 0x40 MLOAD PUSH3 0x461BCD PUSH1 0xE5 SHL DUP2 MSTORE PUSH1 0x20 PUSH1 0x4 DUP3 ADD MSTORE PUSH1 0x2F PUSH1 0x24 DUP3 ADD MSTORE PUSH32 0x4E6F7420656E6F756768207065726D697373696F6E7320746F20657865637574 PUSH1 0x44 DUP3 ADD MSTORE PUSH15 0x19481D1A19481D195CDD185B595B9D PUSH1 0x8A SHL PUSH1 0x64 DUP3 ADD MSTORE PUSH1 0x84 ADD PUSH2 0x42A JUMP JUMPDEST PUSH2 0x5F0 PUSH1 0x40 MLOAD DUP1 PUSH1 0x40 ADD PUSH1 0x40 MSTORE DUP1 PUSH1 0x1A DUP2 MSTORE PUSH1 0x20 ADD PUSH32 0x4465617468206365727469666963617465207265717569726564000000000000 DUP2 MSTORE POP PUSH2 0xF7B JUMP JUMPDEST PUSH2 0x5F8 PUSH2 0xF21 JUMP JUMPDEST PUSH1 0x6 DUP1 SLOAD PUSH1 0xFF PUSH1 0xA0 SHL NOT AND PUSH1 0x1 PUSH1 0xA0 SHL OR SWAP1 SSTORE PUSH1 0x40 MLOAD PUSH32 0x68F46C45A243A0E9065A97649FAF9A5AFE1692F2679E650C2F853B9CD734CC0E SWAP1 PUSH1 0x0 SWAP1 LOG1 JUMP JUMPDEST PUSH2 0x63E PUSH2 0xE2A JUMP JUMPDEST PUSH2 0x646 PUSH2 0xED4 JUMP JUMPDEST PUSH2 0x64E PUSH2 0x1034 JUMP JUMPDEST PUSH2 0x656 PUSH2 0xF21 JUMP JUMPDEST PUSH1 0x0 SLOAD PUSH1 0x1 PUSH1 0x1 PUSH1 0xA0 SHL SUB AND PUSH1 0x1 PUSH1 0x1 PUSH1 0xA0 SHL SUB AND DUP2 PUSH1 0x1 PUSH1 0x1 PUSH1 0xA0 SHL SUB AND SUB PUSH2 0x6D6 JUMPI PUSH1 0x40 MLOAD PUSH3 0x461BCD PUSH1 0xE5 SHL DUP2 MSTORE PUSH1 0x20 PUSH1 0x4 DUP3 ADD MSTORE PUSH1 0x2B PUSH1 0x24 DUP3 ADD MSTORE PUSH32 0x4F776E6572206F66207468652074657374616D656E742063616E6E6F74206265 PUSH1 0x44 DUP3 ADD MSTORE PUSH11 0x20746865206E6F74617279 PUSH1 0xA8 SHL PUSH1 0x64 DUP3 ADD MSTORE PUSH1 0x84 ADD PUSH2 0x42A JUMP JUMPDEST PUSH1 0x6 SLOAD PUSH1 0x1 PUSH1 0x1 PUSH1 0xA0 SHL SUB SWAP1 DUP2 AND SWAP1 DUP3 AND SUB PUSH2 0x752 JUMPI PUSH1 0x40 MLOAD PUSH3 0x461BCD PUSH1 0xE5 SHL DUP2 MSTORE PUSH1 0x20 PUSH1 0x4 DUP3 ADD MSTORE PUSH1 0x35 PUSH1 0x24 DUP3 ADD MSTORE PUSH32 0x4E6F7461727920616C72656164792073746F7265642C20747279206120646966 PUSH1 0x44 DUP3 ADD MSTORE PUSH21 0x666572656E74206E6F746172792061646472657373 PUSH1 0x58 SHL PUSH1 0x64 DUP3 ADD MSTORE PUSH1 0x84 ADD PUSH2 0x42A JUMP JUMPDEST PUSH1 0x6 DUP1 SLOAD PUSH1 0x1 PUSH1 0x1 PUSH1 0xA0 SHL SUB DUP4 DUP2 AND PUSH1 0x1 PUSH1 0x1 PUSH1 0xA0 SHL SUB NOT DUP4 AND DUP2 OR SWAP1 SWAP4 SSTORE PUSH1 0x40 DUP1 MLOAD SWAP4 DUP5 MSTORE SWAP2 AND PUSH1 0x20 DUP4 ADD DUP2 SWAP1 MSTORE SWAP2 PUSH32 0xC3DD0606C8063F6A1F8015BE4AFEE6B47AC45DDBAF39418871880440620DCE8D SWAP2 ADD PUSH2 0x52C JUMP JUMPDEST PUSH1 0x5 DUP1 SLOAD PUSH2 0x331 SWAP1 PUSH2 0x1339 JUMP JUMPDEST PUSH2 0x7BF PUSH2 0xE2A JUMP JUMPDEST PUSH2 0x7C7 PUSH2 0xED4 JUMP JUMPDEST PUSH1 0x6 SLOAD PUSH1 0x1 PUSH1 0xA0 SHL SWAP1 DIV PUSH1 0xFF AND ISZERO PUSH2 0x7DE JUMPI PUSH1 0x0 DUP1 REVERT JUMPDEST PUSH1 0x0 SLOAD PUSH1 0x1 PUSH1 0x1 PUSH1 0xA0 SHL SUB AND PUSH1 0x1 PUSH1 0x1 PUSH1 0xA0 SHL SUB AND DUP3 PUSH1 0x1 PUSH1 0x1 PUSH1 0xA0 SHL SUB AND SUB PUSH2 0x85A JUMPI PUSH1 0x40 MLOAD PUSH3 0x461BCD PUSH1 0xE5 SHL DUP2 MSTORE PUSH1 0x20 PUSH1 0x4 DUP3 ADD MSTORE PUSH1 0x27 PUSH1 0x24 DUP3 ADD MSTORE PUSH32 0x4F776E6572206F66207468652074657374616D656E742063616E6E6F74206265 PUSH1 0x44 DUP3 ADD MSTORE PUSH7 0x1030903432B4B9 PUSH1 0xC9 SHL PUSH1 0x64 DUP3 ADD MSTORE PUSH1 0x84 ADD PUSH2 0x42A JUMP JUMPDEST PUSH2 0x8C1 DUP5 DUP5 DUP1 DUP1 PUSH1 0x1F ADD PUSH1 0x20 DUP1 SWAP2 DIV MUL PUSH1 0x20 ADD PUSH1 0x40 MLOAD SWAP1 DUP2 ADD PUSH1 0x40 MSTORE DUP1 SWAP4 SWAP3 SWAP2 SWAP1 DUP2 DUP2 MSTORE PUSH1 0x20 ADD DUP4 DUP4 DUP1 DUP3 DUP5 CALLDATACOPY PUSH1 0x0 SWAP3 ADD SWAP2 SWAP1 SWAP2 MSTORE POP POP PUSH1 0x40 DUP1 MLOAD DUP1 DUP3 ADD SWAP1 SWAP2 MSTORE PUSH1 0x10 DUP2 MSTORE PUSH16 0x125B9D985B1A5908185CDCD95D081A59 PUSH1 0x82 SHL PUSH1 0x20 DUP3 ADD MSTORE SWAP2 POP PUSH2 0x100B SWAP1 POP JUMP JUMPDEST PUSH1 0x0 PUSH2 0x902 DUP6 DUP6 DUP1 DUP1 PUSH1 0x1F ADD PUSH1 0x20 DUP1 SWAP2 DIV MUL PUSH1 0x20 ADD PUSH1 0x40 MLOAD SWAP1 DUP2 ADD PUSH1 0x40 MSTORE DUP1 SWAP4 SWAP3 SWAP2 SWAP1 DUP2 DUP2 MSTORE PUSH1 0x20 ADD DUP4 DUP4 DUP1 DUP3 DUP5 CALLDATACOPY PUSH1 0x0 SWAP3 ADD SWAP2 SWAP1 SWAP2 MSTORE POP PUSH2 0xDDC SWAP3 POP POP POP JUMP JUMPDEST PUSH1 0x0 DUP2 DUP2 MSTORE PUSH1 0x1 PUSH1 0x20 SWAP1 DUP2 MSTORE PUSH1 0x40 DUP1 DUP4 KECCAK256 PUSH1 0x1 PUSH1 0x1 PUSH1 0xA0 SHL SUB DUP9 AND DUP5 MSTORE SWAP1 SWAP2 MSTORE SWAP1 KECCAK256 SLOAD SWAP1 SWAP2 POP DUP3 DUP2 SUB PUSH2 0x986 JUMPI PUSH1 0x40 MLOAD PUSH3 0x461BCD PUSH1 0xE5 SHL DUP2 MSTORE PUSH1 0x20 PUSH1 0x4 DUP3 ADD MSTORE PUSH1 0x26 PUSH1 0x24 DUP3 ADD MSTORE PUSH32 0x50657263656E7420616C72656164792073657420666F72207468652068656972 PUSH1 0x44 DUP3 ADD MSTORE PUSH6 0x8185CDCD95D PUSH1 0xD2 SHL PUSH1 0x64 DUP3 ADD MSTORE PUSH1 0x84 ADD PUSH2 0x42A JUMP JUMPDEST PUSH1 0x0 DUP3 DUP2 MSTORE PUSH1 0x1 PUSH1 0x20 SWAP1 DUP2 MSTORE PUSH1 0x40 DUP1 DUP4 KECCAK256 PUSH1 0x1 PUSH1 0x1 PUSH1 0xA0 SHL SUB DUP9 AND DUP5 MSTORE SWAP1 SWAP2 MSTORE SWAP1 DUP2 SWAP1 KECCAK256 DUP5 SWAP1 SSTORE MLOAD PUSH32 0x59C0830DC4499204F0A6D6564D9DED164162BE6E588228978D12D860CDA2D132 SWAP1 PUSH2 0x9E3 SWAP1 DUP9 SWAP1 DUP9 SWAP1 DUP9 SWAP1 DUP9 SWAP1 DUP8 SWAP1 PUSH2 0x1528 JUMP JUMPDEST PUSH1 0x40 MLOAD DUP1 SWAP2 SUB SWAP1 LOG1 POP POP POP POP POP POP JUMP JUMPDEST PUSH2 0x9FB PUSH2 0xE2A JUMP JUMPDEST PUSH2 0xA03 PUSH2 0xED4 JUMP JUMPDEST PUSH2 0xA0B PUSH2 0x1034 JUMP JUMPDEST PUSH2 0xA13 PUSH2 0xF21 JUMP JUMPDEST PUSH2 0xA52 DUP5 DUP5 DUP1 DUP1 PUSH1 0x1F ADD PUSH1 0x20 DUP1 SWAP2 DIV MUL PUSH1 0x20 ADD PUSH1 0x40 MLOAD SWAP1 DUP2 ADD PUSH1 0x40 MSTORE DUP1 SWAP4 SWAP3 SWAP2 SWAP1 DUP2 DUP2 MSTORE PUSH1 0x20 ADD DUP4 DUP4 DUP1 DUP3 DUP5 CALLDATACOPY PUSH1 0x0 SWAP3 ADD SWAP2 SWAP1 SWAP2 MSTORE POP PUSH2 0x1090 SWAP3 POP POP POP JUMP JUMPDEST PUSH2 0xAE5 PUSH1 0x3 DUP1 SLOAD PUSH2 0xA62 SWAP1 PUSH2 0x1339 JUMP JUMPDEST DUP1 PUSH1 0x1F ADD PUSH1 0x20 DUP1 SWAP2 DIV MUL PUSH1 0x20 ADD PUSH1 0x40 MLOAD SWAP1 DUP2 ADD PUSH1 0x40 MSTORE DUP1 SWAP3 SWAP2 SWAP1 DUP2 DUP2 MSTORE PUSH1 0x20 ADD DUP3 DUP1 SLOAD PUSH2 0xA8E SWAP1 PUSH2 0x1339 JUMP JUMPDEST DUP1 ISZERO PUSH2 0xADB JUMPI DUP1 PUSH1 0x1F LT PUSH2 0xAB0 JUMPI PUSH2 0x100 DUP1 DUP4 SLOAD DIV MUL DUP4 MSTORE SWAP2 PUSH1 0x20 ADD SWAP2 PUSH2 0xADB JUMP JUMPDEST DUP3 ADD SWAP2 SWAP1 PUSH1 0x0 MSTORE PUSH1 0x20 PUSH1 0x0 KECCAK256 SWAP1 JUMPDEST DUP2 SLOAD DUP2 MSTORE SWAP1 PUSH1 0x1 ADD SWAP1 PUSH1 0x20 ADD DUP1 DUP4 GT PUSH2 0xABE JUMPI DUP3 SWAP1 SUB PUSH1 0x1F AND DUP3 ADD SWAP2 JUMPDEST POP POP POP POP POP PUSH2 0x1090 JUMP JUMPDEST EQ ISZERO DUP1 ISZERO PUSH2 0xB40 JUMPI POP PUSH2 0xB2D DUP3 DUP3 DUP1 DUP1 PUSH1 0x1F ADD PUSH1 0x20 DUP1 SWAP2 DIV MUL PUSH1 0x20 ADD PUSH1 0x40 MLOAD SWAP1 DUP2 ADD PUSH1 0x40 MSTORE DUP1 SWAP4 SWAP3 SWAP2 SWAP1 DUP2 DUP2 MSTORE PUSH1 0x20 ADD DUP4 DUP4 DUP1 DUP3 DUP5 CALLDATACOPY PUSH1 0x0 SWAP3 ADD SWAP2 SWAP1 SWAP2 MSTORE POP PUSH2 0x1090 SWAP3 POP POP POP JUMP JUMPDEST PUSH2 0xB3D PUSH1 0x4 DUP1 SLOAD PUSH2 0xA62 SWAP1 PUSH2 0x1339 JUMP JUMPDEST EQ ISZERO JUMPDEST PUSH2 0xBA2 JUMPI PUSH1 0x40 MLOAD PUSH3 0x461BCD PUSH1 0xE5 SHL DUP2 MSTORE PUSH1 0x20 PUSH1 0x4 DUP3 ADD MSTORE PUSH1 0x2D PUSH1 0x24 DUP3 ADD MSTORE PUSH32 0x55726C20616C72656164792073746F7265642C20747279206120646966666572 PUSH1 0x44 DUP3 ADD MSTORE PUSH13 0x195B9D081D9A59195BC81D5C9B PUSH1 0x9A SHL PUSH1 0x64 DUP3 ADD MSTORE PUSH1 0x84 ADD PUSH2 0x42A JUMP JUMPDEST PUSH1 0x0 PUSH1 0x3 DUP1 SLOAD PUSH2 0xBB1 SWAP1 PUSH2 0x1339 JUMP JUMPDEST DUP1 PUSH1 0x1F ADD PUSH1 0x20 DUP1 SWAP2 DIV MUL PUSH1 0x20 ADD PUSH1 0x40 MLOAD SWAP1 DUP2 ADD PUSH1 0x40 MSTORE DUP1 SWAP3 SWAP2 SWAP1 DUP2 DUP2 MSTORE PUSH1 0x20 ADD DUP3 DUP1 SLOAD PUSH2 0xBDD SWAP1 PUSH2 0x1339 JUMP JUMPDEST DUP1 ISZERO PUSH2 0xC2A JUMPI DUP1 PUSH1 0x1F LT PUSH2 0xBFF JUMPI PUSH2 0x100 DUP1 DUP4 SLOAD DIV MUL DUP4 MSTORE SWAP2 PUSH1 0x20 ADD SWAP2 PUSH2 0xC2A JUMP JUMPDEST DUP3 ADD SWAP2 SWAP1 PUSH1 0x0 MSTORE PUSH1 0x20 PUSH1 0x0 KECCAK256 SWAP1 JUMPDEST DUP2 SLOAD DUP2 MSTORE SWAP1 PUSH1 0x1 ADD SWAP1 PUSH1 0x20 ADD DUP1 DUP4 GT PUSH2 0xC0D JUMPI DUP3 SWAP1 SUB PUSH1 0x1F AND DUP3 ADD SWAP2 JUMPDEST POP POP POP POP POP SWAP1 POP DUP5 DUP5 PUSH1 0x3 SWAP2 DUP3 PUSH2 0xC42 SWAP3 SWAP2 SWAP1 PUSH2 0x13D7 JUMP JUMPDEST POP PUSH1 0x4 PUSH2 0xC50 DUP4 DUP6 DUP4 PUSH2 0x13D7 JUMP JUMPDEST POP PUSH31 0xE24C9F393C732FB7FDA88944A94871D89529CB0538834E4B163C8885C29799 PUSH1 0x3 DUP3 PUSH1 0x40 MLOAD PUSH2 0xC82 SWAP3 SWAP2 SWAP1 PUSH2 0x1576 JUMP JUMPDEST PUSH1 0x40 MLOAD DUP1 SWAP2 SUB SWAP1 LOG1 POP POP POP POP POP JUMP JUMPDEST PUSH2 0xC99 PUSH2 0xE2A JUMP JUMPDEST PUSH2 0xCA1 PUSH2 0xED4 JUMP JUMPDEST PUSH2 0xCA9 PUSH2 0x1034 JUMP JUMPDEST PUSH2 0xCB1 PUSH2 0xF21 JUMP JUMPDEST PUSH1 0x2 SLOAD PUSH1 0xFF AND ISZERO ISZERO DUP2 ISZERO ISZERO SUB PUSH2 0xD09 JUMPI PUSH1 0x40 MLOAD PUSH3 0x461BCD PUSH1 0xE5 SHL DUP2 MSTORE PUSH1 0x20 PUSH1 0x4 DUP3 ADD MSTORE PUSH1 0x1A PUSH1 0x24 DUP3 ADD MSTORE PUSH32 0x446F6E6F722076616C756520697320616C726561647920736574000000000000 PUSH1 0x44 DUP3 ADD MSTORE PUSH1 0x64 ADD PUSH2 0x42A JUMP JUMPDEST PUSH1 0x2 DUP1 SLOAD PUSH1 0xFF NOT AND DUP3 ISZERO ISZERO SWAP1 DUP2 OR SWAP1 SWAP2 SSTORE PUSH1 0x40 MLOAD PUSH1 0xFF SWAP1 SWAP2 AND ISZERO ISZERO DUP2 MSTORE PUSH32 0x50B950E5E5B4BB35CE4A7E71D17247016F9261EBC7DA618F9A8F7751C3F4DA6A SWAP1 PUSH1 0x20 ADD PUSH1 0x40 MLOAD DUP1 SWAP2 SUB SWAP1 LOG1 POP JUMP JUMPDEST PUSH1 0x4 DUP1 SLOAD PUSH2 0x331 SWAP1 PUSH2 0x1339 JUMP JUMPDEST PUSH2 0xD6B PUSH2 0xE2A JUMP JUMPDEST PUSH1 0x1 PUSH1 0x1 PUSH1 0xA0 SHL SUB DUP2 AND PUSH2 0xDD0 JUMPI PUSH1 0x40 MLOAD PUSH3 0x461BCD PUSH1 0xE5 SHL DUP2 MSTORE PUSH1 0x20 PUSH1 0x4 DUP3 ADD MSTORE PUSH1 0x26 PUSH1 0x24 DUP3 ADD MSTORE PUSH32 0x4F776E61626C653A206E6577206F776E657220697320746865207A65726F2061 PUSH1 0x44 DUP3 ADD MSTORE PUSH6 0x646472657373 PUSH1 0xD0 SHL PUSH1 0x64 DUP3 ADD MSTORE PUSH1 0x84 ADD PUSH2 0x42A JUMP JUMPDEST PUSH2 0xDD9 DUP2 PUSH2 0xE84 JUMP JUMPDEST POP JUMP JUMPDEST PUSH1 0x0 DUP2 PUSH1 0x40 MLOAD PUSH1 0x20 ADD PUSH2 0xDEF SWAP2 SWAP1 PUSH2 0x15A4 JUMP JUMPDEST PUSH1 0x40 DUP1 MLOAD PUSH1 0x1F NOT DUP2 DUP5 SUB ADD DUP2 MSTORE DUP3 DUP3 MSTORE DUP1 MLOAD PUSH1 0x20 SWAP2 DUP3 ADD KECCAK256 SWAP1 DUP4 ADD MSTORE ADD JUMPDEST PUSH1 0x40 MLOAD PUSH1 0x20 DUP2 DUP4 SUB SUB DUP2 MSTORE SWAP1 PUSH1 0x40 MSTORE DUP1 MLOAD SWAP1 PUSH1 0x20 ADD KECCAK256 SWAP1 POP SWAP2 SWAP1 POP JUMP JUMPDEST PUSH1 0x0 SLOAD PUSH1 0x1 PUSH1 0x1 PUSH1 0xA0 SHL SUB AND CALLER EQ PUSH2 0x322 JUMPI PUSH1 0x40 MLOAD PUSH3 0x461BCD PUSH1 0xE5 SHL DUP2 MSTORE PUSH1 0x20 PUSH1 0x4 DUP3 ADD DUP2 SWAP1 MSTORE PUSH1 0x24 DUP3 ADD MSTORE PUSH32 0x4F776E61626C653A2063616C6C6572206973206E6F7420746865206F776E6572 PUSH1 0x44 DUP3 ADD MSTORE PUSH1 0x64 ADD PUSH2 0x42A JUMP JUMPDEST PUSH1 0x0 DUP1 SLOAD PUSH1 0x1 PUSH1 0x1 PUSH1 0xA0 SHL SUB DUP4 DUP2 AND PUSH1 0x1 PUSH1 0x1 PUSH1 0xA0 SHL SUB NOT DUP4 AND DUP2 OR DUP5 SSTORE PUSH1 0x40 MLOAD SWAP2 SWAP1 SWAP3 AND SWAP3 DUP4 SWAP2 PUSH32 0x8BE0079C531659141344CD1FD0A4F28419497F9722A3DAAFE3B4186F6B6457E0 SWAP2 SWAP1 LOG3 POP POP JUMP JUMPDEST PUSH1 0x0 SLOAD PUSH1 0x1 PUSH1 0xA0 SHL SWAP1 DIV PUSH1 0xFF AND ISZERO PUSH2 0x322 JUMPI PUSH1 0x40 MLOAD PUSH3 0x461BCD PUSH1 0xE5 SHL DUP2 MSTORE PUSH1 0x20 PUSH1 0x4 DUP3 ADD MSTORE PUSH1 0x10 PUSH1 0x24 DUP3 ADD MSTORE PUSH16 0x14185D5CD8589B194E881C185D5CD959 PUSH1 0x82 SHL PUSH1 0x44 DUP3 ADD MSTORE PUSH1 0x64 ADD PUSH2 0x42A JUMP JUMPDEST PUSH1 0x6 SLOAD PUSH1 0x1 PUSH1 0xA0 SHL SWAP1 DIV PUSH1 0xFF AND ISZERO PUSH2 0x322 JUMPI PUSH1 0x40 MLOAD PUSH3 0x461BCD PUSH1 0xE5 SHL DUP2 MSTORE PUSH1 0x20 PUSH1 0x4 DUP3 ADD MSTORE PUSH1 0x1A PUSH1 0x24 DUP3 ADD MSTORE PUSH32 0x54657374616D656E7420616C7265616479206578656375746564000000000000 PUSH1 0x44 DUP3 ADD MSTORE PUSH1 0x64 ADD PUSH2 0x42A JUMP JUMPDEST PUSH2 0xDD9 PUSH1 0x5 DUP1 SLOAD PUSH2 0xF8B SWAP1 PUSH2 0x1339 JUMP JUMPDEST DUP1 PUSH1 0x1F ADD PUSH1 0x20 DUP1 SWAP2 DIV MUL PUSH1 0x20 ADD PUSH1 0x40 MLOAD SWAP1 DUP2 ADD PUSH1 0x40 MSTORE DUP1 SWAP3 SWAP2 SWAP1 DUP2 DUP2 MSTORE PUSH1 0x20 ADD DUP3 DUP1 SLOAD PUSH2 0xFB7 SWAP1 PUSH2 0x1339 JUMP JUMPDEST DUP1 ISZERO PUSH2 0x1004 JUMPI DUP1 PUSH1 0x1F LT PUSH2 0xFD9 JUMPI PUSH2 0x100 DUP1 DUP4 SLOAD DIV MUL DUP4 MSTORE SWAP2 PUSH1 0x20 ADD SWAP2 PUSH2 0x1004 JUMP JUMPDEST DUP3 ADD SWAP2 SWAP1 PUSH1 0x0 MSTORE PUSH1 0x20 PUSH1 0x0 KECCAK256 SWAP1 JUMPDEST DUP2 SLOAD DUP2 MSTORE SWAP1 PUSH1 0x1 ADD SWAP1 PUSH1 0x20 ADD DUP1 DUP4 GT PUSH2 0xFE7 JUMPI DUP3 SWAP1 SUB PUSH1 0x1F AND DUP3 ADD SWAP2 JUMPDEST POP POP POP POP POP DUP3 JUMPDEST PUSH1 0x0 DUP3 MLOAD GT DUP2 SWAP1 PUSH2 0x102F JUMPI PUSH1 0x40 MLOAD PUSH3 0x461BCD PUSH1 0xE5 SHL DUP2 MSTORE PUSH1 0x4 ADD PUSH2 0x42A SWAP2 SWAP1 PUSH2 0x11AC JUMP JUMPDEST POP POP POP JUMP JUMPDEST PUSH1 0x5 DUP1 SLOAD PUSH2 0x1041 SWAP1 PUSH2 0x1339 JUMP JUMPDEST ISZERO SWAP1 POP PUSH2 0x322 JUMPI PUSH1 0x40 MLOAD PUSH3 0x461BCD PUSH1 0xE5 SHL DUP2 MSTORE PUSH1 0x20 PUSH1 0x4 DUP3 ADD DUP2 SWAP1 MSTORE PUSH1 0x24 DUP3 ADD MSTORE PUSH32 0x54657374616D656E74206F776E657220697320616C7265616479206465617468 PUSH1 0x44 DUP3 ADD MSTORE PUSH1 0x64 ADD PUSH2 0x42A JUMP JUMPDEST PUSH1 0x0 DUP2 PUSH1 0x40 MLOAD PUSH1 0x20 ADD PUSH2 0xE0D SWAP2 SWAP1 PUSH2 0x15A4 JUMP JUMPDEST PUSH1 0x0 DUP1 DUP4 PUSH1 0x1F DUP5 ADD SLT PUSH2 0x10B5 JUMPI PUSH1 0x0 DUP1 REVERT JUMPDEST POP DUP2 CALLDATALOAD PUSH8 0xFFFFFFFFFFFFFFFF DUP2 GT ISZERO PUSH2 0x10CD JUMPI PUSH1 0x0 DUP1 REVERT JUMPDEST PUSH1 0x20 DUP4 ADD SWAP2 POP DUP4 PUSH1 0x20 DUP3 DUP6 ADD ADD GT ISZERO PUSH2 0x10E5 JUMPI PUSH1 0x0 DUP1 REVERT JUMPDEST SWAP3 POP SWAP3 SWAP1 POP JUMP JUMPDEST DUP1 CALLDATALOAD PUSH1 0x1 PUSH1 0x1 PUSH1 0xA0 SHL SUB DUP2 AND DUP2 EQ PUSH2 0x1103 JUMPI PUSH1 0x0 DUP1 REVERT JUMPDEST SWAP2 SWAP1 POP JUMP JUMPDEST PUSH1 0x0 DUP1 PUSH1 0x0 PUSH1 0x40 DUP5 DUP7 SUB SLT ISZERO PUSH2 0x111D JUMPI PUSH1 0x0 DUP1 REVERT JUMPDEST DUP4 CALLDATALOAD PUSH8 0xFFFFFFFFFFFFFFFF DUP2 GT ISZERO PUSH2 0x1134 JUMPI PUSH1 0x0 DUP1 REVERT JUMPDEST PUSH2 0x1140 DUP7 DUP3 DUP8 ADD PUSH2 0x10A3 JUMP JUMPDEST SWAP1 SWAP5 POP SWAP3 POP PUSH2 0x1153 SWAP1 POP PUSH1 0x20 DUP6 ADD PUSH2 0x10EC JUMP JUMPDEST SWAP1 POP SWAP3 POP SWAP3 POP SWAP3 JUMP JUMPDEST PUSH1 0x0 JUMPDEST DUP4 DUP2 LT ISZERO PUSH2 0x1177 JUMPI DUP2 DUP2 ADD MLOAD DUP4 DUP3 ADD MSTORE PUSH1 0x20 ADD PUSH2 0x115F JUMP JUMPDEST POP POP PUSH1 0x0 SWAP2 ADD MSTORE JUMP JUMPDEST PUSH1 0x0 DUP2 MLOAD DUP1 DUP5 MSTORE PUSH2 0x1198 DUP2 PUSH1 0x20 DUP7 ADD PUSH1 0x20 DUP7 ADD PUSH2 0x115C JUMP JUMPDEST PUSH1 0x1F ADD PUSH1 0x1F NOT AND SWAP3 SWAP1 SWAP3 ADD PUSH1 0x20 ADD SWAP3 SWAP2 POP POP JUMP JUMPDEST PUSH1 0x20 DUP2 MSTORE PUSH1 0x0 PUSH2 0x11BF PUSH1 0x20 DUP4 ADD DUP5 PUSH2 0x1180 JUMP JUMPDEST SWAP4 SWAP3 POP POP POP JUMP JUMPDEST PUSH1 0x0 DUP1 PUSH1 0x20 DUP4 DUP6 SUB SLT ISZERO PUSH2 0x11D9 JUMPI PUSH1 0x0 DUP1 REVERT JUMPDEST DUP3 CALLDATALOAD PUSH8 0xFFFFFFFFFFFFFFFF DUP2 GT ISZERO PUSH2 0x11F0 JUMPI PUSH1 0x0 DUP1 REVERT JUMPDEST PUSH2 0x11FC DUP6 DUP3 DUP7 ADD PUSH2 0x10A3 JUMP JUMPDEST SWAP1 SWAP7 SWAP1 SWAP6 POP SWAP4 POP POP POP POP JUMP JUMPDEST PUSH1 0x0 PUSH1 0x20 DUP3 DUP5 SUB SLT ISZERO PUSH2 0x121A JUMPI PUSH1 0x0 DUP1 REVERT JUMPDEST PUSH2 0x11BF DUP3 PUSH2 0x10EC JUMP JUMPDEST PUSH1 0x0 DUP1 PUSH1 0x40 DUP4 DUP6 SUB SLT ISZERO PUSH2 0x1236 JUMPI PUSH1 0x0 DUP1 REVERT JUMPDEST DUP3 CALLDATALOAD SWAP2 POP PUSH2 0x1246 PUSH1 0x20 DUP5 ADD PUSH2 0x10EC JUMP JUMPDEST SWAP1 POP SWAP3 POP SWAP3 SWAP1 POP JUMP JUMPDEST PUSH1 0x0 DUP1 PUSH1 0x0 DUP1 PUSH1 0x60 DUP6 DUP8 SUB SLT ISZERO PUSH2 0x1265 JUMPI PUSH1 0x0 DUP1 REVERT JUMPDEST DUP5 CALLDATALOAD PUSH8 0xFFFFFFFFFFFFFFFF DUP2 GT ISZERO PUSH2 0x127C JUMPI PUSH1 0x0 DUP1 REVERT JUMPDEST PUSH2 0x1288 DUP8 DUP3 DUP9 ADD PUSH2 0x10A3 JUMP JUMPDEST SWAP1 SWAP6 POP SWAP4 POP PUSH2 0x129B SWAP1 POP PUSH1 0x20 DUP7 ADD PUSH2 0x10EC JUMP JUMPDEST SWAP4 SWAP7 SWAP3 SWAP6 POP SWAP3 SWAP4 PUSH1 0x40 ADD CALLDATALOAD SWAP3 POP POP JUMP JUMPDEST PUSH1 0x0 DUP1 PUSH1 0x0 DUP1 PUSH1 0x40 DUP6 DUP8 SUB SLT ISZERO PUSH2 0x12C1 JUMPI PUSH1 0x0 DUP1 REVERT JUMPDEST DUP5 CALLDATALOAD PUSH8 0xFFFFFFFFFFFFFFFF DUP1 DUP3 GT ISZERO PUSH2 0x12D9 JUMPI PUSH1 0x0 DUP1 REVERT JUMPDEST PUSH2 0x12E5 DUP9 DUP4 DUP10 ADD PUSH2 0x10A3 JUMP JUMPDEST SWAP1 SWAP7 POP SWAP5 POP PUSH1 0x20 DUP8 ADD CALLDATALOAD SWAP2 POP DUP1 DUP3 GT ISZERO PUSH2 0x12FE JUMPI PUSH1 0x0 DUP1 REVERT JUMPDEST POP PUSH2 0x130B DUP8 DUP3 DUP9 ADD PUSH2 0x10A3 JUMP JUMPDEST SWAP6 SWAP9 SWAP5 SWAP8 POP SWAP6 POP POP POP POP JUMP JUMPDEST PUSH1 0x0 PUSH1 0x20 DUP3 DUP5 SUB SLT ISZERO PUSH2 0x1329 JUMPI PUSH1 0x0 DUP1 REVERT JUMPDEST DUP2 CALLDATALOAD DUP1 ISZERO ISZERO DUP2 EQ PUSH2 0x11BF JUMPI PUSH1 0x0 DUP1 REVERT JUMPDEST PUSH1 0x1 DUP2 DUP2 SHR SWAP1 DUP3 AND DUP1 PUSH2 0x134D JUMPI PUSH1 0x7F DUP3 AND SWAP2 POP JUMPDEST PUSH1 0x20 DUP3 LT DUP2 SUB PUSH2 0x136D JUMPI PUSH4 0x4E487B71 PUSH1 0xE0 SHL PUSH1 0x0 MSTORE PUSH1 0x22 PUSH1 0x4 MSTORE PUSH1 0x24 PUSH1 0x0 REVERT JUMPDEST POP SWAP2 SWAP1 POP JUMP JUMPDEST PUSH4 0x4E487B71 PUSH1 0xE0 SHL PUSH1 0x0 MSTORE PUSH1 0x41 PUSH1 0x4 MSTORE PUSH1 0x24 PUSH1 0x0 REVERT JUMPDEST PUSH1 0x1F DUP3 GT ISZERO PUSH2 0x102F JUMPI PUSH1 0x0 DUP2 DUP2 MSTORE PUSH1 0x20 DUP2 KECCAK256 PUSH1 0x1F DUP6 ADD PUSH1 0x5 SHR DUP2 ADD PUSH1 0x20 DUP7 LT ISZERO PUSH2 0x13B0 JUMPI POP DUP1 JUMPDEST PUSH1 0x1F DUP6 ADD PUSH1 0x5 SHR DUP3 ADD SWAP2 POP JUMPDEST DUP2 DUP2 LT ISZERO PUSH2 0x13CF JUMPI DUP3 DUP2 SSTORE PUSH1 0x1 ADD PUSH2 0x13BC JUMP JUMPDEST POP POP POP POP POP POP JUMP JUMPDEST PUSH8 0xFFFFFFFFFFFFFFFF DUP4 GT ISZERO PUSH2 0x13EF JUMPI PUSH2 0x13EF PUSH2 0x1373 JUMP JUMPDEST PUSH2 0x1403 DUP4 PUSH2 0x13FD DUP4 SLOAD PUSH2 0x1339 JUMP JUMPDEST DUP4 PUSH2 0x1389 JUMP JUMPDEST PUSH1 0x0 PUSH1 0x1F DUP5 GT PUSH1 0x1 DUP2 EQ PUSH2 0x1437 JUMPI PUSH1 0x0 DUP6 ISZERO PUSH2 0x141F JUMPI POP DUP4 DUP3 ADD CALLDATALOAD JUMPDEST PUSH1 0x0 NOT PUSH1 0x3 DUP8 SWAP1 SHL SHR NOT AND PUSH1 0x1 DUP7 SWAP1 SHL OR DUP4 SSTORE PUSH2 0x1491 JUMP JUMPDEST PUSH1 0x0 DUP4 DUP2 MSTORE PUSH1 0x20 SWAP1 KECCAK256 PUSH1 0x1F NOT DUP7 AND SWAP1 DUP4 JUMPDEST DUP3 DUP2 LT ISZERO PUSH2 0x1468 JUMPI DUP7 DUP6 ADD CALLDATALOAD DUP3 SSTORE PUSH1 0x20 SWAP5 DUP6 ADD SWAP5 PUSH1 0x1 SWAP1 SWAP3 ADD SWAP2 ADD PUSH2 0x1448 JUMP JUMPDEST POP DUP7 DUP3 LT ISZERO PUSH2 0x1485 JUMPI PUSH1 0x0 NOT PUSH1 0xF8 DUP9 PUSH1 0x3 SHL AND SHR NOT DUP5 DUP8 ADD CALLDATALOAD AND DUP2 SSTORE JUMPDEST POP POP PUSH1 0x1 DUP6 PUSH1 0x1 SHL ADD DUP4 SSTORE JUMPDEST POP POP POP POP POP JUMP JUMPDEST PUSH1 0x0 DUP2 SLOAD PUSH2 0x14A5 DUP2 PUSH2 0x1339 JUMP JUMPDEST DUP1 DUP6 MSTORE PUSH1 0x20 PUSH1 0x1 DUP4 DUP2 AND DUP1 ISZERO PUSH2 0x14C2 JUMPI PUSH1 0x1 DUP2 EQ PUSH2 0x14DC JUMPI PUSH2 0x150A JUMP JUMPDEST PUSH1 0xFF NOT DUP6 AND DUP9 DUP5 ADD MSTORE DUP4 ISZERO ISZERO PUSH1 0x5 SHL DUP9 ADD DUP4 ADD SWAP6 POP PUSH2 0x150A JUMP JUMPDEST DUP7 PUSH1 0x0 MSTORE DUP3 PUSH1 0x0 KECCAK256 PUSH1 0x0 JUMPDEST DUP6 DUP2 LT ISZERO PUSH2 0x1502 JUMPI DUP2 SLOAD DUP11 DUP3 ADD DUP7 ADD MSTORE SWAP1 DUP4 ADD SWAP1 DUP5 ADD PUSH2 0x14E7 JUMP JUMPDEST DUP10 ADD DUP5 ADD SWAP7 POP POP JUMPDEST POP POP POP POP POP SWAP3 SWAP2 POP POP JUMP JUMPDEST PUSH1 0x20 DUP2 MSTORE PUSH1 0x0 PUSH2 0x11BF PUSH1 0x20 DUP4 ADD DUP5 PUSH2 0x1498 JUMP JUMPDEST PUSH1 0x80 DUP2 MSTORE DUP5 PUSH1 0x80 DUP3 ADD MSTORE DUP5 DUP7 PUSH1 0xA0 DUP4 ADD CALLDATACOPY PUSH1 0x0 PUSH1 0xA0 DUP7 DUP4 ADD DUP2 ADD SWAP2 SWAP1 SWAP2 MSTORE PUSH1 0x1 PUSH1 0x1 PUSH1 0xA0 SHL SUB SWAP5 SWAP1 SWAP5 AND PUSH1 0x20 DUP3 ADD MSTORE PUSH1 0x40 DUP2 ADD SWAP3 SWAP1 SWAP3 MSTORE PUSH1 0x60 DUP3 ADD MSTORE PUSH1 0x1F SWAP1 SWAP3 ADD PUSH1 0x1F NOT AND SWAP1 SWAP2 ADD ADD SWAP2 SWAP1 POP JUMP JUMPDEST PUSH1 0x40 DUP2 MSTORE PUSH1 0x0 PUSH2 0x1589 PUSH1 0x40 DUP4 ADD DUP6 PUSH2 0x1498 JUMP JUMPDEST DUP3 DUP2 SUB PUSH1 0x20 DUP5 ADD MSTORE PUSH2 0x159B DUP2 DUP6 PUSH2 0x1180 JUMP JUMPDEST SWAP6 SWAP5 POP POP POP POP POP JUMP JUMPDEST PUSH1 0x0 DUP3 MLOAD PUSH2 0x15B6 DUP2 DUP5 PUSH1 0x20 DUP8 ADD PUSH2 0x115C JUMP JUMPDEST SWAP2 SWAP1 SWAP2 ADD SWAP3 SWAP2 POP POP JUMP INVALID LOG2 PUSH5 0x6970667358 0x22 SLT KECCAK256 0xAD 0xC 0xEE SWAP6 CREATE DELEGATECALL CALLER 0xEC 0xEA CALLDATALOAD GASPRICE DIV 0xF7 0x26 EXTCODEHASH PUSH7 0x2DC3385994B159 EXTCODEHASH PUSH27 0x702F7AB945F45164736F6C63430008110033000000000000000000 "
				},
				"gasEstimates": {
					"creation": {
						"codeDepositCost": "1124400",
						"executionCost": "51232",
						"totalCost": "1175632"
					},
					"external": {
						"assetsPercents(bytes32,address)": "2695",
						"deathCertificateId()": "infinite",
						"executeTestament()": "infinite",
						"getAssetPercent(string,address)": "infinite",
						"isDonor()": "2378",
						"isExecuted()": "2373",
						"notary()": "2360",
						"owner()": "2431",
						"paused()": "2411",
						"registerAsset(string,address,uint256)": "infinite",
						"renounceOwnership()": "infinite",
						"setDeathCertificate(string)": "infinite",
						"setIsDonor(bool)": "infinite",
						"setNotary(address)": "infinite",
						"setVideoUrl(string,string)": "infinite",
						"transferOwnership(address)": "28443",
						"videoPassword()": "infinite",
						"videoUrl()": "infinite"
					},
					"internal": {
						"checkIsDeath(string memory)": "infinite",
						"checkIsNotDeath()": "infinite",
						"checkIsNotExecuted()": "infinite",
						"hash(string memory)": "infinite",
						"requireValidString(string memory,string memory)": "infinite",
						"secureHash(string memory)": "infinite"
					}
				},
				"methodIdentifiers": {
					"assetsPercents(bytes32,address)": "b8f65a38",
					"deathCertificateId()": "ab600329",
					"executeTestament()": "898199e7",
					"getAssetPercent(string,address)": "1ba437a6",
					"isDonor()": "22c8077f",
					"isExecuted()": "1c9feaa5",
					"notary()": "9d54c79d",
					"owner()": "8da5cb5b",
					"paused()": "5c975abb",
					"registerAsset(string,address,uint256)": "bb2653fd",
					"renounceOwnership()": "715018a6",
					"setDeathCertificate(string)": "83b6f760",
					"setIsDonor(bool)": "d47a10dc",
					"setNotary(address)": "a394a0e6",
					"setVideoUrl(string,string)": "ce7aca32",
					"transferOwnership(address)": "f2fde38b",
					"videoPassword()": "d958ff99",
					"videoUrl()": "73c9fbe2"
				}
			},
			"storageLayout": {
				"storage": [
					{
						"astId": 438,
						"contract": "contracts/Testament.sol:Testament",
						"label": "_owner",
						"offset": 0,
						"slot": "0",
						"type": "t_address"
					},
					{
						"astId": 561,
						"contract": "contracts/Testament.sol:Testament",
						"label": "_paused",
						"offset": 20,
						"slot": "0",
						"type": "t_bool"
					},
					{
						"astId": 13,
						"contract": "contracts/Testament.sol:Testament",
						"label": "assetsPercents",
						"offset": 0,
						"slot": "1",
						"type": "t_mapping(t_bytes32,t_mapping(t_address,t_uint256))"
					},
					{
						"astId": 15,
						"contract": "contracts/Testament.sol:Testament",
						"label": "isDonor",
						"offset": 0,
						"slot": "2",
						"type": "t_bool"
					},
					{
						"astId": 17,
						"contract": "contracts/Testament.sol:Testament",
						"label": "videoUrl",
						"offset": 0,
						"slot": "3",
						"type": "t_string_storage"
					},
					{
						"astId": 19,
						"contract": "contracts/Testament.sol:Testament",
						"label": "videoPassword",
						"offset": 0,
						"slot": "4",
						"type": "t_string_storage"
					},
					{
						"astId": 21,
						"contract": "contracts/Testament.sol:Testament",
						"label": "deathCertificateId",
						"offset": 0,
						"slot": "5",
						"type": "t_string_storage"
					},
					{
						"astId": 23,
						"contract": "contracts/Testament.sol:Testament",
						"label": "notary",
						"offset": 0,
						"slot": "6",
						"type": "t_address"
					},
					{
						"astId": 25,
						"contract": "contracts/Testament.sol:Testament",
						"label": "isExecuted",
						"offset": 20,
						"slot": "6",
						"type": "t_bool"
					}
				],
				"types": {
					"t_address": {
						"encoding": "inplace",
						"label": "address",
						"numberOfBytes": "20"
					},
					"t_bool": {
						"encoding": "inplace",
						"label": "bool",
						"numberOfBytes": "1"
					},
					"t_bytes32": {
						"encoding": "inplace",
						"label": "bytes32",
						"numberOfBytes": "32"
					},
					"t_mapping(t_address,t_uint256)": {
						"encoding": "mapping",
						"key": "t_address",
						"label": "mapping(address => uint256)",
						"numberOfBytes": "32",
						"value": "t_uint256"
					},
					"t_mapping(t_bytes32,t_mapping(t_address,t_uint256))": {
						"encoding": "mapping",
						"key": "t_bytes32",
						"label": "mapping(bytes32 => mapping(address => uint256))",
						"numberOfBytes": "32",
						"value": "t_mapping(t_address,t_uint256)"
					},
					"t_string_storage": {
						"encoding": "bytes",
						"label": "string",
						"numberOfBytes": "32"
					},
					"t_uint256": {
						"encoding": "inplace",
						"label": "uint256",
						"numberOfBytes": "32"
					}
				}
			},
			"userdoc": {
				"kind": "user",
				"methods": {},
				"version": 1
			}
		}
	}
}