{
  "contractName": "Testament",
  "abi": [
    {
      "anonymous": false,
      "inputs": [
        {
          "indexed": false,
          "internalType": "string",
          "name": "deathCertificateId",
          "type": "string"
        }
      ],
      "name": "Deceased",
      "type": "event"
    },
    {
      "anonymous": false,
      "inputs": [],
      "name": "Executed",
      "type": "event"
    },
    {
      "anonymous": false,
      "inputs": [
        {
          "indexed": true,
          "internalType": "address",
          "name": "previousOwner",
          "type": "address"
        },
        {
          "indexed": true,
          "internalType": "address",
          "name": "newOwner",
          "type": "address"
        }
      ],
      "name": "OwnershipTransferred",
      "type": "event"
    },
    {
      "anonymous": false,
      "inputs": [
        {
          "indexed": false,
          "internalType": "address",
          "name": "account",
          "type": "address"
        }
      ],
      "name": "Paused",
      "type": "event"
    },
    {
      "anonymous": false,
      "inputs": [
        {
          "indexed": false,
          "internalType": "address",
          "name": "account",
          "type": "address"
        }
      ],
      "name": "Unpaused",
      "type": "event"
    },
    {
      "anonymous": false,
      "inputs": [
        {
          "indexed": false,
          "internalType": "string",
          "name": "assetId",
          "type": "string"
        },
        {
          "indexed": false,
          "internalType": "address",
          "name": "heir",
          "type": "address"
        },
        {
          "indexed": false,
          "internalType": "uint256",
          "name": "newPercent",
          "type": "uint256"
        },
        {
          "indexed": false,
          "internalType": "uint256",
          "name": "oldPercent",
          "type": "uint256"
        }
      ],
      "name": "UpdatedAsset",
      "type": "event"
    },
    {
      "anonymous": false,
      "inputs": [
        {
          "indexed": false,
          "internalType": "bool",
          "name": "isDonor",
          "type": "bool"
        }
      ],
      "name": "UpdatedIsDonor",
      "type": "event"
    },
    {
      "anonymous": false,
      "inputs": [
        {
          "indexed": false,
          "internalType": "address",
          "name": "notaryAddress",
          "type": "address"
        },
        {
          "indexed": false,
          "internalType": "address",
          "name": "oldNotaryAddress",
          "type": "address"
        }
      ],
      "name": "UpdatedNotary",
      "type": "event"
    },
    {
      "anonymous": false,
      "inputs": [
        {
          "indexed": false,
          "internalType": "string",
          "name": "videoUrl",
          "type": "string"
        },
        {
          "indexed": false,
          "internalType": "string",
          "name": "oldVideoUrl",
          "type": "string"
        }
      ],
      "name": "UpdatedVideo",
      "type": "event"
    },
    {
      "inputs": [
        {
          "internalType": "bytes32",
          "name": "",
          "type": "bytes32"
        },
        {
          "internalType": "address",
          "name": "",
          "type": "address"
        }
      ],
      "name": "assetsPercents",
      "outputs": [
        {
          "internalType": "uint256",
          "name": "",
          "type": "uint256"
        }
      ],
      "stateMutability": "view",
      "type": "function"
    },
    {
      "inputs": [],
      "name": "deathCertificateId",
      "outputs": [
        {
          "internalType": "string",
          "name": "",
          "type": "string"
        }
      ],
      "stateMutability": "view",
      "type": "function"
    },
    {
      "inputs": [],
      "name": "isDonor",
      "outputs": [
        {
          "internalType": "bool",
          "name": "",
          "type": "bool"
        }
      ],
      "stateMutability": "view",
      "type": "function"
    },
    {
      "inputs": [],
      "name": "isExecuted",
      "outputs": [
        {
          "internalType": "bool",
          "name": "",
          "type": "bool"
        }
      ],
      "stateMutability": "view",
      "type": "function"
    },
    {
      "inputs": [],
      "name": "notary",
      "outputs": [
        {
          "internalType": "address",
          "name": "",
          "type": "address"
        }
      ],
      "stateMutability": "view",
      "type": "function"
    },
    {
      "inputs": [],
      "name": "owner",
      "outputs": [
        {
          "internalType": "address",
          "name": "",
          "type": "address"
        }
      ],
      "stateMutability": "view",
      "type": "function"
    },
    {
      "inputs": [],
      "name": "paused",
      "outputs": [
        {
          "internalType": "bool",
          "name": "",
          "type": "bool"
        }
      ],
      "stateMutability": "view",
      "type": "function"
    },
    {
      "inputs": [],
      "name": "renounceOwnership",
      "outputs": [],
      "stateMutability": "nonpayable",
      "type": "function"
    },
    {
      "inputs": [
        {
          "internalType": "address",
          "name": "newOwner",
          "type": "address"
        }
      ],
      "name": "transferOwnership",
      "outputs": [],
      "stateMutability": "nonpayable",
      "type": "function"
    },
    {
      "inputs": [],
      "name": "videoPassword",
      "outputs": [
        {
          "internalType": "string",
          "name": "",
          "type": "string"
        }
      ],
      "stateMutability": "view",
      "type": "function"
    },
    {
      "inputs": [],
      "name": "videoUrl",
      "outputs": [
        {
          "internalType": "string",
          "name": "",
          "type": "string"
        }
      ],
      "stateMutability": "view",
      "type": "function"
    },
    {
      "inputs": [
        {
          "internalType": "string",
          "name": "_assetId",
          "type": "string"
        },
        {
          "internalType": "address",
          "name": "_heir",
          "type": "address"
        }
      ],
      "name": "getAssetPercent",
      "outputs": [
        {
          "internalType": "uint256",
          "name": "",
          "type": "uint256"
        }
      ],
      "stateMutability": "view",
      "type": "function"
    },
    {
      "inputs": [
        {
          "internalType": "string",
          "name": "_assetId",
          "type": "string"
        },
        {
          "internalType": "address",
          "name": "_heir",
          "type": "address"
        },
        {
          "internalType": "uint256",
          "name": "_percent",
          "type": "uint256"
        }
      ],
      "name": "registerAsset",
      "outputs": [],
      "stateMutability": "nonpayable",
      "type": "function"
    },
    {
      "inputs": [
        {
          "internalType": "bool",
          "name": "_isDonor",
          "type": "bool"
        }
      ],
      "name": "setIsDonor",
      "outputs": [],
      "stateMutability": "nonpayable",
      "type": "function"
    },
    {
      "inputs": [
        {
          "internalType": "string",
          "name": "_videoUrl",
          "type": "string"
        },
        {
          "internalType": "string",
          "name": "_videoPassword",
          "type": "string"
        }
      ],
      "name": "setVideoUrl",
      "outputs": [],
      "stateMutability": "nonpayable",
      "type": "function"
    },
    {
      "inputs": [
        {
          "internalType": "address",
          "name": "_notary",
          "type": "address"
        }
      ],
      "name": "setNotary",
      "outputs": [],
      "stateMutability": "nonpayable",
      "type": "function"
    },
    {
      "inputs": [],
      "name": "executeTestament",
      "outputs": [],
      "stateMutability": "nonpayable",
      "type": "function"
    },
    {
      "inputs": [
        {
          "internalType": "string",
          "name": "_deathCertificateId",
          "type": "string"
        }
      ],
      "name": "setDeathCertificate",
      "outputs": [],
      "stateMutability": "nonpayable",
      "type": "function"
    }
  ],
  "bytecode": "0x60806040523480156200001157600080fd5b5062000032620000266200005260201b60201c565b6200005a60201b60201c565b60008060146101000a81548160ff0219169083151502179055506200011e565b600033905090565b60008060009054906101000a900473ffffffffffffffffffffffffffffffffffffffff169050816000806101000a81548173ffffffffffffffffffffffffffffffffffffffff021916908373ffffffffffffffffffffffffffffffffffffffff1602179055508173ffffffffffffffffffffffffffffffffffffffff168173ffffffffffffffffffffffffffffffffffffffff167f8be0079c531659141344cd1fd0a4f28419497f9722a3daafe3b4186f6b6457e060405160405180910390a35050565b6126bc806200012e6000396000f3fe608060405234801561001057600080fd5b50600436106101165760003560e01c80639d54c79d116100a2578063bb2653fd11610071578063bb2653fd14610299578063ce7aca32146102b5578063d47a10dc146102d1578063d958ff99146102ed578063f2fde38b1461030b57610116565b80639d54c79d14610211578063a394a0e61461022f578063ab6003291461024b578063b8f65a381461026957610116565b8063715018a6116100e9578063715018a6146101a557806373c9fbe2146101af57806383b6f760146101cd578063898199e7146101e95780638da5cb5b146101f357610116565b80631ba437a61461011b5780631c9feaa51461014b57806322c8077f146101695780635c975abb14610187575b600080fd5b61013560048036038101906101309190611695565b610327565b604051610142919061170e565b60405180910390f35b6101536103cf565b6040516101609190611744565b60405180910390f35b6101716103e2565b60405161017e9190611744565b60405180910390f35b61018f6103f5565b60405161019c9190611744565b60405180910390f35b6101ad61040b565b005b6101b761041f565b6040516101c491906117ef565b60405180910390f35b6101e760048036038101906101e29190611811565b6104ad565b005b6101f1610664565b005b6101fb61078b565b604051610208919061186d565b60405180910390f35b6102196107b4565b604051610226919061186d565b60405180910390f35b61024960048036038101906102449190611888565b6107da565b005b6102536109c6565b60405161026091906117ef565b60405180910390f35b610283600480360381019061027e91906118eb565b610a54565b604051610290919061170e565b60405180910390f35b6102b360048036038101906102ae9190611957565b610a79565b005b6102cf60048036038101906102ca91906119cb565b610d1f565b005b6102eb60048036038101906102e69190611a78565b61103d565b005b6102f5611115565b60405161030291906117ef565b60405180910390f35b61032560048036038101906103209190611888565b6111a3565b005b60006001600061037a86868080601f016020809104026020016040519081016040528093929190818152602001838380828437600081840152601f19601f82011690508083019250505050505050611226565b815260200190815260200160002060008373ffffffffffffffffffffffffffffffffffffffff1673ffffffffffffffffffffffffffffffffffffffff1681526020019081526020016000205490509392505050565b600660149054906101000a900460ff1681565b600260009054906101000a900460ff1681565b60008060149054906101000a900460ff16905090565b61041361127c565b61041d60006112fa565b565b6003805461042c90611ad4565b80601f016020809104026020016040519081016040528092919081815260200182805461045890611ad4565b80156104a55780601f1061047a576101008083540402835291602001916104a5565b820191906000526020600020905b81548152906001019060200180831161048857829003601f168201915b505050505081565b6104b56113be565b600660009054906101000a900473ffffffffffffffffffffffffffffffffffffffff1673ffffffffffffffffffffffffffffffffffffffff163373ffffffffffffffffffffffffffffffffffffffff1614610545576040517f08c379a000000000000000000000000000000000000000000000000000000000815260040161053c90611b77565b60405180910390fd5b61054d611408565b61058b6040518060400160405280601681526020017f4f776e657220697320616c72656164792064656174680000000000000000000081525061145a565b61060e82828080601f016020809104026020016040519081016040528093929190818152602001838380828437600081840152601f19601f820116905080830192505050505050506040518060400160405280601981526020017f496e76616c6964206465617468206365727469666963617465000000000000008152506114f1565b81816005918261061f929190611d7d565b5061062861040b565b7f69b3912734ea45353fa47ae50c0264b277f901fab10492a2f8071f859724cf8c60056040516106589190611ed1565b60405180910390a15050565b61066c6113be565b600660009054906101000a900473ffffffffffffffffffffffffffffffffffffffff1673ffffffffffffffffffffffffffffffffffffffff163373ffffffffffffffffffffffffffffffffffffffff16146106fc576040517f08c379a00000000000000000000000000000000000000000000000000000000081526004016106f390611f65565b60405180910390fd5b61073a6040518060400160405280601a81526020017f446561746820636572746966696361746520726571756972656400000000000081525061145a565b610742611408565b6001600660146101000a81548160ff0219169083151502179055507f68f46c45a243a0e9065a97649faf9a5afe1692f2679e650c2f853b9cd734cc0e60405160405180910390a1565b60008060009054906101000a900473ffffffffffffffffffffffffffffffffffffffff16905090565b600660009054906101000a900473ffffffffffffffffffffffffffffffffffffffff1681565b6107e261127c565b6107ea6113be565b6107f261153d565b6107fa611408565b61080261078b565b73ffffffffffffffffffffffffffffffffffffffff168173ffffffffffffffffffffffffffffffffffffffff160361086f576040517f08c379a000000000000000000000000000000000000000000000000000000000815260040161086690611ff7565b60405180910390fd5b600660009054906101000a900473ffffffffffffffffffffffffffffffffffffffff1673ffffffffffffffffffffffffffffffffffffffff168173ffffffffffffffffffffffffffffffffffffffff16036108ff576040517f08c379a00000000000000000000000000000000000000000000000000000000081526004016108f690612089565b60405180910390fd5b6000600660009054906101000a900473ffffffffffffffffffffffffffffffffffffffff16905081600660006101000a81548173ffffffffffffffffffffffffffffffffffffffff021916908373ffffffffffffffffffffffffffffffffffffffff1602179055507fc3dd0606c8063f6a1f8015be4afee6b47ac45ddbaf39418871880440620dce8d600660009054906101000a900473ffffffffffffffffffffffffffffffffffffffff16826040516109ba9291906120a9565b60405180910390a15050565b600580546109d390611ad4565b80601f01602080910402602001604051908101604052809291908181526020018280546109ff90611ad4565b8015610a4c5780601f10610a2157610100808354040283529160200191610a4c565b820191906000526020600020905b815481529060010190602001808311610a2f57829003601f168201915b505050505081565b6001602052816000526040600020602052806000526040600020600091509150505481565b610a8161127c565b610a896113be565b600660149054906101000a900460ff1615610aa357600080fd5b610aab61078b565b73ffffffffffffffffffffffffffffffffffffffff168273ffffffffffffffffffffffffffffffffffffffff1603610b18576040517f08c379a0000000000000000000000000000000000000000000000000000000008152600401610b0f90612144565b60405180910390fd5b610b9b84848080601f016020809104026020016040519081016040528093929190818152602001838380828437600081840152601f19601f820116905080830192505050505050506040518060400160405280601081526020017f496e76616c6964206173736574206964000000000000000000000000000000008152506114f1565b6000610bea85858080601f016020809104026020016040519081016040528093929190818152602001838380828437600081840152601f19601f82011690508083019250505050505050611226565b905060006001600083815260200190815260200160002060008573ffffffffffffffffffffffffffffffffffffffff1673ffffffffffffffffffffffffffffffffffffffff168152602001908152602001600020549050828103610c83576040517f08c379a0000000000000000000000000000000000000000000000000000000008152600401610c7a906121d6565b60405180910390fd5b826001600084815260200190815260200160002060008673ffffffffffffffffffffffffffffffffffffffff1673ffffffffffffffffffffffffffffffffffffffff168152602001908152602001600020819055507f59c0830dc4499204f0a6d6564d9ded164162be6e588228978d12d860cda2d1328686868685604051610d0f959493929190612232565b60405180910390a1505050505050565b610d2761127c565b610d2f6113be565b610d3761153d565b610d3f611408565b610d8c84848080601f016020809104026020016040519081016040528093929190818152602001838380828437600081840152601f19601f82011690508083019250505050505050611590565b610e1f60038054610d9c90611ad4565b80601f0160208091040260200160405190810160405280929190818152602001828054610dc890611ad4565b8015610e155780601f10610dea57610100808354040283529160200191610e15565b820191906000526020600020905b815481529060010190602001808311610df857829003601f168201915b5050505050611590565b14158015610f0b5750610e7582828080601f016020809104026020016040519081016040528093929190818152602001838380828437600081840152601f19601f82011690508083019250505050505050611590565b610f0860048054610e8590611ad4565b80601f0160208091040260200160405190810160405280929190818152602001828054610eb190611ad4565b8015610efe5780601f10610ed357610100808354040283529160200191610efe565b820191906000526020600020905b815481529060010190602001808311610ee157829003601f168201915b5050505050611590565b14155b610f4a576040517f08c379a0000000000000000000000000000000000000000000000000000000008152600401610f41906122f2565b60405180910390fd5b600060038054610f5990611ad4565b80601f0160208091040260200160405190810160405280929190818152602001828054610f8590611ad4565b8015610fd25780601f10610fa757610100808354040283529160200191610fd2565b820191906000526020600020905b815481529060010190602001808311610fb557829003601f168201915b50505050509050848460039182610fea929190611d7d565b50828260049182610ffc929190611d7d565b507ee24c9f393c732fb7fda88944a94871d89529cb0538834e4b163c8885c2979960038260405161102e929190612312565b60405180910390a15050505050565b61104561127c565b61104d6113be565b61105561153d565b61105d611408565b600260009054906101000a900460ff161515811515036110b2576040517f08c379a00000000000000000000000000000000000000000000000000000000081526004016110a990612395565b60405180910390fd5b80600260006101000a81548160ff0219169083151502179055507f50b950e5e5b4bb35ce4a7e71d17247016f9261ebc7da618f9a8f7751c3f4da6a600260009054906101000a900460ff1660405161110a9190611744565b60405180910390a150565b6004805461112290611ad4565b80601f016020809104026020016040519081016040528092919081815260200182805461114e90611ad4565b801561119b5780601f106111705761010080835404028352916020019161119b565b820191906000526020600020905b81548152906001019060200180831161117e57829003601f168201915b505050505081565b6111ab61127c565b600073ffffffffffffffffffffffffffffffffffffffff168173ffffffffffffffffffffffffffffffffffffffff160361121a576040517f08c379a000000000000000000000000000000000000000000000000000000000815260040161121190612427565b60405180910390fd5b611223816112fa565b50565b6000816040516020016112399190612483565b6040516020818303038152906040528051906020012060405160200161125f91906124bb565b604051602081830303815290604052805190602001209050919050565b6112846115c0565b73ffffffffffffffffffffffffffffffffffffffff166112a261078b565b73ffffffffffffffffffffffffffffffffffffffff16146112f8576040517f08c379a00000000000000000000000000000000000000000000000000000000081526004016112ef90612522565b60405180910390fd5b565b60008060009054906101000a900473ffffffffffffffffffffffffffffffffffffffff169050816000806101000a81548173ffffffffffffffffffffffffffffffffffffffff021916908373ffffffffffffffffffffffffffffffffffffffff1602179055508173ffffffffffffffffffffffffffffffffffffffff168173ffffffffffffffffffffffffffffffffffffffff167f8be0079c531659141344cd1fd0a4f28419497f9722a3daafe3b4186f6b6457e060405160405180910390a35050565b6113c66103f5565b15611406576040517f08c379a00000000000000000000000000000000000000000000000000000000081526004016113fd9061258e565b60405180910390fd5b565b600660149054906101000a900460ff1615611458576040517f08c379a000000000000000000000000000000000000000000000000000000000815260040161144f906125fa565b60405180910390fd5b565b6114ee6005805461146a90611ad4565b80601f016020809104026020016040519081016040528092919081815260200182805461149690611ad4565b80156114e35780601f106114b8576101008083540402835291602001916114e3565b820191906000526020600020905b8154815290600101906020018083116114c657829003601f168201915b5050505050826114f1565b50565b60008251118190611538576040517f08c379a000000000000000000000000000000000000000000000000000000000815260040161152f91906117ef565b60405180910390fd5b505050565b60006005805461154c90611ad4565b90501461158e576040517f08c379a000000000000000000000000000000000000000000000000000000000815260040161158590612666565b60405180910390fd5b565b6000816040516020016115a39190612483565b604051602081830303815290604052805190602001209050919050565b600033905090565b600080fd5b600080fd5b600080fd5b600080fd5b600080fd5b60008083601f8401126115f7576115f66115d2565b5b8235905067ffffffffffffffff811115611614576116136115d7565b5b6020830191508360018202830111156116305761162f6115dc565b5b9250929050565b600073ffffffffffffffffffffffffffffffffffffffff82169050919050565b600061166282611637565b9050919050565b61167281611657565b811461167d57600080fd5b50565b60008135905061168f81611669565b92915050565b6000806000604084860312156116ae576116ad6115c8565b5b600084013567ffffffffffffffff8111156116cc576116cb6115cd565b5b6116d8868287016115e1565b935093505060206116eb86828701611680565b9150509250925092565b6000819050919050565b611708816116f5565b82525050565b600060208201905061172360008301846116ff565b92915050565b60008115159050919050565b61173e81611729565b82525050565b60006020820190506117596000830184611735565b92915050565b600081519050919050565b600082825260208201905092915050565b60005b8381101561179957808201518184015260208101905061177e565b60008484015250505050565b6000601f19601f8301169050919050565b60006117c18261175f565b6117cb818561176a565b93506117db81856020860161177b565b6117e4816117a5565b840191505092915050565b6000602082019050818103600083015261180981846117b6565b905092915050565b60008060208385031215611828576118276115c8565b5b600083013567ffffffffffffffff811115611846576118456115cd565b5b611852858286016115e1565b92509250509250929050565b61186781611657565b82525050565b6000602082019050611882600083018461185e565b92915050565b60006020828403121561189e5761189d6115c8565b5b60006118ac84828501611680565b91505092915050565b6000819050919050565b6118c8816118b5565b81146118d357600080fd5b50565b6000813590506118e5816118bf565b92915050565b60008060408385031215611902576119016115c8565b5b6000611910858286016118d6565b925050602061192185828601611680565b9150509250929050565b611934816116f5565b811461193f57600080fd5b50565b6000813590506119518161192b565b92915050565b60008060008060608587031215611971576119706115c8565b5b600085013567ffffffffffffffff81111561198f5761198e6115cd565b5b61199b878288016115e1565b945094505060206119ae87828801611680565b92505060406119bf87828801611942565b91505092959194509250565b600080600080604085870312156119e5576119e46115c8565b5b600085013567ffffffffffffffff811115611a0357611a026115cd565b5b611a0f878288016115e1565b9450945050602085013567ffffffffffffffff811115611a3257611a316115cd565b5b611a3e878288016115e1565b925092505092959194509250565b611a5581611729565b8114611a6057600080fd5b50565b600081359050611a7281611a4c565b92915050565b600060208284031215611a8e57611a8d6115c8565b5b6000611a9c84828501611a63565b91505092915050565b7f4e487b7100000000000000000000000000000000000000000000000000000000600052602260045260246000fd5b60006002820490506001821680611aec57607f821691505b602082108103611aff57611afe611aa5565b5b50919050565b7f4e6f7420656e6f756768207065726d697373696f6e7320746f2061646420612060008201527f6465617468206365727469666963617465000000000000000000000000000000602082015250565b6000611b6160318361176a565b9150611b6c82611b05565b604082019050919050565b60006020820190508181036000830152611b9081611b54565b9050919050565b600082905092915050565b7f4e487b7100000000000000000000000000000000000000000000000000000000600052604160045260246000fd5b60008190508160005260206000209050919050565b60006020601f8301049050919050565b600082821b905092915050565b600060088302611c337fffffffffffffffffffffffffffffffffffffffffffffffffffffffffffffffff82611bf6565b611c3d8683611bf6565b95508019841693508086168417925050509392505050565b6000819050919050565b6000611c7a611c75611c70846116f5565b611c55565b6116f5565b9050919050565b6000819050919050565b611c9483611c5f565b611ca8611ca082611c81565b848454611c03565b825550505050565b600090565b611cbd611cb0565b611cc8818484611c8b565b505050565b5b81811015611cec57611ce1600082611cb5565b600181019050611cce565b5050565b601f821115611d3157611d0281611bd1565b611d0b84611be6565b81016020851015611d1a578190505b611d2e611d2685611be6565b830182611ccd565b50505b505050565b600082821c905092915050565b6000611d5460001984600802611d36565b1980831691505092915050565b6000611d6d8383611d43565b9150826002028217905092915050565b611d878383611b97565b67ffffffffffffffff811115611da057611d9f611ba2565b5b611daa8254611ad4565b611db5828285611cf0565b6000601f831160018114611de45760008415611dd2578287013590505b611ddc8582611d61565b865550611e44565b601f198416611df286611bd1565b60005b82811015611e1a57848901358255600182019150602085019450602081019050611df5565b86831015611e375784890135611e33601f891682611d43565b8355505b6001600288020188555050505b50505050505050565b60008154611e5a81611ad4565b611e64818661176a565b94506001821660008114611e7f5760018114611e9557611ec8565b60ff198316865281151560200286019350611ec8565b611e9e85611bd1565b60005b83811015611ec057815481890152600182019150602081019050611ea1565b808801955050505b50505092915050565b60006020820190508181036000830152611eeb8184611e4d565b905092915050565b7f4e6f7420656e6f756768207065726d697373696f6e7320746f2065786563757460008201527f65207468652074657374616d656e740000000000000000000000000000000000602082015250565b6000611f4f602f8361176a565b9150611f5a82611ef3565b604082019050919050565b60006020820190508181036000830152611f7e81611f42565b9050919050565b7f4f776e6572206f66207468652074657374616d656e742063616e6e6f7420626560008201527f20746865206e6f74617279000000000000000000000000000000000000000000602082015250565b6000611fe1602b8361176a565b9150611fec82611f85565b604082019050919050565b6000602082019050818103600083015261201081611fd4565b9050919050565b7f4e6f7461727920616c72656164792073746f7265642c2074727920612064696660008201527f666572656e74206e6f7461727920616464726573730000000000000000000000602082015250565b600061207360358361176a565b915061207e82612017565b604082019050919050565b600060208201905081810360008301526120a281612066565b9050919050565b60006040820190506120be600083018561185e565b6120cb602083018461185e565b9392505050565b7f4f776e6572206f66207468652074657374616d656e742063616e6e6f7420626560008201527f2061206865697200000000000000000000000000000000000000000000000000602082015250565b600061212e60278361176a565b9150612139826120d2565b604082019050919050565b6000602082019050818103600083015261215d81612121565b9050919050565b7f50657263656e7420616c72656164792073657420666f7220746865206865697260008201527f2061737365740000000000000000000000000000000000000000000000000000602082015250565b60006121c060268361176a565b91506121cb82612164565b604082019050919050565b600060208201905081810360008301526121ef816121b3565b9050919050565b82818337600083830152505050565b6000612211838561176a565b935061221e8385846121f6565b612227836117a5565b840190509392505050565b6000608082019050818103600083015261224d818789612205565b905061225c602083018661185e565b61226960408301856116ff565b61227660608301846116ff565b9695505050505050565b7f55726c20616c72656164792073746f7265642c2074727920612064696666657260008201527f656e7420766964656f2075726c00000000000000000000000000000000000000602082015250565b60006122dc602d8361176a565b91506122e782612280565b604082019050919050565b6000602082019050818103600083015261230b816122cf565b9050919050565b6000604082019050818103600083015261232c8185611e4d565b9050818103602083015261234081846117b6565b90509392505050565b7f446f6e6f722076616c756520697320616c726561647920736574000000000000600082015250565b600061237f601a8361176a565b915061238a82612349565b602082019050919050565b600060208201905081810360008301526123ae81612372565b9050919050565b7f4f776e61626c653a206e6577206f776e657220697320746865207a65726f206160008201527f6464726573730000000000000000000000000000000000000000000000000000602082015250565b600061241160268361176a565b915061241c826123b5565b604082019050919050565b6000602082019050818103600083015261244081612404565b9050919050565b600081905092915050565b600061245d8261175f565b6124678185612447565b935061247781856020860161177b565b80840191505092915050565b600061248f8284612452565b915081905092915050565b6000819050919050565b6124b56124b0826118b5565b61249a565b82525050565b60006124c782846124a4565b60208201915081905092915050565b7f4f776e61626c653a2063616c6c6572206973206e6f7420746865206f776e6572600082015250565b600061250c60208361176a565b9150612517826124d6565b602082019050919050565b6000602082019050818103600083015261253b816124ff565b9050919050565b7f5061757361626c653a2070617573656400000000000000000000000000000000600082015250565b600061257860108361176a565b915061258382612542565b602082019050919050565b600060208201905081810360008301526125a78161256b565b9050919050565b7f54657374616d656e7420616c7265616479206578656375746564000000000000600082015250565b60006125e4601a8361176a565b91506125ef826125ae565b602082019050919050565b60006020820190508181036000830152612613816125d7565b9050919050565b7f54657374616d656e74206f776e657220697320616c7265616479206465617468600082015250565b600061265060208361176a565b915061265b8261261a565b602082019050919050565b6000602082019050818103600083015261267f81612643565b905091905056fea2646970667358221220276ee79c3799c791bccdc3418c9f2e75ab2cfeb175a085de5be5e3be06c06e9c64736f6c63430008100033",
  "immutableReferences": {},
  "source": "// Version de solidity del Smart Contract\n// SPDX-License-Identifier: UNLICENSED\n\npragma solidity ^0.8.16;\n\n// Smart Contract Information\n// Name: Testament\n\nimport \"@openzeppelin/contracts/access/Ownable.sol\";\nimport \"@openzeppelin/contracts/security/Pausable.sol\";\n\n// Smart Contract - Testament\ncontract Testament is Ownable, Pausable {\n\n    // Relation of assets with wallets\n    mapping(bytes32 => mapping(address => uint256)) public assetsPercents;\n\n    // true if user will donate its organs\n    bool public isDonor;\n\n    // Url of the video to be seen by the heirs\n    string public videoUrl;\n    string public videoPassword;\n\n    // Death certificate id\n    string public deathCertificateId;\n\n    // Notary can update a death certificate and execute the testament\n    address public notary;\n\n    bool public isExecuted;\n\n    event Executed();\n\n    event Deceased(\n        string deathCertificateId\n    );\n\n    event UpdatedVideo(\n        string videoUrl,\n        string oldVideoUrl\n    );\n\n    event UpdatedNotary(\n        address notaryAddress,\n        address oldNotaryAddress\n    );\n\n    event UpdatedIsDonor(\n        bool isDonor\n    );\n\n    event UpdatedAsset(\n        string assetId,\n        address heir,\n        uint256 newPercent,\n        uint256 oldPercent\n    );\n\n    function getAssetPercent(string calldata _assetId, address _heir) public view returns (uint256) {\n        return assetsPercents[secureHash(_assetId)][_heir];\n    }\n\n    function registerAsset(string calldata _assetId, address _heir, uint256 _percent) public onlyOwner whenNotPaused {\n        require(!isExecuted);\n        require(_heir != owner(), 'Owner of the testament cannot be a heir');\n        requireValidString(_assetId, 'Invalid asset id');\n\n        bytes32 secureAssetId = secureHash(_assetId);\n\n        uint256 oldPercent = assetsPercents[secureAssetId][_heir];\n\n        require(oldPercent != _percent, 'Percent already set for the heir asset');\n\n        assetsPercents[secureAssetId][_heir] = _percent;\n\n        emit UpdatedAsset(_assetId, _heir, _percent, oldPercent);\n    }\n\n    function setIsDonor(bool _isDonor) public onlyOwner whenNotPaused {\n        checkIsNotDeath();\n        checkIsNotExecuted();\n        require(_isDonor != isDonor, 'Donor value is already set');\n\n        isDonor = _isDonor;\n\n        emit UpdatedIsDonor(isDonor);\n    }\n\n    function setVideoUrl(string calldata _videoUrl, string calldata _videoPassword) public onlyOwner whenNotPaused {\n        checkIsNotDeath();\n        checkIsNotExecuted();\n        require(hash(videoUrl) != hash(_videoUrl) && hash(videoPassword) != hash(_videoPassword), 'Url already stored, try a different video url');\n\n        string memory oldVideoUrl = videoUrl;\n\n        videoUrl = _videoUrl;\n        videoPassword = _videoPassword;\n\n        emit UpdatedVideo(videoUrl, oldVideoUrl);\n    }\n\n    function setNotary(address _notary) public onlyOwner whenNotPaused {\n        checkIsNotDeath();\n        checkIsNotExecuted();\n        require(_notary != owner(), 'Owner of the testament cannot be the notary');\n        require(_notary != notary, 'Notary already stored, try a different notary address');\n\n        address oldNotary = notary;\n\n        notary = _notary;\n\n        emit UpdatedNotary(notary, oldNotary);\n    }\n\n    function executeTestament() public whenNotPaused {\n        require(msg.sender == notary, 'Not enough permissions to execute the testament');\n        checkIsDeath('Death certificate required');\n        checkIsNotExecuted();\n\n        isExecuted = true;\n\n        emit Executed();\n    }\n\n    function setDeathCertificate(string calldata _deathCertificateId) public whenNotPaused {\n        require(msg.sender == notary, 'Not enough permissions to add a death certificate');\n        checkIsNotExecuted();\n        checkIsDeath('Owner is already death');\n        requireValidString(_deathCertificateId, 'Invalid death certificate');\n\n        deathCertificateId = _deathCertificateId;\n\n        // Owner deceased\n        renounceOwnership();\n\n        emit Deceased(deathCertificateId);\n    }\n\n    // PRIVATE FUNCTIONS\n\n    function requireValidString(string memory str, string memory errorMessage) private pure {\n        require(bytes(str).length > 0, errorMessage);\n    }\n\n    function hash(string memory text) private pure returns (bytes32) {\n        return keccak256(abi.encodePacked(text));\n    }\n\n    function secureHash(string memory text) private pure returns (bytes32) {\n        return keccak256(abi.encodePacked(keccak256(abi.encodePacked(text))));\n    }\n\n    function checkIsNotDeath() private view {\n        require(bytes(deathCertificateId).length == 0, 'Testament owner is already death');\n    }\n\n    function checkIsDeath(string memory errorMessage) private view {\n        requireValidString(deathCertificateId, errorMessage);\n    }\n\n    function checkIsNotExecuted() private view {\n        require(!isExecuted, 'Testament already executed');\n    }\n}\n",
  "sourcePath": "/Users/napascual/development/testament/contracts/Testament.sol",
  "compiler": {
    "name": "solc",
    "version": "0.8.16+commit.07a7930e.Emscripten.clang"
  },
  "schemaVersion": "3.4.10",
  "updatedAt": "2022-11-19T07:56:28.617Z",
  "devdoc": {
    "kind": "dev",
    "methods": {
      "owner()": {
        "details": "Returns the address of the current owner."
      },
      "paused()": {
        "details": "Returns true if the contract is paused, and false otherwise."
      },
      "renounceOwnership()": {
        "details": "Leaves the contract without owner. It will not be possible to call `onlyOwner` functions anymore. Can only be called by the current owner. NOTE: Renouncing ownership will leave the contract without an owner, thereby removing any functionality that is only available to the owner."
      },
      "transferOwnership(address)": {
        "details": "Transfers ownership of the contract to a new account (`newOwner`). Can only be called by the current owner."
      }
    },
    "version": 1
  },
  "userdoc": {
    "kind": "user",
    "methods": {},
    "version": 1
  }
}